{
  "contractName": "Election",
  "abi": [
    {
      "constant": true,
      "inputs": [
        {
          "internalType": "string",
          "name": "encUsername",
          "type": "string"
        }
      ],
      "name": "getAllSuperAdminDetails",
      "outputs": [
        {
          "components": [
            {
              "internalType": "string",
              "name": "name",
              "type": "string"
            },
            {
              "internalType": "string",
              "name": "emailId",
              "type": "string"
            },
            {
              "internalType": "string",
              "name": "username",
              "type": "string"
            },
            {
              "internalType": "bytes32",
              "name": "encUsername",
              "type": "bytes32"
            },
            {
              "internalType": "bytes32",
              "name": "password",
              "type": "bytes32"
            },
            {
              "internalType": "bool",
              "name": "occupied",
              "type": "bool"
            },
            {
              "internalType": "bool",
              "name": "canDelete",
              "type": "bool"
            }
          ],
          "internalType": "struct Election.superAdmin[]",
          "name": "",
          "type": "tuple[]"
        }
      ],
      "payable": false,
      "stateMutability": "view",
      "type": "function"
    },
    {
      "constant": true,
      "inputs": [
        {
          "internalType": "string",
          "name": "encUsername",
          "type": "string"
        }
      ],
      "name": "isSuperAdminUsernameTaken",
      "outputs": [
        {
          "internalType": "bool",
          "name": "",
          "type": "bool"
        }
      ],
      "payable": false,
      "stateMutability": "view",
      "type": "function"
    },
    {
      "constant": false,
      "inputs": [
        {
          "internalType": "string",
          "name": "name",
          "type": "string"
        },
        {
          "internalType": "string",
          "name": "emailId",
          "type": "string"
        },
        {
          "internalType": "string",
          "name": "username",
          "type": "string"
        },
        {
          "internalType": "string",
          "name": "encUsername",
          "type": "string"
        },
        {
          "internalType": "string",
          "name": "password",
          "type": "string"
        },
        {
          "internalType": "string",
          "name": "adminUsername",
          "type": "string"
        }
      ],
      "name": "finallyAddSuperAdmin",
      "outputs": [],
      "payable": false,
      "stateMutability": "nonpayable",
      "type": "function"
    },
    {
      "constant": true,
      "inputs": [
        {
          "internalType": "string",
          "name": "name",
          "type": "string"
        },
        {
          "internalType": "string",
          "name": "emailId",
          "type": "string"
        },
        {
          "internalType": "string",
          "name": "username",
          "type": "string"
        },
        {
          "internalType": "string",
          "name": "encUsername",
          "type": "string"
        },
        {
          "internalType": "string",
          "name": "password",
          "type": "string"
        }
      ],
      "name": "isSuperAdminAdded",
      "outputs": [
        {
          "internalType": "int256",
          "name": "",
          "type": "int256"
        }
      ],
      "payable": false,
      "stateMutability": "view",
      "type": "function"
    },
    {
      "constant": true,
      "inputs": [
        {
          "internalType": "string",
          "name": "username",
          "type": "string"
        },
        {
          "internalType": "string",
          "name": "encUsername",
          "type": "string"
        },
        {
          "internalType": "string",
          "name": "password",
          "type": "string"
        }
      ],
      "name": "authSuperAdmin",
      "outputs": [
        {
          "internalType": "bool",
          "name": "",
          "type": "bool"
        }
      ],
      "payable": false,
      "stateMutability": "view",
      "type": "function"
    },
    {
      "constant": false,
      "inputs": [
        {
          "internalType": "string",
          "name": "name",
          "type": "string"
        },
        {
          "internalType": "string",
          "name": "emailId",
          "type": "string"
        },
        {
          "internalType": "string",
          "name": "encUsername",
          "type": "string"
        },
        {
          "internalType": "string",
          "name": "password",
          "type": "string"
        }
      ],
      "name": "editSuperAdminAllDetails",
      "outputs": [],
      "payable": false,
      "stateMutability": "nonpayable",
      "type": "function"
    },
    {
      "constant": false,
      "inputs": [
        {
          "internalType": "string",
          "name": "name",
          "type": "string"
        },
        {
          "internalType": "string",
          "name": "encUsername",
          "type": "string"
        }
      ],
      "name": "editSuperAdminName",
      "outputs": [],
      "payable": false,
      "stateMutability": "nonpayable",
      "type": "function"
    },
    {
      "constant": false,
      "inputs": [
        {
          "internalType": "string",
          "name": "emailId",
          "type": "string"
        },
        {
          "internalType": "string",
          "name": "encUsername",
          "type": "string"
        }
      ],
      "name": "editSuperAdminEmailId",
      "outputs": [],
      "payable": false,
      "stateMutability": "nonpayable",
      "type": "function"
    },
    {
      "constant": false,
      "inputs": [
        {
          "internalType": "string",
          "name": "password",
          "type": "string"
        },
        {
          "internalType": "string",
          "name": "encUsername",
          "type": "string"
        }
      ],
      "name": "editSuperAdminPassword",
      "outputs": [],
      "payable": false,
      "stateMutability": "nonpayable",
      "type": "function"
    },
    {
      "constant": true,
      "inputs": [
        {
          "internalType": "string",
          "name": "encUsername",
          "type": "string"
        }
      ],
      "name": "getSuperAdminDetails",
      "outputs": [
        {
          "components": [
            {
              "internalType": "string",
              "name": "name",
              "type": "string"
            },
            {
              "internalType": "string",
              "name": "emailId",
              "type": "string"
            },
            {
              "internalType": "string",
              "name": "username",
              "type": "string"
            },
            {
              "internalType": "bytes32",
              "name": "encUsername",
              "type": "bytes32"
            },
            {
              "internalType": "bytes32",
              "name": "password",
              "type": "bytes32"
            },
            {
              "internalType": "bool",
              "name": "occupied",
              "type": "bool"
            },
            {
              "internalType": "bool",
              "name": "canDelete",
              "type": "bool"
            }
          ],
          "internalType": "struct Election.superAdmin",
          "name": "",
          "type": "tuple"
        }
      ],
      "payable": false,
      "stateMutability": "view",
      "type": "function"
    },
    {
      "constant": false,
      "inputs": [
        {
          "internalType": "string",
          "name": "name",
          "type": "string"
        },
        {
          "internalType": "string",
          "name": "emailId",
          "type": "string"
        },
        {
          "internalType": "string",
          "name": "username",
          "type": "string"
        },
        {
          "internalType": "string",
          "name": "encUsername",
          "type": "string"
        },
        {
          "internalType": "string",
          "name": "password",
          "type": "string"
        }
      ],
      "name": "defaultSuperAdmin",
      "outputs": [],
      "payable": false,
      "stateMutability": "nonpayable",
      "type": "function"
    },
    {
      "constant": false,
      "inputs": [
        {
          "internalType": "string",
          "name": "encUsername",
          "type": "string"
        },
        {
          "internalType": "string",
          "name": "dateTime",
          "type": "string"
        }
      ],
      "name": "modifySuperAdminLoginLog",
      "outputs": [],
      "payable": false,
      "stateMutability": "nonpayable",
      "type": "function"
    },
    {
      "constant": true,
      "inputs": [
        {
          "internalType": "string",
          "name": "encUsername",
          "type": "string"
        }
      ],
      "name": "getSuperAdminLoginLog",
      "outputs": [
        {
          "internalType": "string",
          "name": "",
          "type": "string"
        }
      ],
      "payable": false,
      "stateMutability": "view",
      "type": "function"
    },
    {
      "constant": true,
      "inputs": [
        {
          "internalType": "string",
          "name": "username",
          "type": "string"
        },
        {
          "internalType": "string",
          "name": "encUsername",
          "type": "string"
        },
        {
          "internalType": "string",
          "name": "superAdminUsername",
          "type": "string"
        },
        {
          "internalType": "string",
          "name": "superAdminEncUsername",
          "type": "string"
        }
      ],
      "name": "deleteSuperAdmin",
      "outputs": [
        {
          "internalType": "uint256",
          "name": "",
          "type": "uint256"
        }
      ],
      "payable": false,
      "stateMutability": "view",
      "type": "function"
    }
  ],
  "bytecode": "0x6080604052600080556000600160006101000a81548160ff02191690831515021790555034801561002f57600080fd5b50612dcd8061003f6000396000f3fe608060405234801561001057600080fd5b50600436106100ea5760003560e01c80639c507e5b1161008c578063cd2e5bb711610066578063cd2e5bb71461026b578063db463d6814610287578063dc20ca41146102b7578063e7fbdd53146102e7576100ea565b80639c507e5b146101ef578063afe2503b1461021f578063bf7cf9271461023b576100ea565b8063517f6117116100c8578063517f61171461016b5780635513c9bb14610187578063772a6a0d146101a357806391515238146101bf576100ea565b80630f2910dc146100ef5780631319f3051461011f5780632a6a6acb1461014f575b600080fd5b6101096004803603610104919081019061241b565b610303565b6040516101169190612bac565b60405180910390f35b610139600480360361013491908101906124c8565b6103c6565b6040516101469190612b76565b60405180910390f35b6101696004803603610164919081019061255f565b61069c565b005b61018560048036036101809190810190612622565b6108f8565b005b6101a1600480360361019c919081019061245c565b610a50565b005b6101bd60048036036101b89190810190612711565b610dbe565b005b6101d960048036036101d4919081019061241b565b610e11565b6040516101e69190612bce565b60405180910390f35b6102096004803603610204919081019061255f565b61107c565b6040516102169190612bf0565b60405180910390f35b6102396004803603610234919081019061245c565b611097565b005b6102556004803603610250919081019061241b565b611407565b6040516102629190612b54565b60405180910390f35b6102856004803603610280919081019061245c565b611741565b005b6102a1600480360361029c9190810190612622565b611ab1565b6040516102ae9190612b91565b60405180910390f35b6102d160048036036102cc919081019061241b565b611b42565b6040516102de9190612b76565b60405180910390f35b61030160048036036102fc919081019061245c565b611b94565b005b6060600061031083611bce565b9050600a60008281526020019081526020016000208054600181600116156101000203166002900480601f0160208091040260200160405190810160405280929190818152602001828054600181600116156101000203166002900480156103b95780601f1061038e576101008083540402835291602001916103b9565b820191906000526020600020905b81548152906001019060200180831161039c57829003601f168201915b5050505050915050919050565b6000806103d284611bce565b905060006103df84611bce565b90506103e9612120565b600860008481526020019081526020016000206040518060e0016040529081600082018054600181600116156101000203166002900480601f0160208091040260200160405190810160405280929190818152602001828054600181600116156101000203166002900480156104a05780601f10610475576101008083540402835291602001916104a0565b820191906000526020600020905b81548152906001019060200180831161048357829003601f168201915b50505050508152602001600182018054600181600116156101000203166002900480601f0160208091040260200160405190810160405280929190818152602001828054600181600116156101000203166002900480156105425780601f1061051757610100808354040283529160200191610542565b820191906000526020600020905b81548152906001019060200180831161052557829003601f168201915b50505050508152602001600282018054600181600116156101000203166002900480601f0160208091040260200160405190810160405280929190818152602001828054600181600116156101000203166002900480156105e45780601f106105b9576101008083540402835291602001916105e4565b820191906000526020600020905b8154815290600101906020018083116105c757829003601f168201915b5050505050815260200160038201548152602001600482015481526020016005820160009054906101000a900460ff161515151581526020016005820160019054906101000a900460ff161515151581525050905060006106488260400151611bce565b9050600061065589611bce565b905080821480156106695750848360600151145b80156106785750838360800151145b1561068b57600195505050505050610695565b6000955050505050505b9392505050565b60006106a783611bce565b905060006106b483611bce565b9050600860008381526020019081526020016000206002600082018160000190805460018160011615610100020316600290046106f2929190612167565b506001820181600101908054600181600116156101000203166002900461071a929190612167565b5060028201816002019080546001816001161561010002031660029004610742929190612167565b5060038201548160030155600482015481600401556005820160009054906101000a900460ff168160050160006101000a81548160ff0219169083151502179055506005820160019054906101000a900460ff168160050160016101000a81548160ff02191690831515021790555090505085600260000190805190602001906107cd9291906121ee565b5084600260010190805190602001906107e79291906121ee565b50806002600401819055506002600860008481526020019081526020016000206000820181600001908054600181600116156101000203166002900461082e929190612167565b5060018201816001019080546001816001161561010002031660029004610856929190612167565b506002820181600201908054600181600116156101000203166002900461087e929190612167565b5060038201548160030155600482015481600401556005820160009054906101000a900460ff168160050160006101000a81548160ff0219169083151502179055506005820160019054906101000a900460ff168160050160016101000a81548160ff021916908315150217905550905050505050505050565b600160009054906101000a900460ff16610a4957600061091783611bce565b9050600061092483611bce565b905061092e612120565b6040518060e001604052808981526020018881526020018781526020018481526020018381526020016001151581526020016000151581525090508060086000858152602001908152602001600020600082015181600001908051906020019061099992919061226e565b5060208201518160010190805190602001906109b692919061226e565b5060408201518160020190805190602001906109d392919061226e565b50606082015181600301556080820151816004015560a08201518160050160006101000a81548160ff02191690831515021790555060c08201518160050160016101000a81548160ff02191690831515021790555090505060018060006101000a81548160ff0219169083151502179055505050505b5050505050565b6000610a5b82611bce565b90506000610a6884611bce565b905060086000838152602001908152602001600020600260008201816000019080546001816001161561010002031660029004610aa6929190612167565b5060018201816001019080546001816001161561010002031660029004610ace929190612167565b5060028201816002019080546001816001161561010002031660029004610af6929190612167565b5060038201548160030155600482015481600401556005820160009054906101000a900460ff168160050160006101000a81548160ff0219169083151502179055506005820160019054906101000a900460ff168160050160016101000a81548160ff02191690831515021790555090505080600260040181905550610db860026040518060e0016040529081600082018054600181600116156101000203166002900480601f016020809104026020016040519081016040528092919081815260200182805460018160011615610100020316600290048015610c1b5780601f10610bf057610100808354040283529160200191610c1b565b820191906000526020600020905b815481529060010190602001808311610bfe57829003601f168201915b50505050508152602001600182018054600181600116156101000203166002900480601f016020809104026020016040519081016040528092919081815260200182805460018160011615610100020316600290048015610cbd5780601f10610c9257610100808354040283529160200191610cbd565b820191906000526020600020905b815481529060010190602001808311610ca057829003601f168201915b50505050508152602001600282018054600181600116156101000203166002900480601f016020809104026020016040519081016040528092919081815260200182805460018160011615610100020316600290048015610d5f5780601f10610d3457610100808354040283529160200191610d5f565b820191906000526020600020905b815481529060010190602001808311610d4257829003601f168201915b5050505050815260200160038201548152602001600482015481526020016005820160009054906101000a900460ff161515151581526020016005820160019054906101000a900460ff16151515158152505084611c46565b50505050565b610dc66122ee565b6040518060a00160405280888152602001878152602001868152602001858152602001848152509050610df882611b42565b15610e0857610e078183611d1a565b5b50505050505050565b610e19612120565b6000610e2483611bce565b9050600860008281526020019081526020016000206040518060e0016040529081600082018054600181600116156101000203166002900480601f016020809104026020016040519081016040528092919081815260200182805460018160011615610100020316600290048015610edd5780601f10610eb257610100808354040283529160200191610edd565b820191906000526020600020905b815481529060010190602001808311610ec057829003601f168201915b50505050508152602001600182018054600181600116156101000203166002900480601f016020809104026020016040519081016040528092919081815260200182805460018160011615610100020316600290048015610f7f5780601f10610f5457610100808354040283529160200191610f7f565b820191906000526020600020905b815481529060010190602001808311610f6257829003601f168201915b50505050508152602001600282018054600181600116156101000203166002900480601f0160208091040260200160405190810160405280929190818152602001828054600181600116156101000203166002900480156110215780601f10610ff657610100808354040283529160200191611021565b820191906000526020600020905b81548152906001019060200180831161100457829003601f168201915b5050505050815260200160038201548152602001600482015481526020016005820160009054906101000a900460ff161515151581526020016005820160019054906101000a900460ff161515151581525050915050919050565b60008061108883611bce565b90506000915050949350505050565b60006110a282611bce565b9050600860008281526020019081526020016000206002600082018160000190805460018160011615610100020316600290046110e0929190612167565b5060018201816001019080546001816001161561010002031660029004611108929190612167565b5060028201816002019080546001816001161561010002031660029004611130929190612167565b5060038201548160030155600482015481600401556005820160009054906101000a900460ff168160050160006101000a81548160ff0219169083151502179055506005820160019054906101000a900460ff168160050160016101000a81548160ff02191690831515021790555090505082600260010190805190602001906111bb9291906121ee565b5061140260026040518060e0016040529081600082018054600181600116156101000203166002900480601f0160208091040260200160405190810160405280929190818152602001828054600181600116156101000203166002900480156112655780601f1061123a57610100808354040283529160200191611265565b820191906000526020600020905b81548152906001019060200180831161124857829003601f168201915b50505050508152602001600182018054600181600116156101000203166002900480601f0160208091040260200160405190810160405280929190818152602001828054600181600116156101000203166002900480156113075780601f106112dc57610100808354040283529160200191611307565b820191906000526020600020905b8154815290600101906020018083116112ea57829003601f168201915b50505050508152602001600282018054600181600116156101000203166002900480601f0160208091040260200160405190810160405280929190818152602001828054600181600116156101000203166002900480156113a95780601f1061137e576101008083540402835291602001916113a9565b820191906000526020600020905b81548152906001019060200180831161138c57829003601f168201915b5050505050815260200160038201548152602001600482015481526020016005820160009054906101000a900460ff161515151581526020016005820160019054906101000a900460ff16151515158152505083611c46565b505050565b606061141282611b42565b156116f757606060005460405190808252806020026020018201604052801561145557816020015b61144261231d565b81526020019060019003908161143a5790505b50905060008090505b6000548110156116ed5760086000600960008481526020019081526020016000205481526020019081526020016000206040518060e0016040529081600082018054600181600116156101000203166002900480601f0160208091040260200160405190810160405280929190818152602001828054600181600116156101000203166002900480156115325780601f1061150757610100808354040283529160200191611532565b820191906000526020600020905b81548152906001019060200180831161151557829003601f168201915b50505050508152602001600182018054600181600116156101000203166002900480601f0160208091040260200160405190810160405280929190818152602001828054600181600116156101000203166002900480156115d45780601f106115a9576101008083540402835291602001916115d4565b820191906000526020600020905b8154815290600101906020018083116115b757829003601f168201915b50505050508152602001600282018054600181600116156101000203166002900480601f0160208091040260200160405190810160405280929190818152602001828054600181600116156101000203166002900480156116765780601f1061164b57610100808354040283529160200191611676565b820191906000526020600020905b81548152906001019060200180831161165957829003601f168201915b5050505050815260200160038201548152602001600482015481526020016005820160009054906101000a900460ff161515151581526020016005820160019054906101000a900460ff1615151515815250508282815181106116d557fe5b6020026020010181905250808060010191505061145e565b508091505061173c565b6060600060405190808252806020026020018201604052801561173457816020015b61172161231d565b8152602001906001900390816117195790505b509050809150505b919050565b600061174c82611bce565b90506008600082815260200190815260200160002060026000820181600001908054600181600116156101000203166002900461178a929190612167565b50600182018160010190805460018160011615610100020316600290046117b2929190612167565b50600282018160020190805460018160011615610100020316600290046117da929190612167565b5060038201548160030155600482015481600401556005820160009054906101000a900460ff168160050160006101000a81548160ff0219169083151502179055506005820160019054906101000a900460ff168160050160016101000a81548160ff02191690831515021790555090505082600260000190805190602001906118659291906121ee565b50611aac60026040518060e0016040529081600082018054600181600116156101000203166002900480601f01602080910402602001604051908101604052809291908181526020018280546001816001161561010002031660029004801561190f5780601f106118e45761010080835404028352916020019161190f565b820191906000526020600020905b8154815290600101906020018083116118f257829003601f168201915b50505050508152602001600182018054600181600116156101000203166002900480601f0160208091040260200160405190810160405280929190818152602001828054600181600116156101000203166002900480156119b15780601f10611986576101008083540402835291602001916119b1565b820191906000526020600020905b81548152906001019060200180831161199457829003601f168201915b50505050508152602001600282018054600181600116156101000203166002900480601f016020809104026020016040519081016040528092919081815260200182805460018160011615610100020316600290048015611a535780601f10611a2857610100808354040283529160200191611a53565b820191906000526020600020905b815481529060010190602001808311611a3657829003601f168201915b5050505050815260200160038201548152602001600482015481526020016005820160009054906101000a900460ff161515151581526020016005820160019054906101000a900460ff16151515158152505083611c46565b505050565b600080611abd84611bce565b90506000611aca84611bce565b9050611ad4612120565b6040518060e001604052808a81526020018981526020018881526020018481526020018381526020016001151581526020016001151581525090506000611b1b8288611e8c565b90508015611b305760c8945050505050611b39565b60649450505050505b95945050505050565b600080611b4e83611bce565b905060006008600083815260200190815260200160002090508060050160009054906101000a900460ff16611b8857600092505050611b8f565b6001925050505b919050565b6000611b9f83611bce565b905081600a60008381526020019081526020016000209080519060200190611bc89291906121ee565b50505050565b6000600282604051602001611be39190612b3d565b604051602081830303815290604052604051611bff9190612b26565b602060405180830381855afa158015611c1c573d6000803e3d6000fd5b5050506040513d601f19601f82011682018060405250611c3f91908101906123f2565b9050919050565b6000611c5182611bce565b905082600860008381526020019081526020016000206000820151816000019080519060200190611c8392919061226e565b506020820151816001019080519060200190611ca092919061226e565b506040820151816002019080519060200190611cbd92919061226e565b50606082015181600301556080820151816004015560a08201518160050160006101000a81548160ff02191690831515021790555060c08201518160050160016101000a81548160ff021916908315150217905550905050505050565b611d2381611b42565b15611e88576000611d378360600151611bce565b90506000611d488460800151611bce565b9050611d52612120565b6040518060e0016040528086600001518152602001866020015181526020018660400151815260200184815260200183815260200160011515815260200160011515815250905080600860008581526020019081526020016000206000820151816000019080519060200190611dc992919061226e565b506020820151816001019080519060200190611de692919061226e565b506040820151816002019080519060200190611e0392919061226e565b50606082015181600301556080820151816004015560a08201518160050160006101000a81548160ff02191690831515021790555060c08201518160050160016101000a81548160ff02191690831515021790555090505082600960008054815260200190815260200160002081905550600160008082825401925050819055505050505b5050565b600080611e9883611bce565b90506000600860008381526020019081526020016000209050611f5b816000018054600181600116156101000203166002900480601f016020809104026020016040519081016040528092919081815260200182805460018160011615610100020316600290048015611f4c5780601f10611f2157610100808354040283529160200191611f4c565b820191906000526020600020905b815481529060010190602001808311611f2f57829003601f168201915b505050505086600001516120f6565b801561200d575061200c816001018054600181600116156101000203166002900480601f016020809104026020016040519081016040528092919081815260200182805460018160011615610100020316600290048015611ffd5780601f10611fd257610100808354040283529160200191611ffd565b820191906000526020600020905b815481529060010190602001808311611fe057829003601f168201915b505050505086602001516120f6565b5b80156120bf57506120be816002018054600181600116156101000203166002900480601f0160208091040260200160405190810160405280929190818152602001828054600181600116156101000203166002900480156120af5780601f10612084576101008083540402835291602001916120af565b820191906000526020600020905b81548152906001019060200180831161209257829003601f168201915b505050505086604001516120f6565b5b80156120d957506120d881600301548660600151612113565b5b156120e9576001925050506120f0565b6000925050505b92915050565b600061210182611bce565b61210a84611bce565b14905092915050565b6000818314905092915050565b6040518060e0016040528060608152602001606081526020016060815260200160008019168152602001600080191681526020016000151581526020016000151581525090565b828054600181600116156101000203166002900490600052602060002090601f016020900481019282601f106121a057805485556121dd565b828001600101855582156121dd57600052602060002091601f016020900482015b828111156121dc5782548255916001019190600101906121c1565b5b5090506121ea9190612364565b5090565b828054600181600116156101000203166002900490600052602060002090601f016020900481019282601f1061222f57805160ff191683800117855561225d565b8280016001018555821561225d579182015b8281111561225c578251825591602001919060010190612241565b5b50905061226a9190612364565b5090565b828054600181600116156101000203166002900490600052602060002090601f016020900481019282601f106122af57805160ff19168380011785556122dd565b828001600101855582156122dd579182015b828111156122dc5782518255916020019190600101906122c1565b5b5090506122ea9190612364565b5090565b6040518060a0016040528060608152602001606081526020016060815260200160608152602001606081525090565b6040518060e0016040528060608152602001606081526020016060815260200160008019168152602001600080191681526020016000151581526020016000151581525090565b61238691905b8082111561238257600081600090555060010161236a565b5090565b90565b60008151905061239881612d73565b92915050565b600082601f8301126123af57600080fd5b81356123c26123bd82612c38565b612c0b565b915080825260208301602083018583830111156123de57600080fd5b6123e9838284612d20565b50505092915050565b60006020828403121561240457600080fd5b600061241284828501612389565b91505092915050565b60006020828403121561242d57600080fd5b600082013567ffffffffffffffff81111561244757600080fd5b6124538482850161239e565b91505092915050565b6000806040838503121561246f57600080fd5b600083013567ffffffffffffffff81111561248957600080fd5b6124958582860161239e565b925050602083013567ffffffffffffffff8111156124b257600080fd5b6124be8582860161239e565b9150509250929050565b6000806000606084860312156124dd57600080fd5b600084013567ffffffffffffffff8111156124f757600080fd5b6125038682870161239e565b935050602084013567ffffffffffffffff81111561252057600080fd5b61252c8682870161239e565b925050604084013567ffffffffffffffff81111561254957600080fd5b6125558682870161239e565b9150509250925092565b6000806000806080858703121561257557600080fd5b600085013567ffffffffffffffff81111561258f57600080fd5b61259b8782880161239e565b945050602085013567ffffffffffffffff8111156125b857600080fd5b6125c48782880161239e565b935050604085013567ffffffffffffffff8111156125e157600080fd5b6125ed8782880161239e565b925050606085013567ffffffffffffffff81111561260a57600080fd5b6126168782880161239e565b91505092959194509250565b600080600080600060a0868803121561263a57600080fd5b600086013567ffffffffffffffff81111561265457600080fd5b6126608882890161239e565b955050602086013567ffffffffffffffff81111561267d57600080fd5b6126898882890161239e565b945050604086013567ffffffffffffffff8111156126a657600080fd5b6126b28882890161239e565b935050606086013567ffffffffffffffff8111156126cf57600080fd5b6126db8882890161239e565b925050608086013567ffffffffffffffff8111156126f857600080fd5b6127048882890161239e565b9150509295509295909350565b60008060008060008060c0878903121561272a57600080fd5b600087013567ffffffffffffffff81111561274457600080fd5b61275089828a0161239e565b965050602087013567ffffffffffffffff81111561276d57600080fd5b61277989828a0161239e565b955050604087013567ffffffffffffffff81111561279657600080fd5b6127a289828a0161239e565b945050606087013567ffffffffffffffff8111156127bf57600080fd5b6127cb89828a0161239e565b935050608087013567ffffffffffffffff8111156127e857600080fd5b6127f489828a0161239e565b92505060a087013567ffffffffffffffff81111561281157600080fd5b61281d89828a0161239e565b9150509295509295509295565b60006128368383612a6d565b905092915050565b600061284982612c74565b6128538185612cad565b93508360208202850161286585612c64565b8060005b858110156128a15784840389528151612882858261282a565b945061288d83612ca0565b925060208a01995050600181019050612869565b50829750879550505050505092915050565b6128bc81612cf6565b82525050565b6128cb81612cf6565b82525050565b6128da81612d02565b82525050565b60006128eb82612c7f565b6128f58185612cbe565b9350612905818560208601612d2f565b80840191505092915050565b61291a81612d0c565b82525050565b600061292b82612c95565b6129358185612cda565b9350612945818560208601612d2f565b61294e81612d62565b840191505092915050565b600061296482612c95565b61296e8185612ceb565b935061297e818560208601612d2f565b80840191505092915050565b600061299582612c8a565b61299f8185612cc9565b93506129af818560208601612d2f565b6129b881612d62565b840191505092915050565b600060e08301600083015184820360008601526129e0828261298a565b915050602083015184820360208601526129fa828261298a565b91505060408301518482036040860152612a14828261298a565b9150506060830151612a2960608601826128d1565b506080830151612a3c60808601826128d1565b5060a0830151612a4f60a08601826128b3565b5060c0830151612a6260c08601826128b3565b508091505092915050565b600060e0830160008301518482036000860152612a8a828261298a565b91505060208301518482036020860152612aa4828261298a565b91505060408301518482036040860152612abe828261298a565b9150506060830151612ad360608601826128d1565b506080830151612ae660808601826128d1565b5060a0830151612af960a08601826128b3565b5060c0830151612b0c60c08601826128b3565b508091505092915050565b612b2081612d16565b82525050565b6000612b3282846128e0565b915081905092915050565b6000612b498284612959565b915081905092915050565b60006020820190508181036000830152612b6e818461283e565b905092915050565b6000602082019050612b8b60008301846128c2565b92915050565b6000602082019050612ba66000830184612911565b92915050565b60006020820190508181036000830152612bc68184612920565b905092915050565b60006020820190508181036000830152612be881846129c3565b905092915050565b6000602082019050612c056000830184612b17565b92915050565b6000604051905081810181811067ffffffffffffffff82111715612c2e57600080fd5b8060405250919050565b600067ffffffffffffffff821115612c4f57600080fd5b601f19601f8301169050602081019050919050565b6000819050602082019050919050565b600081519050919050565b600081519050919050565b600081519050919050565b600081519050919050565b6000602082019050919050565b600082825260208201905092915050565b600081905092915050565b600082825260208201905092915050565b600082825260208201905092915050565b600081905092915050565b60008115159050919050565b6000819050919050565b6000819050919050565b6000819050919050565b82818337600083830152505050565b60005b83811015612d4d578082015181840152602081019050612d32565b83811115612d5c576000848401525b50505050565b6000601f19601f8301169050919050565b612d7c81612d02565b8114612d8757600080fd5b5056fea365627a7a723158204abc43c6eed3e7c1ee2fc8517b50582c759493eb521acb9347f2db86ac46e3c56c6578706572696d656e74616cf564736f6c63430005100040",
  "source": "// SPDX-License-Identifier: MIT\r\n\r\npragma solidity >=0.5.16;\r\npragma experimental ABIEncoderV2;\r\n\r\n/*\r\nError Codes\r\n200     -       ok\r\n100     -       fail\r\n107     -       Unauthorized Access\r\n*/\r\n\r\ncontract Election {\r\n\r\n    /*--------------------------------------------------------------------------- \r\n                    Super Admin Module\r\n    -----------------------------------------------------------------------------*/\r\n    uint private numberOfSuperAdmins = 0;\r\n    bool private isDefaultAdminAdded = false;\r\n\r\n    struct superAdmin {\r\n        string name;\r\n        string emailId;\r\n        string username;\r\n        bytes32 encUsername;\r\n        bytes32 password;\r\n        bool occupied;\r\n        bool canDelete;\r\n    }\r\n\r\n    struct superAdminDetails {\r\n        string name;\r\n        string emailId;\r\n        string username;\r\n        string encUsername;\r\n        string password;\r\n    }\r\n\r\n    superAdmin sAdmin;\r\n\r\n    //store super admin details based on the hash value of encryptedUserName hash value\r\n    mapping(bytes32 => superAdmin) private superAdminHashmap;\r\n    mapping (uint=> bytes32) private superAdminsAccountDetails;\r\n    mapping(bytes32 => string) private superAdminLoginLog;\r\n\r\n    //get all details of Super admins\r\n    function getAllSuperAdminDetails(string memory encUsername) public view returns(superAdmin[] memory) {\r\n\r\n        if (isSuperAdminUsernameTaken(encUsername)) {\r\n            superAdmin[] memory allDetails = new superAdmin[](numberOfSuperAdmins);\r\n            for (uint i = 0; i < numberOfSuperAdmins; i++) {\r\n                allDetails[i] = superAdminHashmap[superAdminsAccountDetails[i]];\r\n            }\r\n            return allDetails;\r\n        } else {\r\n            superAdmin[] memory allDetails = new superAdmin[](0);\r\n            return allDetails;\r\n        }\r\n    }\r\n\r\n    //add super admin credentials into table by hashing proper credentials\r\n    function addSuperAdmin(superAdminDetails memory adminDetails, string memory adminHashCode) private{\r\n        \r\n        if (isSuperAdminUsernameTaken(adminHashCode)) {\r\n            bytes32 usernameHash = getStringHashedToBytes32(adminDetails.encUsername);\r\n            bytes32 passwordHash = getStringHashedToBytes32(adminDetails.password);\r\n            \r\n            superAdmin memory admin = superAdmin(adminDetails.name, adminDetails.emailId, adminDetails.username, usernameHash, passwordHash, true, true);\r\n\r\n            superAdminHashmap[usernameHash] = admin;\r\n            superAdminsAccountDetails[numberOfSuperAdmins] = usernameHash;\r\n\r\n            numberOfSuperAdmins += 1;\r\n        }\r\n    }\r\n\r\n    function storeSuperAdminAtPosition(superAdmin memory adminData, string memory encUsername) private {\r\n        bytes32 usernameHash = getStringHashedToBytes32(encUsername);\r\n\r\n        superAdminHashmap[usernameHash] = adminData;\r\n    }\r\n\r\n    //checks the hashmap, wheather admin details is present already\r\n    function isSuperAdminPresent(superAdmin memory adminDetails, string memory encUsername) private view returns(bool) {\r\n        bytes32 usernameHash = getStringHashedToBytes32(encUsername);\r\n\r\n        superAdmin storage admin = superAdminHashmap[usernameHash];\r\n\r\n        if (isEqual(admin.name, adminDetails.name) && isEqual(admin.emailId, adminDetails.emailId) && isEqual(admin.username, adminDetails.username) && isEqualByBytes32(admin.encUsername, adminDetails.encUsername)) {\r\n            return true;\r\n        }\r\n\r\n        return false;\r\n    }\r\n\r\n    //checks if the admin username is already taken\r\n    function isSuperAdminUsernameTaken(string memory encUsername) public view returns(bool) {\r\n        bytes32 usernameHash = getStringHashedToBytes32(encUsername);\r\n\r\n        superAdmin storage admin = superAdminHashmap[usernameHash];\r\n\r\n        if (!admin.occupied) {\r\n            return false;\r\n        }\r\n\r\n        return true;\r\n    }\r\n\r\n    //will add the details into hashmap once all the api calls are satisfied\r\n    function finallyAddSuperAdmin(string memory name, string memory emailId, string memory username, string memory encUsername, string memory password, string memory adminUsername) public {\r\n        superAdminDetails memory adminDetails = superAdminDetails(name, emailId, username, encUsername, password);\r\n        if (isSuperAdminUsernameTaken(adminUsername)) {\r\n            addSuperAdmin(adminDetails, adminUsername);\r\n        }\r\n    }\r\n\r\n    //returns data by checking the hashmap if the admin is created\r\n    function isSuperAdminAdded(string memory name, string memory emailId, string memory username, string memory encUsername, string memory password) public view returns(int) {\r\n        \r\n        bytes32 usernameHash = getStringHashedToBytes32(encUsername);\r\n        bytes32 passwordHash = getStringHashedToBytes32(password);\r\n\r\n        superAdmin memory adminDetails = superAdmin(name, emailId, username, usernameHash, passwordHash, true, true);\r\n\r\n        bool isPresent = isSuperAdminPresent(adminDetails, encUsername);\r\n\r\n        if (isPresent) {\r\n            return 200;\r\n        }\r\n        return 100;\r\n    }\r\n\r\n    function authSuperAdmin(string memory username, string memory encUsername, string memory password) public view returns(bool) {\r\n        bytes32 usernameHash = getStringHashedToBytes32(encUsername);\r\n        bytes32 passwordHash = getStringHashedToBytes32(password);\r\n        \r\n        superAdmin memory authAdmin = superAdminHashmap[usernameHash];\r\n        bytes32 baseUsernameHash = getStringHashedToBytes32(authAdmin.username);\r\n        bytes32 recievedUsernameHash = getStringHashedToBytes32(username);\r\n        if (baseUsernameHash == recievedUsernameHash && authAdmin.encUsername == usernameHash && authAdmin.password == passwordHash) {\r\n            return true;\r\n        }\r\n        return false;\r\n    }\r\n\r\n    //edit super admin details as a whole, which includes Name, Email id, Password\r\n    function editSuperAdminAllDetails(string memory name, string memory emailId, string memory encUsername, string memory password) public {\r\n        bytes32 usernameHash = getStringHashedToBytes32(encUsername);\r\n        bytes32 passwordHash = getStringHashedToBytes32(password);\r\n        sAdmin = superAdminHashmap[usernameHash];\r\n        sAdmin.name = name;\r\n        sAdmin.emailId = emailId;\r\n        sAdmin.password = passwordHash;\r\n\r\n        superAdminHashmap[usernameHash] = sAdmin;\r\n    }\r\n\r\n    //edit only Super Admin name\r\n    function editSuperAdminName(string memory name, string memory encUsername) public {\r\n        bytes32 usernameHash = getStringHashedToBytes32(encUsername);\r\n\r\n        sAdmin = superAdminHashmap[usernameHash];\r\n        sAdmin.name = name;\r\n\r\n        storeSuperAdminAtPosition(sAdmin, encUsername);\r\n    }\r\n\r\n    //edit only Super Admin Email Id\r\n    function editSuperAdminEmailId(string memory emailId, string memory encUsername) public {\r\n        bytes32 usernameHash = getStringHashedToBytes32(encUsername);\r\n\r\n        sAdmin = superAdminHashmap[usernameHash];\r\n        sAdmin.emailId = emailId;\r\n\r\n        storeSuperAdminAtPosition(sAdmin, encUsername);\r\n    }\r\n\r\n    //edit only Super Admin Password\r\n    function editSuperAdminPassword(string memory password, string memory encUsername) public {\r\n        bytes32 usernameHash = getStringHashedToBytes32(encUsername);\r\n        bytes32 passwordHash = getStringHashedToBytes32(password);\r\n\r\n        sAdmin = superAdminHashmap[usernameHash];\r\n        sAdmin.password = passwordHash;\r\n\r\n        storeSuperAdminAtPosition(sAdmin, encUsername);\r\n    }\r\n\r\n    //function to get the admin details\r\n    function getSuperAdminDetails(string memory encUsername) public view returns(superAdmin memory) {\r\n        bytes32 usernameHash = getStringHashedToBytes32(encUsername);\r\n        return superAdminHashmap[usernameHash];\r\n    }\r\n\r\n    //function to create Default Super Admin\r\n    function defaultSuperAdmin(string memory name, string memory emailId, string memory username, string memory encUsername, string memory password) public {\r\n        if (!isDefaultAdminAdded) {\r\n            bytes32 usernameHash = getStringHashedToBytes32(encUsername);\r\n            bytes32 passwordHash = getStringHashedToBytes32(password);\r\n            \r\n            superAdmin memory admin = superAdmin(name, emailId, username, usernameHash, passwordHash, true, false);\r\n\r\n            superAdminHashmap[usernameHash] = admin;\r\n            isDefaultAdminAdded = true;\r\n        }\r\n    }\r\n\r\n    function modifySuperAdminLoginLog(string memory encUsername, string memory dateTime) public {\r\n        bytes32 encUsernameHash = getStringHashedToBytes32(encUsername);\r\n        superAdminLoginLog[encUsernameHash] = dateTime;\r\n    }\r\n\r\n    function getSuperAdminLoginLog(string memory encUsername) public view returns(string memory) {\r\n        bytes32 encUsernameHash = getStringHashedToBytes32(encUsername);\r\n        return superAdminLoginLog[encUsernameHash];\r\n    }\r\n\r\n    //delete the super admin\r\n    //the admin to be deleted and the admin deleting the super admin cannot be the same. The admin\r\n    function deleteSuperAdmin(string memory username, string memory encUsername, string memory superAdminUsername, string memory superAdminEncUsername) public view returns(uint) {\r\n        bytes32 superAdminEncUsernameHash = getStringHashedToBytes32(superAdminEncUsername);\r\n        \r\n        return 0;\r\n    }\r\n\r\n    //--------------------------------------------------------------------------\r\n\r\n    function getStringHashedToBytes32(string memory toBeHashedString) private pure returns(bytes32) {\r\n        return sha256(abi.encodePacked(toBeHashedString));\r\n    }\r\n\r\n    function isEqual(string memory input1, string memory input2) private pure returns(bool) {\r\n        return (getStringHashedToBytes32(input1) == getStringHashedToBytes32(input2));\r\n    }\r\n\r\n    function isEqualByBytes32(bytes32 input1, bytes32 input2) private pure returns(bool) {\r\n        return (input1 == input2);\r\n    }\r\n\r\n}",
  "sourcePath": "C:\\Users\\Hp\\Documents\\bc-capstone\\contracts\\Election.sol",
  "compiler": {
    "name": "solc",
    "version": "0.5.16+commit.9c3226ce.Emscripten.clang"
  },
  "schemaVersion": "3.4.2",
  "updatedAt": "2021-09-06T10:02:46.871Z",
  "networkType": "ethereum",
  "devdoc": {
    "methods": {}
  },
  "userdoc": {
    "methods": {}
  }
}