{
  "contractName": "Election",
  "abi": [
    {
      "constant": true,
      "inputs": [
        {
          "internalType": "string",
          "name": "encUsername",
          "type": "string"
        }
      ],
      "name": "isSuperAdminUsernameTaken",
      "outputs": [
        {
          "internalType": "bool",
          "name": "",
          "type": "bool"
        }
      ],
      "payable": false,
      "stateMutability": "view",
      "type": "function"
    },
    {
      "constant": false,
      "inputs": [
        {
          "internalType": "string",
          "name": "name",
          "type": "string"
        },
        {
          "internalType": "string",
          "name": "emailId",
          "type": "string"
        },
        {
          "internalType": "string",
          "name": "username",
          "type": "string"
        },
        {
          "internalType": "string",
          "name": "encUsername",
          "type": "string"
        },
        {
          "internalType": "string",
          "name": "password",
          "type": "string"
        },
        {
          "internalType": "string",
          "name": "adminUsername",
          "type": "string"
        }
      ],
      "name": "finallyAddSuperAdmin",
      "outputs": [],
      "payable": false,
      "stateMutability": "nonpayable",
      "type": "function"
    },
    {
      "constant": true,
      "inputs": [
        {
          "internalType": "string",
          "name": "name",
          "type": "string"
        },
        {
          "internalType": "string",
          "name": "emailId",
          "type": "string"
        },
        {
          "internalType": "string",
          "name": "username",
          "type": "string"
        },
        {
          "internalType": "string",
          "name": "encUsername",
          "type": "string"
        },
        {
          "internalType": "string",
          "name": "password",
          "type": "string"
        }
      ],
      "name": "isSuperAdminAdded",
      "outputs": [
        {
          "internalType": "int256",
          "name": "",
          "type": "int256"
        }
      ],
      "payable": false,
      "stateMutability": "view",
      "type": "function"
    },
    {
      "constant": true,
      "inputs": [
        {
          "internalType": "string",
          "name": "username",
          "type": "string"
        }
      ],
      "name": "authSuperAdminEnc",
      "outputs": [
        {
          "internalType": "bool",
          "name": "",
          "type": "bool"
        }
      ],
      "payable": false,
      "stateMutability": "view",
      "type": "function"
    },
    {
      "constant": true,
      "inputs": [
        {
          "internalType": "string",
          "name": "username",
          "type": "string"
        },
        {
          "internalType": "string",
          "name": "encUsername",
          "type": "string"
        },
        {
          "internalType": "string",
          "name": "password",
          "type": "string"
        }
      ],
      "name": "authSuperAdmin",
      "outputs": [
        {
          "internalType": "bool",
          "name": "",
          "type": "bool"
        }
      ],
      "payable": false,
      "stateMutability": "view",
      "type": "function"
    },
    {
      "constant": false,
      "inputs": [
        {
          "internalType": "string",
          "name": "name",
          "type": "string"
        },
        {
          "internalType": "string",
          "name": "emailId",
          "type": "string"
        },
        {
          "internalType": "string",
          "name": "username",
          "type": "string"
        },
        {
          "internalType": "string",
          "name": "encUsername",
          "type": "string"
        },
        {
          "internalType": "string",
          "name": "password",
          "type": "string"
        }
      ],
      "name": "defaultSuperAdmin",
      "outputs": [],
      "payable": false,
      "stateMutability": "nonpayable",
      "type": "function"
    },
    {
      "constant": false,
      "inputs": [
        {
          "internalType": "string",
          "name": "encUsername",
          "type": "string"
        },
        {
          "internalType": "string",
          "name": "dateTime",
          "type": "string"
        }
      ],
      "name": "modifySuperAdminLoginLog",
      "outputs": [],
      "payable": false,
      "stateMutability": "nonpayable",
      "type": "function"
    },
    {
      "constant": true,
      "inputs": [
        {
          "internalType": "string",
          "name": "encUsername",
          "type": "string"
        }
      ],
      "name": "getSuperAdminLoginLog",
      "outputs": [
        {
          "internalType": "string",
          "name": "",
          "type": "string"
        }
      ],
      "payable": false,
      "stateMutability": "view",
      "type": "function"
    },
    {
      "constant": false,
      "inputs": [
        {
          "internalType": "string",
          "name": "username",
          "type": "string"
        },
        {
          "internalType": "string",
          "name": "encUsername",
          "type": "string"
        },
        {
          "internalType": "string",
          "name": "password",
          "type": "string"
        },
        {
          "internalType": "string",
          "name": "stateId",
          "type": "string"
        },
        {
          "internalType": "string",
          "name": "stateName",
          "type": "string"
        },
        {
          "internalType": "string",
          "name": "constituencyId",
          "type": "string"
        },
        {
          "internalType": "string",
          "name": "district",
          "type": "string"
        },
        {
          "internalType": "string",
          "name": "constitutionName",
          "type": "string"
        },
        {
          "internalType": "string",
          "name": "taluk",
          "type": "string"
        }
      ],
      "name": "addConstituencyData",
      "outputs": [],
      "payable": false,
      "stateMutability": "nonpayable",
      "type": "function"
    },
    {
      "constant": true,
      "inputs": [
        {
          "internalType": "string",
          "name": "username",
          "type": "string"
        },
        {
          "internalType": "string",
          "name": "encUsername",
          "type": "string"
        },
        {
          "internalType": "string",
          "name": "password",
          "type": "string"
        },
        {
          "internalType": "string",
          "name": "constituencyId",
          "type": "string"
        }
      ],
      "name": "isConstituencyIdOccupied",
      "outputs": [
        {
          "internalType": "bool",
          "name": "",
          "type": "bool"
        }
      ],
      "payable": false,
      "stateMutability": "view",
      "type": "function"
    },
    {
      "constant": true,
      "inputs": [
        {
          "internalType": "string",
          "name": "username",
          "type": "string"
        },
        {
          "internalType": "string",
          "name": "encUsername",
          "type": "string"
        },
        {
          "internalType": "string",
          "name": "password",
          "type": "string"
        }
      ],
      "name": "getStateList",
      "outputs": [
        {
          "components": [
            {
              "internalType": "string",
              "name": "stateName",
              "type": "string"
            },
            {
              "internalType": "uint256",
              "name": "index",
              "type": "uint256"
            }
          ],
          "internalType": "struct Election.stateInfo[]",
          "name": "",
          "type": "tuple[]"
        }
      ],
      "payable": false,
      "stateMutability": "view",
      "type": "function"
    },
    {
      "constant": true,
      "inputs": [
        {
          "internalType": "string",
          "name": "username",
          "type": "string"
        },
        {
          "internalType": "string",
          "name": "encUsername",
          "type": "string"
        },
        {
          "internalType": "string",
          "name": "password",
          "type": "string"
        },
        {
          "internalType": "uint256",
          "name": "index",
          "type": "uint256"
        }
      ],
      "name": "getCorresspondingStateList",
      "outputs": [
        {
          "components": [
            {
              "internalType": "string",
              "name": "constitutionId",
              "type": "string"
            },
            {
              "internalType": "string",
              "name": "state",
              "type": "string"
            },
            {
              "internalType": "string",
              "name": "district",
              "type": "string"
            },
            {
              "internalType": "string",
              "name": "constitutionName",
              "type": "string"
            },
            {
              "internalType": "string",
              "name": "taluk",
              "type": "string"
            },
            {
              "internalType": "bool",
              "name": "occupied",
              "type": "bool"
            }
          ],
          "internalType": "struct Election.stateDetails[]",
          "name": "",
          "type": "tuple[]"
        }
      ],
      "payable": false,
      "stateMutability": "view",
      "type": "function"
    },
    {
      "constant": true,
      "inputs": [
        {
          "internalType": "string",
          "name": "username",
          "type": "string"
        },
        {
          "internalType": "string",
          "name": "encUsername",
          "type": "string"
        },
        {
          "internalType": "string",
          "name": "password",
          "type": "string"
        },
        {
          "internalType": "string",
          "name": "constituencyId",
          "type": "string"
        }
      ],
      "name": "getCorrespondingConstituencyDetail",
      "outputs": [
        {
          "components": [
            {
              "internalType": "string",
              "name": "constitutionId",
              "type": "string"
            },
            {
              "internalType": "string",
              "name": "state",
              "type": "string"
            },
            {
              "internalType": "string",
              "name": "district",
              "type": "string"
            },
            {
              "internalType": "string",
              "name": "constitutionName",
              "type": "string"
            },
            {
              "internalType": "string",
              "name": "taluk",
              "type": "string"
            },
            {
              "internalType": "bool",
              "name": "occupied",
              "type": "bool"
            }
          ],
          "internalType": "struct Election.stateDetails",
          "name": "",
          "type": "tuple"
        }
      ],
      "payable": false,
      "stateMutability": "view",
      "type": "function"
    },
    {
      "constant": true,
      "inputs": [
        {
          "internalType": "string",
          "name": "constituencyId",
          "type": "string"
        }
      ],
      "name": "getCorrespondingConstituencyDetails",
      "outputs": [
        {
          "components": [
            {
              "internalType": "string",
              "name": "constitutionId",
              "type": "string"
            },
            {
              "internalType": "string",
              "name": "state",
              "type": "string"
            },
            {
              "internalType": "string",
              "name": "district",
              "type": "string"
            },
            {
              "internalType": "string",
              "name": "constitutionName",
              "type": "string"
            },
            {
              "internalType": "string",
              "name": "taluk",
              "type": "string"
            },
            {
              "internalType": "bool",
              "name": "occupied",
              "type": "bool"
            }
          ],
          "internalType": "struct Election.stateDetails",
          "name": "",
          "type": "tuple"
        }
      ],
      "payable": false,
      "stateMutability": "view",
      "type": "function"
    },
    {
      "constant": false,
      "inputs": [
        {
          "internalType": "string",
          "name": "encUsername",
          "type": "string"
        },
        {
          "internalType": "string",
          "name": "aadharNumber",
          "type": "string"
        },
        {
          "internalType": "string",
          "name": "voterId",
          "type": "string"
        },
        {
          "internalType": "string",
          "name": "name",
          "type": "string"
        },
        {
          "internalType": "string",
          "name": "dateOfBirth",
          "type": "string"
        },
        {
          "internalType": "string",
          "name": "constituencyId",
          "type": "string"
        },
        {
          "internalType": "string",
          "name": "contactNumber",
          "type": "string"
        },
        {
          "internalType": "string",
          "name": "emailAddress",
          "type": "string"
        },
        {
          "internalType": "string",
          "name": "residentialAddress",
          "type": "string"
        }
      ],
      "name": "addVoterDetails",
      "outputs": [],
      "payable": false,
      "stateMutability": "nonpayable",
      "type": "function"
    },
    {
      "constant": true,
      "inputs": [
        {
          "internalType": "string",
          "name": "username",
          "type": "string"
        },
        {
          "internalType": "string",
          "name": "encUsername",
          "type": "string"
        },
        {
          "internalType": "string",
          "name": "password",
          "type": "string"
        },
        {
          "internalType": "string",
          "name": "voterId",
          "type": "string"
        }
      ],
      "name": "getIndividualVoterDetail",
      "outputs": [
        {
          "components": [
            {
              "internalType": "string",
              "name": "aadharNumber",
              "type": "string"
            },
            {
              "internalType": "string",
              "name": "voterId",
              "type": "string"
            },
            {
              "internalType": "string",
              "name": "name",
              "type": "string"
            },
            {
              "internalType": "string",
              "name": "dateOfBirth",
              "type": "string"
            },
            {
              "internalType": "string",
              "name": "state",
              "type": "string"
            },
            {
              "internalType": "string",
              "name": "district",
              "type": "string"
            },
            {
              "internalType": "string",
              "name": "taluk",
              "type": "string"
            },
            {
              "internalType": "string",
              "name": "constituencyId",
              "type": "string"
            },
            {
              "internalType": "string",
              "name": "residentialAddress",
              "type": "string"
            }
          ],
          "internalType": "struct Election.individualVoterData",
          "name": "",
          "type": "tuple"
        }
      ],
      "payable": false,
      "stateMutability": "view",
      "type": "function"
    },
    {
      "constant": true,
      "inputs": [
        {
          "internalType": "string",
          "name": "username",
          "type": "string"
        },
        {
          "internalType": "string",
          "name": "encUsername",
          "type": "string"
        },
        {
          "internalType": "string",
          "name": "password",
          "type": "string"
        },
        {
          "internalType": "string",
          "name": "constituencyId",
          "type": "string"
        }
      ],
      "name": "getConstituencyVotersList",
      "outputs": [
        {
          "components": [
            {
              "internalType": "string",
              "name": "aadharNumber",
              "type": "string"
            },
            {
              "internalType": "string",
              "name": "voterId",
              "type": "string"
            },
            {
              "internalType": "string",
              "name": "name",
              "type": "string"
            },
            {
              "internalType": "string",
              "name": "dateOfBirth",
              "type": "string"
            },
            {
              "internalType": "string",
              "name": "constituencyId",
              "type": "string"
            },
            {
              "internalType": "string",
              "name": "contactNumber",
              "type": "string"
            },
            {
              "internalType": "string",
              "name": "emailAddress",
              "type": "string"
            },
            {
              "internalType": "string",
              "name": "residentialAddress",
              "type": "string"
            },
            {
              "internalType": "bool",
              "name": "occupied",
              "type": "bool"
            }
          ],
          "internalType": "struct Election.voter[]",
          "name": "",
          "type": "tuple[]"
        }
      ],
      "payable": false,
      "stateMutability": "view",
      "type": "function"
    },
    {
      "constant": true,
      "inputs": [
        {
          "internalType": "string",
          "name": "username",
          "type": "string"
        },
        {
          "internalType": "string",
          "name": "encUsername",
          "type": "string"
        },
        {
          "internalType": "string",
          "name": "password",
          "type": "string"
        },
        {
          "internalType": "string",
          "name": "voterId",
          "type": "string"
        }
      ],
      "name": "isVoterIdValid",
      "outputs": [
        {
          "internalType": "uint256",
          "name": "",
          "type": "uint256"
        }
      ],
      "payable": false,
      "stateMutability": "view",
      "type": "function"
    },
    {
      "constant": false,
      "inputs": [
        {
          "internalType": "string",
          "name": "username",
          "type": "string"
        },
        {
          "internalType": "string",
          "name": "encUsername",
          "type": "string"
        },
        {
          "internalType": "string",
          "name": "password",
          "type": "string"
        },
        {
          "internalType": "string",
          "name": "electionAlias",
          "type": "string"
        },
        {
          "internalType": "string",
          "name": "electionId",
          "type": "string"
        },
        {
          "internalType": "string",
          "name": "year",
          "type": "string"
        },
        {
          "internalType": "string",
          "name": "dateOfElection",
          "type": "string"
        }
      ],
      "name": "createElection",
      "outputs": [],
      "payable": false,
      "stateMutability": "nonpayable",
      "type": "function"
    },
    {
      "constant": true,
      "inputs": [
        {
          "internalType": "string",
          "name": "username",
          "type": "string"
        },
        {
          "internalType": "string",
          "name": "encUsername",
          "type": "string"
        },
        {
          "internalType": "string",
          "name": "password",
          "type": "string"
        }
      ],
      "name": "getElection",
      "outputs": [
        {
          "components": [
            {
              "internalType": "string",
              "name": "electionAlias",
              "type": "string"
            },
            {
              "internalType": "string",
              "name": "electionId",
              "type": "string"
            },
            {
              "internalType": "string",
              "name": "year",
              "type": "string"
            },
            {
              "internalType": "string",
              "name": "dateOfElection",
              "type": "string"
            },
            {
              "internalType": "uint256",
              "name": "numberOfConstituency",
              "type": "uint256"
            }
          ],
          "internalType": "struct Election.electionDetail[]",
          "name": "",
          "type": "tuple[]"
        }
      ],
      "payable": false,
      "stateMutability": "view",
      "type": "function"
    },
    {
      "constant": false,
      "inputs": [
        {
          "internalType": "string",
          "name": "username",
          "type": "string"
        },
        {
          "internalType": "string",
          "name": "encUsername",
          "type": "string"
        },
        {
          "internalType": "string",
          "name": "password",
          "type": "string"
        },
        {
          "internalType": "string",
          "name": "electionId",
          "type": "string"
        },
        {
          "internalType": "string",
          "name": "constituencyId",
          "type": "string"
        }
      ],
      "name": "addElectionConstitution",
      "outputs": [],
      "payable": false,
      "stateMutability": "nonpayable",
      "type": "function"
    },
    {
      "constant": true,
      "inputs": [
        {
          "internalType": "string",
          "name": "username",
          "type": "string"
        },
        {
          "internalType": "string",
          "name": "encUsername",
          "type": "string"
        },
        {
          "internalType": "string",
          "name": "password",
          "type": "string"
        },
        {
          "internalType": "string",
          "name": "electionId",
          "type": "string"
        }
      ],
      "name": "getElectionConstituencyDetail",
      "outputs": [
        {
          "components": [
            {
              "internalType": "string",
              "name": "constitutionId",
              "type": "string"
            },
            {
              "internalType": "string",
              "name": "state",
              "type": "string"
            },
            {
              "internalType": "string",
              "name": "district",
              "type": "string"
            },
            {
              "internalType": "string",
              "name": "constitutionName",
              "type": "string"
            },
            {
              "internalType": "string",
              "name": "taluk",
              "type": "string"
            },
            {
              "internalType": "bool",
              "name": "occupied",
              "type": "bool"
            }
          ],
          "internalType": "struct Election.stateDetails[]",
          "name": "",
          "type": "tuple[]"
        }
      ],
      "payable": false,
      "stateMutability": "view",
      "type": "function"
    }
  ],
  "bytecode": "0x6080604052600080556000600160006101000a81548160ff0219169083151502179055506000600555600060065534801561003957600080fd5b50615b83806200004a6000396000f3fe608060405234801561001057600080fd5b50600436106101425760003560e01c8063908d2d90116100b8578063bd19968a1161007c578063bd19968a146103e3578063d95bcb3314610413578063db463d6814610443578063dc20ca4114610473578063e7fbdd53146104a3578063fa9ce757146104bf57610142565b8063908d2d90146103075780639d3f7a8514610337578063a257637e14610367578063a98b47bb14610383578063aab944ad146103b357610142565b80632702982e1161010a5780632702982e146102375780632dc12082146102535780633b8002f11461026f578063517f61171461029f5780635a9de870146102bb578063772a6a0d146102eb57610142565b806307b65cf3146101475780630f2910dc146101775780631319f305146101a757806316ec1b23146101d7578063219d4ba714610207575b600080fd5b610161600480360361015c9190810190614e7f565b6104db565b60405161016e9190615782565b60405180910390f35b610191600480360361018c919081019061478c565b610ab4565b60405161019e919061581e565b60405180910390f35b6101c160048036036101bc9190810190614839565b610b77565b6040516101ce91906157e8565b60405180910390f35b6101f160048036036101ec9190810190614839565b610e4d565b6040516101fe9190615760565b60405180910390f35b610221600480360361021c91908101906148d0565b6112c9565b60405161022e9190615782565b60405180910390f35b610251600480360361024c9190810190614ce1565b611482565b005b61026d60048036036102689190810190614b9b565b6116e7565b005b61028960048036036102849190810190614839565b611812565b60405161029691906157a4565b60405180910390f35b6102b960048036036102b49190810190614993565b611a81565b005b6102d560048036036102d091908101906148d0565b611bd9565b6040516102e291906158c2565b60405180910390f35b61030560048036036103009190810190614a82565b611fa9565b005b610321600480360361031c91908101906148d0565b611ffc565b60405161032e91906157e8565b60405180910390f35b610351600480360361034c919081019061478c565b6123a0565b60405161035e91906158c2565b60405180910390f35b610381600480360361037c9190810190614ce1565b61271d565b005b61039d6004803603610398919081019061478c565b61291a565b6040516103aa91906157e8565b60405180910390f35b6103cd60048036036103c891908101906148d0565b612ba3565b6040516103da91906158e4565b60405180910390f35b6103fd60048036036103f891908101906148d0565b612c0a565b60405161040a91906157c6565b60405180910390f35b61042d600480360361042891908101906148d0565b6132e5565b60405161043a91906158a0565b60405180910390f35b61045d60048036036104589190810190614993565b613cf3565b60405161046a9190615803565b60405180910390f35b61048d6004803603610488919081019061478c565b613d84565b60405161049a91906157e8565b60405180910390f35b6104bd60048036036104b891908101906147cd565b613dd6565b005b6104d960048036036104d49190810190614993565b613e10565b005b60606104e8858585610b77565b15610a67576060600760008481526020019081526020016000208054600181600116156101000203166002900480601f0160208091040260200160405190810160405280929190818152602001828054600181600116156101000203166002900480156105965780601f1061056b57610100808354040283529160200191610596565b820191906000526020600020905b81548152906001019060200180831161057957829003601f168201915b5050505050905060006008826040516105af9190615749565b9081526020016040518091039020905060008160020154905060608160405190808252806020026020018201604052801561060457816020015b6105f161437a565b8152602001906001900390816105e95790505b50905060008090505b82811015610a5a5760608460030160008381526020019081526020016000208054600181600116156101000203166002900480601f0160208091040260200160405190810160405280929190818152602001828054600181600116156101000203166002900480156106c05780601f10610695576101008083540402835291602001916106c0565b820191906000526020600020905b8154815290600101906020018083116106a357829003601f168201915b505050505090506009816040516106d79190615749565b90815260200160405180910390206040518060c0016040529081600082018054600181600116156101000203166002900480601f0160208091040260200160405190810160405280929190818152602001828054600181600116156101000203166002900480156107895780601f1061075e57610100808354040283529160200191610789565b820191906000526020600020905b81548152906001019060200180831161076c57829003601f168201915b50505050508152602001600182018054600181600116156101000203166002900480601f01602080910402602001604051908101604052809291908181526020018280546001816001161561010002031660029004801561082b5780601f106108005761010080835404028352916020019161082b565b820191906000526020600020905b81548152906001019060200180831161080e57829003601f168201915b50505050508152602001600282018054600181600116156101000203166002900480601f0160208091040260200160405190810160405280929190818152602001828054600181600116156101000203166002900480156108cd5780601f106108a2576101008083540402835291602001916108cd565b820191906000526020600020905b8154815290600101906020018083116108b057829003601f168201915b50505050508152602001600382018054600181600116156101000203166002900480601f01602080910402602001604051908101604052809291908181526020018280546001816001161561010002031660029004801561096f5780601f106109445761010080835404028352916020019161096f565b820191906000526020600020905b81548152906001019060200180831161095257829003601f168201915b50505050508152602001600482018054600181600116156101000203166002900480601f016020809104026020016040519081016040528092919081815260200182805460018160011615610100020316600290048015610a115780601f106109e657610100808354040283529160200191610a11565b820191906000526020600020905b8154815290600101906020018083116109f457829003601f168201915b505050505081526020016005820160009054906101000a900460ff161515151581525050838381518110610a4157fe5b602002602001018190525050808060010191505061060d565b5080945050505050610aac565b60606000604051908082528060200260200182016040528015610aa457816020015b610a9161437a565b815260200190600190039081610a895790505b509050809150505b949350505050565b60606000610ac183613efc565b9050600460008281526020019081526020016000208054600181600116156101000203166002900480601f016020809104026020016040519081016040528092919081815260200182805460018160011615610100020316600290048015610b6a5780601f10610b3f57610100808354040283529160200191610b6a565b820191906000526020600020905b815481529060010190602001808311610b4d57829003601f168201915b5050505050915050919050565b600080610b8384613efc565b90506000610b9084613efc565b9050610b9a6143b2565b600260008481526020019081526020016000206040518060e0016040529081600082018054600181600116156101000203166002900480601f016020809104026020016040519081016040528092919081815260200182805460018160011615610100020316600290048015610c515780601f10610c2657610100808354040283529160200191610c51565b820191906000526020600020905b815481529060010190602001808311610c3457829003601f168201915b50505050508152602001600182018054600181600116156101000203166002900480601f016020809104026020016040519081016040528092919081815260200182805460018160011615610100020316600290048015610cf35780601f10610cc857610100808354040283529160200191610cf3565b820191906000526020600020905b815481529060010190602001808311610cd657829003601f168201915b50505050508152602001600282018054600181600116156101000203166002900480601f016020809104026020016040519081016040528092919081815260200182805460018160011615610100020316600290048015610d955780601f10610d6a57610100808354040283529160200191610d95565b820191906000526020600020905b815481529060010190602001808311610d7857829003601f168201915b5050505050815260200160038201548152602001600482015481526020016005820160009054906101000a900460ff161515151581526020016005820160019054906101000a900460ff16151515158152505090506000610df98260400151613efc565b90506000610e0689613efc565b90508082148015610e1a5750848360600151145b8015610e295750838360800151145b15610e3c57600195505050505050610e46565b6000955050505050505b9392505050565b6060610e5a848484610b77565b15611287576000610e6a84613efc565b90506000600d60008381526020019081526020016000209050600081600001549050606081604051908082528060200260200182016040528015610ec857816020015b610eb56143f9565b815260200190600190039081610ead5790505b50905060008090505b8281101561127a5760608460010160008381526020019081526020016000208054600181600116156101000203166002900480601f016020809104026020016040519081016040528092919081815260200182805460018160011615610100020316600290048015610f845780601f10610f5957610100808354040283529160200191610f84565b820191906000526020600020905b815481529060010190602001808311610f6757829003601f168201915b505050505090506000600c82604051610f9d9190615749565b90815260200160405180910390209050610fb5614428565b6040518060a00160405280836000018054600181600116156101000203166002900480601f0160208091040260200160405190810160405280929190818152602001828054600181600116156101000203166002900480156110585780601f1061102d57610100808354040283529160200191611058565b820191906000526020600020905b81548152906001019060200180831161103b57829003601f168201915b50505050508152602001836001018054600181600116156101000203166002900480601f0160208091040260200160405190810160405280929190818152602001828054600181600116156101000203166002900480156110fa5780601f106110cf576101008083540402835291602001916110fa565b820191906000526020600020905b8154815290600101906020018083116110dd57829003601f168201915b50505050508152602001836002018054600181600116156101000203166002900480601f01602080910402602001604051908101604052809291908181526020018280546001816001161561010002031660029004801561119c5780601f106111715761010080835404028352916020019161119c565b820191906000526020600020905b81548152906001019060200180831161117f57829003601f168201915b50505050508152602001836003018054600181600116156101000203166002900480601f01602080910402602001604051908101604052809291908181526020018280546001816001161561010002031660029004801561123e5780601f106112135761010080835404028352916020019161123e565b820191906000526020600020905b81548152906001019060200180831161122157829003601f168201915b50505050508152602001836005015481525090508085858151811061125f57fe5b60200260200101819052505050508080600101915050610ed1565b50809450505050506112c2565b6040517f08c379a00000000000000000000000000000000000000000000000000000000081526004016112b990615880565b60405180910390fd5b9392505050565b60606112d6858585610b77565b1561143f576000600c836040516112ed9190615749565b9081526020016040518091039020905060008160050154905060608160405190808252806020026020018201604052801561134257816020015b61132f61437a565b8152602001906001900390816113275790505b50905060008090505b828110156114335760608460060160008381526020019081526020016000208054600181600116156101000203166002900480601f0160208091040260200160405190810160405280929190818152602001828054600181600116156101000203166002900480156113fe5780601f106113d3576101008083540402835291602001916113fe565b820191906000526020600020905b8154815290600101906020018083116113e157829003601f168201915b5050505050905061140e816123a0565b83838151811061141a57fe5b602002602001018190525050808060010191505061134b565b5080935050505061147a565b6040517f08c379a000000000000000000000000000000000000000000000000000000000815260040161147190615880565b60405180910390fd5b949350505050565b61148d898989610b77565b80156114c557506009846040516114a49190615749565b908152602001604051809103902060050160009054906101000a900460ff16155b156116dc5760006008876040516114dc9190615749565b908152602001604051809103902090508060000160009054906101000a900460ff1661155b5786600760006005548152602001908152602001600020908051906020019061152b929190614457565b5060018160000160006101000a81548160ff02191690831515021790555060016005600082825401925050819055505b85816001019080519060200190611573929190614457565b506000816002015490506115856144d7565b6040518060c001604052808881526020018981526020018781526020018681526020018581526020016001151581525090508683600301600084815260200190815260200160002090805190602001906115e0929190614457565b50806009886040516115f29190615749565b9081526020016040518091039020600082015181600001908051906020019061161c92919061450f565b50602082015181600101908051906020019061163992919061450f565b50604082015181600201908051906020019061165692919061450f565b50606082015181600301908051906020019061167392919061450f565b50608082015181600401908051906020019061169092919061450f565b5060a08201518160050160006101000a81548160ff0219169083151502179055509050506001836002016000828254019250508190555060016006600082825401925050819055505050505b505050505050505050565b6116f2878787610b77565b1561180957600061170287613efc565b90506000600d6000838152602001908152602001600020905060008160000154905085826001016000838152602001908152602001600020908051906020019061174d929190614457565b50600182600001600082825401925050819055506000600c876040516117739190615749565b908152602001604051809103902090508781600001908051906020019061179b929190614457565b50868160010190805190602001906117b4929190614457565b50858160020190805190602001906117cd929190614457565b50848160030190805190602001906117e6929190614457565b5060018160040160006101000a81548160ff021916908315150217905550505050505b50505050505050565b606061181f848484610b77565b15611a3557606060055460405190808252806020026020018201604052801561186257816020015b61184f61458f565b8152602001906001900390816118475790505b50905060008090505b600554811015611a2b576060600760008381526020019081526020016000208054600181600116156101000203166002900480601f01602080910402602001604051908101604052809291908181526020018280546001816001161561010002031660029004801561191e5780601f106118f35761010080835404028352916020019161191e565b820191906000526020600020905b81548152906001019060200180831161190157829003601f168201915b5050505050905060006008826040516119379190615749565b90815260200160405180910390209050806001018054600181600116156101000203166002900480601f0160208091040260200160405190810160405280929190818152602001828054600181600116156101000203166002900480156119df5780601f106119b4576101008083540402835291602001916119df565b820191906000526020600020905b8154815290600101906020018083116119c257829003601f168201915b50505050508484815181106119f057fe5b60200260200101516000018190525082848481518110611a0c57fe5b602002602001015160200181815250505050808060010191505061186b565b5080915050611a7a565b60606000604051908082528060200260200182016040528015611a7257816020015b611a5f61458f565b815260200190600190039081611a575790505b509050809150505b9392505050565b600160009054906101000a900460ff16611bd2576000611aa083613efc565b90506000611aad83613efc565b9050611ab76143b2565b6040518060e0016040528089815260200188815260200187815260200184815260200183815260200160011515815260200160001515815250905080600260008581526020019081526020016000206000820151816000019080519060200190611b2292919061450f565b506020820151816001019080519060200190611b3f92919061450f565b506040820151816002019080519060200190611b5c92919061450f565b50606082015181600301556080820151816004015560a08201518160050160006101000a81548160ff02191690831515021790555060c08201518160050160016101000a81548160ff02191690831515021790555090505060018060006101000a81548160ff0219169083151502179055505050505b5050505050565b611be16144d7565b611bec858585610b77565b15611f6657600982604051611c019190615749565b90815260200160405180910390206040518060c0016040529081600082018054600181600116156101000203166002900480601f016020809104026020016040519081016040528092919081815260200182805460018160011615610100020316600290048015611cb35780601f10611c8857610100808354040283529160200191611cb3565b820191906000526020600020905b815481529060010190602001808311611c9657829003601f168201915b50505050508152602001600182018054600181600116156101000203166002900480601f016020809104026020016040519081016040528092919081815260200182805460018160011615610100020316600290048015611d555780601f10611d2a57610100808354040283529160200191611d55565b820191906000526020600020905b815481529060010190602001808311611d3857829003601f168201915b50505050508152602001600282018054600181600116156101000203166002900480601f016020809104026020016040519081016040528092919081815260200182805460018160011615610100020316600290048015611df75780601f10611dcc57610100808354040283529160200191611df7565b820191906000526020600020905b815481529060010190602001808311611dda57829003601f168201915b50505050508152602001600382018054600181600116156101000203166002900480601f016020809104026020016040519081016040528092919081815260200182805460018160011615610100020316600290048015611e995780601f10611e6e57610100808354040283529160200191611e99565b820191906000526020600020905b815481529060010190602001808311611e7c57829003601f168201915b50505050508152602001600482018054600181600116156101000203166002900480601f016020809104026020016040519081016040528092919081815260200182805460018160011615610100020316600290048015611f3b5780601f10611f1057610100808354040283529160200191611f3b565b820191906000526020600020905b815481529060010190602001808311611f1e57829003601f168201915b505050505081526020016005820160009054906101000a900460ff1615151515815250509050611fa1565b6040517f08c379a0000000000000000000000000000000000000000000000000000000008152600401611f9890615840565b60405180910390fd5b949350505050565b611fb16145a9565b6040518060a00160405280888152602001878152602001868152602001858152602001848152509050611fe382613d84565b15611ff357611ff28183613f74565b5b50505050505050565b6000612009858585610b77565b15612393576120166144d7565b6009836040516120269190615749565b90815260200160405180910390206040518060c0016040529081600082018054600181600116156101000203166002900480601f0160208091040260200160405190810160405280929190818152602001828054600181600116156101000203166002900480156120d85780601f106120ad576101008083540402835291602001916120d8565b820191906000526020600020905b8154815290600101906020018083116120bb57829003601f168201915b50505050508152602001600182018054600181600116156101000203166002900480601f01602080910402602001604051908101604052809291908181526020018280546001816001161561010002031660029004801561217a5780601f1061214f5761010080835404028352916020019161217a565b820191906000526020600020905b81548152906001019060200180831161215d57829003601f168201915b50505050508152602001600282018054600181600116156101000203166002900480601f01602080910402602001604051908101604052809291908181526020018280546001816001161561010002031660029004801561221c5780601f106121f15761010080835404028352916020019161221c565b820191906000526020600020905b8154815290600101906020018083116121ff57829003601f168201915b50505050508152602001600382018054600181600116156101000203166002900480601f0160208091040260200160405190810160405280929190818152602001828054600181600116156101000203166002900480156122be5780601f10612293576101008083540402835291602001916122be565b820191906000526020600020905b8154815290600101906020018083116122a157829003601f168201915b50505050508152602001600482018054600181600116156101000203166002900480601f0160208091040260200160405190810160405280929190818152602001828054600181600116156101000203166002900480156123605780601f1061233557610100808354040283529160200191612360565b820191906000526020600020905b81548152906001019060200180831161234357829003601f168201915b505050505081526020016005820160009054906101000a900460ff16151515158152505090508060a00151915050612398565b600090505b949350505050565b6123a86144d7565b6009826040516123b89190615749565b90815260200160405180910390206040518060c0016040529081600082018054600181600116156101000203166002900480601f01602080910402602001604051908101604052809291908181526020018280546001816001161561010002031660029004801561246a5780601f1061243f5761010080835404028352916020019161246a565b820191906000526020600020905b81548152906001019060200180831161244d57829003601f168201915b50505050508152602001600182018054600181600116156101000203166002900480601f01602080910402602001604051908101604052809291908181526020018280546001816001161561010002031660029004801561250c5780601f106124e15761010080835404028352916020019161250c565b820191906000526020600020905b8154815290600101906020018083116124ef57829003601f168201915b50505050508152602001600282018054600181600116156101000203166002900480601f0160208091040260200160405190810160405280929190818152602001828054600181600116156101000203166002900480156125ae5780601f10612583576101008083540402835291602001916125ae565b820191906000526020600020905b81548152906001019060200180831161259157829003601f168201915b50505050508152602001600382018054600181600116156101000203166002900480601f0160208091040260200160405190810160405280929190818152602001828054600181600116156101000203166002900480156126505780601f1061262557610100808354040283529160200191612650565b820191906000526020600020905b81548152906001019060200180831161263357829003601f168201915b50505050508152602001600482018054600181600116156101000203166002900480601f0160208091040260200160405190810160405280929190818152602001828054600181600116156101000203166002900480156126f25780601f106126c7576101008083540402835291602001916126f2565b820191906000526020600020905b8154815290600101906020018083116126d557829003601f168201915b505050505081526020016005820160009054906101000a900460ff1615151515815250509050919050565b6127268961291a565b1561290f576127336145d8565b6040518061012001604052808a815260200189815260200188815260200187815260200186815260200185815260200184815260200183815260200160011515815250905080600b896040516127899190615749565b908152602001604051809103902060008201518160000190805190602001906127b392919061450f565b5060208201518160010190805190602001906127d092919061450f565b5060408201518160020190805190602001906127ed92919061450f565b50606082015181600301908051906020019061280a92919061450f565b50608082015181600401908051906020019061282792919061450f565b5060a082015181600501908051906020019061284492919061450f565b5060c082015181600601908051906020019061286192919061450f565b5060e082015181600701908051906020019061287e92919061450f565b506101008201518160080160006101000a81548160ff0219169083151502179055509050506000600a866040516128b59190615749565b908152602001604051809103902090506000816000015490508982600101600083815260200190815260200160002090805190602001906128f7929190614457565b50600182600001600082825401925050819055505050505b505050505050505050565b60008061292683613efc565b90506129306143b2565b600260008381526020019081526020016000206040518060e0016040529081600082018054600181600116156101000203166002900480601f0160208091040260200160405190810160405280929190818152602001828054600181600116156101000203166002900480156129e75780601f106129bc576101008083540402835291602001916129e7565b820191906000526020600020905b8154815290600101906020018083116129ca57829003601f168201915b50505050508152602001600182018054600181600116156101000203166002900480601f016020809104026020016040519081016040528092919081815260200182805460018160011615610100020316600290048015612a895780601f10612a5e57610100808354040283529160200191612a89565b820191906000526020600020905b815481529060010190602001808311612a6c57829003601f168201915b50505050508152602001600282018054600181600116156101000203166002900480601f016020809104026020016040519081016040528092919081815260200182805460018160011615610100020316600290048015612b2b5780601f10612b0057610100808354040283529160200191612b2b565b820191906000526020600020905b815481529060010190602001808311612b0e57829003601f168201915b5050505050815260200160038201548152602001600482015481526020016005820160009054906101000a900460ff161515151581526020016005820160019054906101000a900460ff16151515158152505090508181606001511415612b9757600192505050612b9e565b6000925050505b919050565b6000612bb0858585610b77565b15612bfc57600b82604051612bc59190615749565b908152602001604051809103902060080160009054906101000a900460ff1615612bf3576101f49050612c02565b60c89050612c02565b61019090505b949350505050565b6060612c17858585610b77565b156132d8576000600a83604051612c2e9190615749565b90815260200160405180910390209050600081600001549050606081604051908082528060200260200182016040528015612c8357816020015b612c70614626565b815260200190600190039081612c685790505b50905060008090505b828110156132cc5760608460010160008381526020019081526020016000208054600181600116156101000203166002900480601f016020809104026020016040519081016040528092919081815260200182805460018160011615610100020316600290048015612d3f5780601f10612d1457610100808354040283529160200191612d3f565b820191906000526020600020905b815481529060010190602001808311612d2257829003601f168201915b50505050509050612d4e6145d8565b600b82604051612d5e9190615749565b908152602001604051809103902060405180610120016040529081600082018054600181600116156101000203166002900480601f016020809104026020016040519081016040528092919081815260200182805460018160011615610100020316600290048015612e115780601f10612de657610100808354040283529160200191612e11565b820191906000526020600020905b815481529060010190602001808311612df457829003601f168201915b50505050508152602001600182018054600181600116156101000203166002900480601f016020809104026020016040519081016040528092919081815260200182805460018160011615610100020316600290048015612eb35780601f10612e8857610100808354040283529160200191612eb3565b820191906000526020600020905b815481529060010190602001808311612e9657829003601f168201915b50505050508152602001600282018054600181600116156101000203166002900480601f016020809104026020016040519081016040528092919081815260200182805460018160011615610100020316600290048015612f555780601f10612f2a57610100808354040283529160200191612f55565b820191906000526020600020905b815481529060010190602001808311612f3857829003601f168201915b50505050508152602001600382018054600181600116156101000203166002900480601f016020809104026020016040519081016040528092919081815260200182805460018160011615610100020316600290048015612ff75780601f10612fcc57610100808354040283529160200191612ff7565b820191906000526020600020905b815481529060010190602001808311612fda57829003601f168201915b50505050508152602001600482018054600181600116156101000203166002900480601f0160208091040260200160405190810160405280929190818152602001828054600181600116156101000203166002900480156130995780601f1061306e57610100808354040283529160200191613099565b820191906000526020600020905b81548152906001019060200180831161307c57829003601f168201915b50505050508152602001600582018054600181600116156101000203166002900480601f01602080910402602001604051908101604052809291908181526020018280546001816001161561010002031660029004801561313b5780601f106131105761010080835404028352916020019161313b565b820191906000526020600020905b81548152906001019060200180831161311e57829003601f168201915b50505050508152602001600682018054600181600116156101000203166002900480601f0160208091040260200160405190810160405280929190818152602001828054600181600116156101000203166002900480156131dd5780601f106131b2576101008083540402835291602001916131dd565b820191906000526020600020905b8154815290600101906020018083116131c057829003601f168201915b50505050508152602001600782018054600181600116156101000203166002900480601f01602080910402602001604051908101604052809291908181526020018280546001816001161561010002031660029004801561327f5780601f106132545761010080835404028352916020019161327f565b820191906000526020600020905b81548152906001019060200180831161326257829003601f168201915b505050505081526020016008820160009054906101000a900460ff1615151515815250509050808484815181106132b257fe5b602002602001018190525050508080600101915050612c8c565b508093505050506132dd565b600080fd5b949350505050565b6132ed614674565b6132f8858585610b77565b801561332f5750600b8260405161330f9190615749565b908152602001604051809103902060080160009054906101000a900460ff165b15613cb05761333c6145d8565b600b8360405161334c9190615749565b908152602001604051809103902060405180610120016040529081600082018054600181600116156101000203166002900480601f0160208091040260200160405190810160405280929190818152602001828054600181600116156101000203166002900480156133ff5780601f106133d4576101008083540402835291602001916133ff565b820191906000526020600020905b8154815290600101906020018083116133e257829003601f168201915b50505050508152602001600182018054600181600116156101000203166002900480601f0160208091040260200160405190810160405280929190818152602001828054600181600116156101000203166002900480156134a15780601f10613476576101008083540402835291602001916134a1565b820191906000526020600020905b81548152906001019060200180831161348457829003601f168201915b50505050508152602001600282018054600181600116156101000203166002900480601f0160208091040260200160405190810160405280929190818152602001828054600181600116156101000203166002900480156135435780601f1061351857610100808354040283529160200191613543565b820191906000526020600020905b81548152906001019060200180831161352657829003601f168201915b50505050508152602001600382018054600181600116156101000203166002900480601f0160208091040260200160405190810160405280929190818152602001828054600181600116156101000203166002900480156135e55780601f106135ba576101008083540402835291602001916135e5565b820191906000526020600020905b8154815290600101906020018083116135c857829003601f168201915b50505050508152602001600482018054600181600116156101000203166002900480601f0160208091040260200160405190810160405280929190818152602001828054600181600116156101000203166002900480156136875780601f1061365c57610100808354040283529160200191613687565b820191906000526020600020905b81548152906001019060200180831161366a57829003601f168201915b50505050508152602001600582018054600181600116156101000203166002900480601f0160208091040260200160405190810160405280929190818152602001828054600181600116156101000203166002900480156137295780601f106136fe57610100808354040283529160200191613729565b820191906000526020600020905b81548152906001019060200180831161370c57829003601f168201915b50505050508152602001600682018054600181600116156101000203166002900480601f0160208091040260200160405190810160405280929190818152602001828054600181600116156101000203166002900480156137cb5780601f106137a0576101008083540402835291602001916137cb565b820191906000526020600020905b8154815290600101906020018083116137ae57829003601f168201915b50505050508152602001600782018054600181600116156101000203166002900480601f01602080910402602001604051908101604052809291908181526020018280546001816001161561010002031660029004801561386d5780601f106138425761010080835404028352916020019161386d565b820191906000526020600020905b81548152906001019060200180831161385057829003601f168201915b505050505081526020016008820160009054906101000a900460ff16151515158152505090506060816000015190506060826040015190506060836060015190506060846080015190506138bf6144d7565b6009826040516138cf9190615749565b90815260200160405180910390206040518060c0016040529081600082018054600181600116156101000203166002900480601f0160208091040260200160405190810160405280929190818152602001828054600181600116156101000203166002900480156139815780601f1061395657610100808354040283529160200191613981565b820191906000526020600020905b81548152906001019060200180831161396457829003601f168201915b50505050508152602001600182018054600181600116156101000203166002900480601f016020809104026020016040519081016040528092919081815260200182805460018160011615610100020316600290048015613a235780601f106139f857610100808354040283529160200191613a23565b820191906000526020600020905b815481529060010190602001808311613a0657829003601f168201915b50505050508152602001600282018054600181600116156101000203166002900480601f016020809104026020016040519081016040528092919081815260200182805460018160011615610100020316600290048015613ac55780601f10613a9a57610100808354040283529160200191613ac5565b820191906000526020600020905b815481529060010190602001808311613aa857829003601f168201915b50505050508152602001600382018054600181600116156101000203166002900480601f016020809104026020016040519081016040528092919081815260200182805460018160011615610100020316600290048015613b675780601f10613b3c57610100808354040283529160200191613b67565b820191906000526020600020905b815481529060010190602001808311613b4a57829003601f168201915b50505050508152602001600482018054600181600116156101000203166002900480601f016020809104026020016040519081016040528092919081815260200182805460018160011615610100020316600290048015613c095780601f10613bde57610100808354040283529160200191613c09565b820191906000526020600020905b815481529060010190602001808311613bec57829003601f168201915b505050505081526020016005820160009054906101000a900460ff161515151581525050905060608160200151905060608260400151905060608360800151905060608960e001519050613c5b614674565b6040518061012001604052808b81526020018e81526020018a8152602001898152602001868152602001858152602001848152602001888152602001838152509050809b505050505050505050505050613ceb565b6040517f08c379a0000000000000000000000000000000000000000000000000000000008152600401613ce290615860565b60405180910390fd5b949350505050565b600080613cff84613efc565b90506000613d0c84613efc565b9050613d166143b2565b6040518060e001604052808a81526020018981526020018881526020018481526020018381526020016001151581526020016001151581525090506000613d5d82886140e6565b90508015613d725760c8945050505050613d7b565b60649450505050505b95945050505050565b600080613d9083613efc565b905060006002600083815260200190815260200160002090508060050160009054906101000a900460ff16613dca57600092505050613dd1565b6001925050505b919050565b6000613de183613efc565b905081600460008381526020019081526020016000209080519060200190613e0a929190614457565b50505050565b613e1b858585610b77565b15613ef5576000600c83604051613e329190615749565b90815260200160405180910390209050600081600501549050828260060160008381526020019081526020016000209080519060200190613e74929190614457565b50600182600501600082825401925050819055506000600e84604051613e9a9190615749565b90815260200160405180910390209050600081600001549050858260010160008381526020019081526020016000209080519060200190613edc929190614457565b5060018260000160008282540192505081905550505050505b5050505050565b6000600282604051602001613f119190615749565b604051602081830303815290604052604051613f2d9190615732565b602060405180830381855afa158015613f4a573d6000803e3d6000fd5b5050506040513d601f19601f82011682018060405250613f6d9190810190614763565b9050919050565b613f7d81613d84565b156140e2576000613f918360600151613efc565b90506000613fa28460800151613efc565b9050613fac6143b2565b6040518060e001604052808660000151815260200186602001518152602001866040015181526020018481526020018381526020016001151581526020016001151581525090508060026000858152602001908152602001600020600082015181600001908051906020019061402392919061450f565b50602082015181600101908051906020019061404092919061450f565b50604082015181600201908051906020019061405d92919061450f565b50606082015181600301556080820151816004015560a08201518160050160006101000a81548160ff02191690831515021790555060c08201518160050160016101000a81548160ff02191690831515021790555090505082600360008054815260200190815260200160002081905550600160008082825401925050819055505050505b5050565b6000806140f283613efc565b905060006002600083815260200190815260200160002090506141b5816000018054600181600116156101000203166002900480601f0160208091040260200160405190810160405280929190818152602001828054600181600116156101000203166002900480156141a65780601f1061417b576101008083540402835291602001916141a6565b820191906000526020600020905b81548152906001019060200180831161418957829003601f168201915b50505050508660000151614350565b80156142675750614266816001018054600181600116156101000203166002900480601f0160208091040260200160405190810160405280929190818152602001828054600181600116156101000203166002900480156142575780601f1061422c57610100808354040283529160200191614257565b820191906000526020600020905b81548152906001019060200180831161423a57829003601f168201915b50505050508660200151614350565b5b80156143195750614318816002018054600181600116156101000203166002900480601f0160208091040260200160405190810160405280929190818152602001828054600181600116156101000203166002900480156143095780601f106142de57610100808354040283529160200191614309565b820191906000526020600020905b8154815290600101906020018083116142ec57829003601f168201915b50505050508660400151614350565b5b801561433357506143328160030154866060015161436d565b5b156143435760019250505061434a565b6000925050505b92915050565b600061435b82613efc565b61436484613efc565b14905092915050565b6000818314905092915050565b6040518060c0016040528060608152602001606081526020016060815260200160608152602001606081526020016000151581525090565b6040518060e0016040528060608152602001606081526020016060815260200160008019168152602001600080191681526020016000151581526020016000151581525090565b6040518060a0016040528060608152602001606081526020016060815260200160608152602001600081525090565b6040518060a0016040528060608152602001606081526020016060815260200160608152602001600081525090565b828054600181600116156101000203166002900490600052602060002090601f016020900481019282601f1061449857805160ff19168380011785556144c6565b828001600101855582156144c6579182015b828111156144c55782518255916020019190600101906144aa565b5b5090506144d391906146c0565b5090565b6040518060c0016040528060608152602001606081526020016060815260200160608152602001606081526020016000151581525090565b828054600181600116156101000203166002900490600052602060002090601f016020900481019282601f1061455057805160ff191683800117855561457e565b8280016001018555821561457e579182015b8281111561457d578251825591602001919060010190614562565b5b50905061458b91906146c0565b5090565b604051806040016040528060608152602001600081525090565b6040518060a0016040528060608152602001606081526020016060815260200160608152602001606081525090565b60405180610120016040528060608152602001606081526020016060815260200160608152602001606081526020016060815260200160608152602001606081526020016000151581525090565b60405180610120016040528060608152602001606081526020016060815260200160608152602001606081526020016060815260200160608152602001606081526020016000151581525090565b6040518061012001604052806060815260200160608152602001606081526020016060815260200160608152602001606081526020016060815260200160608152602001606081525090565b6146e291905b808211156146de5760008160009055506001016146c6565b5090565b90565b6000815190506146f481615b12565b92915050565b600082601f83011261470b57600080fd5b813561471e6147198261592c565b6158ff565b9150808252602083016020830185838301111561473a57600080fd5b614745838284615abf565b50505092915050565b60008135905061475d81615b29565b92915050565b60006020828403121561477557600080fd5b6000614783848285016146e5565b91505092915050565b60006020828403121561479e57600080fd5b600082013567ffffffffffffffff8111156147b857600080fd5b6147c4848285016146fa565b91505092915050565b600080604083850312156147e057600080fd5b600083013567ffffffffffffffff8111156147fa57600080fd5b614806858286016146fa565b925050602083013567ffffffffffffffff81111561482357600080fd5b61482f858286016146fa565b9150509250929050565b60008060006060848603121561484e57600080fd5b600084013567ffffffffffffffff81111561486857600080fd5b614874868287016146fa565b935050602084013567ffffffffffffffff81111561489157600080fd5b61489d868287016146fa565b925050604084013567ffffffffffffffff8111156148ba57600080fd5b6148c6868287016146fa565b9150509250925092565b600080600080608085870312156148e657600080fd5b600085013567ffffffffffffffff81111561490057600080fd5b61490c878288016146fa565b945050602085013567ffffffffffffffff81111561492957600080fd5b614935878288016146fa565b935050604085013567ffffffffffffffff81111561495257600080fd5b61495e878288016146fa565b925050606085013567ffffffffffffffff81111561497b57600080fd5b614987878288016146fa565b91505092959194509250565b600080600080600060a086880312156149ab57600080fd5b600086013567ffffffffffffffff8111156149c557600080fd5b6149d1888289016146fa565b955050602086013567ffffffffffffffff8111156149ee57600080fd5b6149fa888289016146fa565b945050604086013567ffffffffffffffff811115614a1757600080fd5b614a23888289016146fa565b935050606086013567ffffffffffffffff811115614a4057600080fd5b614a4c888289016146fa565b925050608086013567ffffffffffffffff811115614a6957600080fd5b614a75888289016146fa565b9150509295509295909350565b60008060008060008060c08789031215614a9b57600080fd5b600087013567ffffffffffffffff811115614ab557600080fd5b614ac189828a016146fa565b965050602087013567ffffffffffffffff811115614ade57600080fd5b614aea89828a016146fa565b955050604087013567ffffffffffffffff811115614b0757600080fd5b614b1389828a016146fa565b945050606087013567ffffffffffffffff811115614b3057600080fd5b614b3c89828a016146fa565b935050608087013567ffffffffffffffff811115614b5957600080fd5b614b6589828a016146fa565b92505060a087013567ffffffffffffffff811115614b8257600080fd5b614b8e89828a016146fa565b9150509295509295509295565b600080600080600080600060e0888a031215614bb657600080fd5b600088013567ffffffffffffffff811115614bd057600080fd5b614bdc8a828b016146fa565b975050602088013567ffffffffffffffff811115614bf957600080fd5b614c058a828b016146fa565b965050604088013567ffffffffffffffff811115614c2257600080fd5b614c2e8a828b016146fa565b955050606088013567ffffffffffffffff811115614c4b57600080fd5b614c578a828b016146fa565b945050608088013567ffffffffffffffff811115614c7457600080fd5b614c808a828b016146fa565b93505060a088013567ffffffffffffffff811115614c9d57600080fd5b614ca98a828b016146fa565b92505060c088013567ffffffffffffffff811115614cc657600080fd5b614cd28a828b016146fa565b91505092959891949750929550565b60008060008060008060008060006101208a8c031215614d0057600080fd5b60008a013567ffffffffffffffff811115614d1a57600080fd5b614d268c828d016146fa565b99505060208a013567ffffffffffffffff811115614d4357600080fd5b614d4f8c828d016146fa565b98505060408a013567ffffffffffffffff811115614d6c57600080fd5b614d788c828d016146fa565b97505060608a013567ffffffffffffffff811115614d9557600080fd5b614da18c828d016146fa565b96505060808a013567ffffffffffffffff811115614dbe57600080fd5b614dca8c828d016146fa565b95505060a08a013567ffffffffffffffff811115614de757600080fd5b614df38c828d016146fa565b94505060c08a013567ffffffffffffffff811115614e1057600080fd5b614e1c8c828d016146fa565b93505060e08a013567ffffffffffffffff811115614e3957600080fd5b614e458c828d016146fa565b9250506101008a013567ffffffffffffffff811115614e6357600080fd5b614e6f8c828d016146fa565b9150509295985092959850929598565b60008060008060808587031215614e9557600080fd5b600085013567ffffffffffffffff811115614eaf57600080fd5b614ebb878288016146fa565b945050602085013567ffffffffffffffff811115614ed857600080fd5b614ee4878288016146fa565b935050604085013567ffffffffffffffff811115614f0157600080fd5b614f0d878288016146fa565b9250506060614f1e8782880161474e565b91505092959194509250565b6000614f36838361530f565b905092915050565b6000614f4a838361553c565b905092915050565b6000614f5e83836155e1565b905092915050565b6000614f72838361561e565b905092915050565b6000614f8582615998565b614f8f8185615a19565b935083602082028501614fa185615958565b8060005b85811015614fdd5784840389528151614fbe8582614f2a565b9450614fc9836159e5565b925060208a01995050600181019050614fa5565b50829750879550505050505092915050565b6000614ffa826159a3565b6150048185615a2a565b93508360208202850161501685615968565b8060005b8581101561505257848403895281516150338582614f3e565b945061503e836159f2565b925060208a0199505060018101905061501a565b50829750879550505050505092915050565b600061506f826159ae565b6150798185615a3b565b93508360208202850161508b85615978565b8060005b858110156150c757848403895281516150a88582614f52565b94506150b3836159ff565b925060208a0199505060018101905061508f565b50829750879550505050505092915050565b60006150e4826159b9565b6150ee8185615a4c565b93508360208202850161510085615988565b8060005b8581101561513c578484038952815161511d8582614f66565b945061512883615a0c565b925060208a01995050600181019050615104565b50829750879550505050505092915050565b61515781615a95565b82525050565b61516681615a95565b82525050565b6000615177826159c4565b6151818185615a5d565b9350615191818560208601615ace565b80840191505092915050565b6151a681615aab565b82525050565b60006151b7826159da565b6151c18185615a79565b93506151d1818560208601615ace565b6151da81615b01565b840191505092915050565b60006151f0826159da565b6151fa8185615a8a565b935061520a818560208601615ace565b80840191505092915050565b6000615221826159cf565b61522b8185615a68565b935061523b818560208601615ace565b61524481615b01565b840191505092915050565b600061525c600983615a79565b91507f4e6f7420466f756e6400000000000000000000000000000000000000000000006000830152602082019050919050565b600061529c600983615a79565b91507f4e6f7420666f756e6400000000000000000000000000000000000000000000006000830152602082019050919050565b60006152dc601683615a79565b91507f696e76616c69642061757468656e7469636174696f6e000000000000000000006000830152602082019050919050565b600060a083016000830151848203600086015261532c8282615216565b915050602083015184820360208601526153468282615216565b915050604083015184820360408601526153608282615216565b9150506060830151848203606086015261537a8282615216565b915050608083015161538f6080860182615714565b508091505092915050565b60006101208301600083015184820360008601526153b88282615216565b915050602083015184820360208601526153d28282615216565b915050604083015184820360408601526153ec8282615216565b915050606083015184820360608601526154068282615216565b915050608083015184820360808601526154208282615216565b91505060a083015184820360a086015261543a8282615216565b91505060c083015184820360c08601526154548282615216565b91505060e083015184820360e086015261546e8282615216565b91505061010083015184820361010086015261548a8282615216565b9150508091505092915050565b600060c08301600083015184820360008601526154b48282615216565b915050602083015184820360208601526154ce8282615216565b915050604083015184820360408601526154e88282615216565b915050606083015184820360608601526155028282615216565b9150506080830151848203608086015261551c8282615216565b91505060a083015161553160a086018261514e565b508091505092915050565b600060c08301600083015184820360008601526155598282615216565b915050602083015184820360208601526155738282615216565b9150506040830151848203604086015261558d8282615216565b915050606083015184820360608601526155a78282615216565b915050608083015184820360808601526155c18282615216565b91505060a08301516155d660a086018261514e565b508091505092915050565b600060408301600083015184820360008601526155fe8282615216565b91505060208301516156136020860182615714565b508091505092915050565b600061012083016000830151848203600086015261563c8282615216565b915050602083015184820360208601526156568282615216565b915050604083015184820360408601526156708282615216565b9150506060830151848203606086015261568a8282615216565b915050608083015184820360808601526156a48282615216565b91505060a083015184820360a08601526156be8282615216565b91505060c083015184820360c08601526156d88282615216565b91505060e083015184820360e08601526156f28282615216565b91505061010083015161570961010086018261514e565b508091505092915050565b61571d81615ab5565b82525050565b61572c81615ab5565b82525050565b600061573e828461516c565b915081905092915050565b600061575582846151e5565b915081905092915050565b6000602082019050818103600083015261577a8184614f7a565b905092915050565b6000602082019050818103600083015261579c8184614fef565b905092915050565b600060208201905081810360008301526157be8184615064565b905092915050565b600060208201905081810360008301526157e081846150d9565b905092915050565b60006020820190506157fd600083018461515d565b92915050565b6000602082019050615818600083018461519d565b92915050565b6000602082019050818103600083015261583881846151ac565b905092915050565b600060208201905081810360008301526158598161524f565b9050919050565b600060208201905081810360008301526158798161528f565b9050919050565b60006020820190508181036000830152615899816152cf565b9050919050565b600060208201905081810360008301526158ba818461539a565b905092915050565b600060208201905081810360008301526158dc8184615497565b905092915050565b60006020820190506158f96000830184615723565b92915050565b6000604051905081810181811067ffffffffffffffff8211171561592257600080fd5b8060405250919050565b600067ffffffffffffffff82111561594357600080fd5b601f19601f8301169050602081019050919050565b6000819050602082019050919050565b6000819050602082019050919050565b6000819050602082019050919050565b6000819050602082019050919050565b600081519050919050565b600081519050919050565b600081519050919050565b600081519050919050565b600081519050919050565b600081519050919050565b600081519050919050565b6000602082019050919050565b6000602082019050919050565b6000602082019050919050565b6000602082019050919050565b600082825260208201905092915050565b600082825260208201905092915050565b600082825260208201905092915050565b600082825260208201905092915050565b600081905092915050565b600082825260208201905092915050565b600082825260208201905092915050565b600081905092915050565b60008115159050919050565b6000819050919050565b6000819050919050565b6000819050919050565b82818337600083830152505050565b60005b83811015615aec578082015181840152602081019050615ad1565b83811115615afb576000848401525b50505050565b6000601f19601f8301169050919050565b615b1b81615aa1565b8114615b2657600080fd5b50565b615b3281615ab5565b8114615b3d57600080fd5b5056fea365627a7a72315820f1dd55e9e89efbb28562feab7a0eb43e159e22a2f6cdfaa221e9cb99d8fa6c136c6578706572696d656e74616cf564736f6c63430005100040",
  "source": "// SPDX-License-Identifier: MIT\r\n\r\npragma solidity >=0.5.16;\r\npragma experimental ABIEncoderV2;\r\n\r\n/*\r\nError Codes\r\n200     -       ok\r\n100     -       fail\r\n107     -       Unauthorized Access\r\n*/\r\n\r\ncontract Election {\r\n\r\n    /*--------------------------------------------------------------------------- \r\n                    Super Admin Module\r\n    -----------------------------------------------------------------------------*/\r\n    uint private numberOfSuperAdmins = 0;\r\n    bool private isDefaultAdminAdded = false;\r\n\r\n    struct superAdmin {\r\n        string name;\r\n        string emailId;\r\n        string username;\r\n        bytes32 encUsername;\r\n        bytes32 password;\r\n        bool occupied;\r\n        bool canDelete;\r\n    }\r\n\r\n    struct superAdminDetails {\r\n        string name;\r\n        string emailId;\r\n        string username;\r\n        string encUsername;\r\n        string password;\r\n    }\r\n\r\n    //store super admin details based on the hash value of encryptedUserName hash value\r\n    mapping(bytes32 => superAdmin) private superAdminHashmap;\r\n    mapping (uint=> bytes32) private superAdminsAccountDetails;\r\n    mapping(bytes32 => string) private superAdminLoginLog;\r\n\r\n    //get all details of Super admins\r\n    /*function getAllSuperAdminDetails(string memory encUsername) public view returns(superAdmin[] memory) {\r\n\r\n        if (isSuperAdminUsernameTaken(encUsername)) {\r\n            superAdmin[] memory allDetails = new superAdmin[](numberOfSuperAdmins);\r\n            for (uint i = 0; i < numberOfSuperAdmins; i++) {\r\n                allDetails[i] = superAdminHashmap[superAdminsAccountDetails[i]];\r\n            }\r\n            return allDetails;\r\n        } else {\r\n            superAdmin[] memory allDetails = new superAdmin[](0);\r\n            return allDetails;\r\n        }\r\n    }*/\r\n\r\n    //add super admin credentials into table by hashing proper credentials\r\n    function addSuperAdmin(superAdminDetails memory adminDetails, string memory adminHashCode) private{\r\n        \r\n        if (isSuperAdminUsernameTaken(adminHashCode)) {\r\n            bytes32 usernameHash = getStringHashedToBytes32(adminDetails.encUsername);\r\n            bytes32 passwordHash = getStringHashedToBytes32(adminDetails.password);\r\n            \r\n            superAdmin memory admin = superAdmin(adminDetails.name, adminDetails.emailId, adminDetails.username, usernameHash, passwordHash, true, true);\r\n\r\n            superAdminHashmap[usernameHash] = admin;\r\n            superAdminsAccountDetails[numberOfSuperAdmins] = usernameHash;\r\n\r\n            numberOfSuperAdmins += 1;\r\n        }\r\n    }\r\n\r\n    /*function storeSuperAdminAtPosition(superAdmin memory adminData, string memory encUsername) private {\r\n        bytes32 usernameHash = getStringHashedToBytes32(encUsername);\r\n\r\n        superAdminHashmap[usernameHash] = adminData;\r\n    }*/\r\n\r\n    //checks the hashmap, wheather admin details is present already\r\n    function isSuperAdminPresent(superAdmin memory adminDetails, string memory encUsername) private view returns(bool) {\r\n        bytes32 usernameHash = getStringHashedToBytes32(encUsername);\r\n\r\n        superAdmin storage admin = superAdminHashmap[usernameHash];\r\n\r\n        if (isEqual(admin.name, adminDetails.name) && isEqual(admin.emailId, adminDetails.emailId) && isEqual(admin.username, adminDetails.username) && isEqualByBytes32(admin.encUsername, adminDetails.encUsername)) {\r\n            return true;\r\n        }\r\n\r\n        return false;\r\n    }\r\n\r\n    //checks if the admin username is already taken\r\n    function isSuperAdminUsernameTaken(string memory encUsername) public view returns(bool) {\r\n        bytes32 usernameHash = getStringHashedToBytes32(encUsername);\r\n\r\n        superAdmin storage admin = superAdminHashmap[usernameHash];\r\n\r\n        if (!admin.occupied) {\r\n            return false;\r\n        }\r\n\r\n        return true;\r\n    }\r\n\r\n    //will add the details into hashmap once all the api calls are satisfied\r\n    function finallyAddSuperAdmin(string memory name, string memory emailId, string memory username, string memory encUsername, string memory password, string memory adminUsername) public {\r\n        superAdminDetails memory adminDetails = superAdminDetails(name, emailId, username, encUsername, password);\r\n        if (isSuperAdminUsernameTaken(adminUsername)) {\r\n            addSuperAdmin(adminDetails, adminUsername);\r\n        }\r\n    }\r\n\r\n    //returns data by checking the hashmap if the admin is created\r\n    function isSuperAdminAdded(string memory name, string memory emailId, string memory username, string memory encUsername, string memory password) public view returns(int) {\r\n        \r\n        bytes32 usernameHash = getStringHashedToBytes32(encUsername);\r\n        bytes32 passwordHash = getStringHashedToBytes32(password);\r\n\r\n        superAdmin memory adminDetails = superAdmin(name, emailId, username, usernameHash, passwordHash, true, true);\r\n\r\n        bool isPresent = isSuperAdminPresent(adminDetails, encUsername);\r\n\r\n        if (isPresent) {\r\n            return 200;\r\n        }\r\n        return 100;\r\n    }\r\n\r\n    function authSuperAdminEnc(string memory username) public view returns(bool) {\r\n        bytes32 usernameHash = getStringHashedToBytes32(username);\r\n\r\n        superAdmin memory authAdmin = superAdminHashmap[usernameHash];\r\n        if (authAdmin.encUsername == usernameHash) {\r\n            return true;\r\n        }\r\n        return false;\r\n    }\r\n\r\n    function authSuperAdmin(string memory username, string memory encUsername, string memory password) public view returns(bool) {\r\n        bytes32 usernameHash = getStringHashedToBytes32(encUsername);\r\n        bytes32 passwordHash = getStringHashedToBytes32(password);\r\n        \r\n        superAdmin memory authAdmin = superAdminHashmap[usernameHash];\r\n        bytes32 baseUsernameHash = getStringHashedToBytes32(authAdmin.username);\r\n        bytes32 recievedUsernameHash = getStringHashedToBytes32(username);\r\n        if (baseUsernameHash == recievedUsernameHash && authAdmin.encUsername == usernameHash && authAdmin.password == passwordHash) {\r\n            return true;\r\n        }\r\n        return false;\r\n    }\r\n\r\n    //edit super admin details as a whole, which includes Name, Email id, Password\r\n    /*function editSuperAdminAllDetails(string memory name, string memory emailId, string memory encUsername, string memory password) public {\r\n        bytes32 usernameHash = getStringHashedToBytes32(encUsername);\r\n        bytes32 passwordHash = getStringHashedToBytes32(password);\r\n        superAdmin memory sAdmin = superAdminHashmap[usernameHash];\r\n        sAdmin.name = name;\r\n        sAdmin.emailId = emailId;\r\n        sAdmin.password = passwordHash;\r\n\r\n        superAdminHashmap[usernameHash] = sAdmin;\r\n    }\r\n\r\n    //edit only Super Admin name\r\n    function editSuperAdminName(string memory name, string memory encUsername) public {\r\n        bytes32 usernameHash = getStringHashedToBytes32(encUsername);\r\n\r\n        superAdmin memory sAdmin = superAdminHashmap[usernameHash];\r\n        sAdmin.name = name;\r\n\r\n        storeSuperAdminAtPosition(sAdmin, encUsername);\r\n    }\r\n\r\n    //edit only Super Admin Email Id\r\n    function editSuperAdminEmailId(string memory emailId, string memory encUsername) public {\r\n        bytes32 usernameHash = getStringHashedToBytes32(encUsername);\r\n\r\n        superAdmin memory sAdmin = superAdminHashmap[usernameHash];\r\n        sAdmin.emailId = emailId;\r\n\r\n        storeSuperAdminAtPosition(sAdmin, encUsername);\r\n    }\r\n\r\n    //edit only Super Admin Password\r\n    function editSuperAdminPassword(string memory password, string memory encUsername) public {\r\n        bytes32 usernameHash = getStringHashedToBytes32(encUsername);\r\n        bytes32 passwordHash = getStringHashedToBytes32(password);\r\n\r\n        superAdmin memory sAdmin = superAdminHashmap[usernameHash];\r\n        sAdmin.password = passwordHash;\r\n\r\n        storeSuperAdminAtPosition(sAdmin, encUsername);\r\n    }\r\n\r\n    //function to get the admin details\r\n    function getSuperAdminDetails(string memory encUsername) public view returns(superAdmin memory) {\r\n        bytes32 usernameHash = getStringHashedToBytes32(encUsername);\r\n        return superAdminHashmap[usernameHash];\r\n    }*/\r\n\r\n    //function to create Default Super Admin\r\n    function defaultSuperAdmin(string memory name, string memory emailId, string memory username, string memory encUsername, string memory password) public {\r\n        if (!isDefaultAdminAdded) {\r\n            bytes32 usernameHash = getStringHashedToBytes32(encUsername);\r\n            bytes32 passwordHash = getStringHashedToBytes32(password);\r\n            \r\n            superAdmin memory admin = superAdmin(name, emailId, username, usernameHash, passwordHash, true, false);\r\n\r\n            superAdminHashmap[usernameHash] = admin;\r\n            isDefaultAdminAdded = true;\r\n        }\r\n    }\r\n\r\n    function modifySuperAdminLoginLog(string memory encUsername, string memory dateTime) public {\r\n        bytes32 encUsernameHash = getStringHashedToBytes32(encUsername);\r\n        superAdminLoginLog[encUsernameHash] = dateTime;\r\n    }\r\n\r\n    function getSuperAdminLoginLog(string memory encUsername) public view returns(string memory) {\r\n        bytes32 encUsernameHash = getStringHashedToBytes32(encUsername);\r\n        return superAdminLoginLog[encUsernameHash];\r\n    }\r\n\r\n    //----------------------------------------------------------------------------------------------------------------------------------------------------------------------------------\r\n\r\n    //---------------------------------------------------- Election Details ------------------------------------------------------------------------------------------------------------\r\n\r\n    /*struct electionDetails {\r\n        string electionId;\r\n        string electionAlias;\r\n        string year;\r\n        string date;\r\n        uint numberOfConstituency;\r\n        string typeOfConstituency;\r\n        uint index;\r\n        bool flag;\r\n        //hash value to store constituency details\r\n        mapping(uint => bytes32) constituencyStorageHash;\r\n    }\r\n\r\n    struct constituencyDetails {\r\n        string district;\r\n        string state;\r\n        string constituencyNumber;\r\n        uint numberOfVoters;\r\n        string dateOfElection;\r\n        string time;\r\n        bool flag;\r\n        //hash value to store voter's details\r\n    }\r\n\r\n    struct constituencyData {\r\n        string district;\r\n        string state;\r\n        string constituencyNumber;\r\n        uint numberOfVoters;\r\n        string dateOfElection;\r\n        string time;\r\n    }\r\n\r\n    struct electionData {\r\n        string electionAlias;\r\n        string year;\r\n        string date;\r\n        uint numberOfConsituency;\r\n        string typeOfConstituency;\r\n        uint indexSize;\r\n        uint index;\r\n    }\r\n\r\n    struct superAdminForElection {\r\n        uint index;\r\n        mapping (uint => bytes32) electionStorageHash;\r\n    }\r\n\r\n    mapping (bytes32 => superAdminForElection) adminForElection;\r\n    mapping (bytes32 => electionDetails) electionMap;\r\n    mapping (bytes32 => constituencyDetails) constituencyMap;\r\n\r\n    function createConstituencyUsingSuperAdmin(string memory username, string memory encUsername, string memory password, uint userElectionIndex, string memory constituencyId, string memory district, string memory stateName,string memory constituencyNumber, uint numberOfVoters, string memory date, string memory time) public {\r\n        if (authSuperAdmin(username, encUsername, password)) {\r\n            bytes32 adminHash = getStringHashedToBytes32(encUsername);\r\n            bytes32 constituencyIndexHash = getStringHashedToBytes32(constituencyId);\r\n\r\n            superAdminForElection storage adminElection = adminForElection[adminHash];\r\n\r\n            bytes32 electionAddress = adminElection.electionStorageHash[userElectionIndex];\r\n            electionDetails storage eDetails = electionMap[electionAddress];\r\n\r\n            uint cIndex = eDetails.index;\r\n            constituencyDetails storage cDetails = constituencyMap[constituencyIndexHash];\r\n            cDetails.district = district;\r\n            cDetails.state = stateName;\r\n            cDetails.constituencyNumber = constituencyNumber;\r\n            cDetails.numberOfVoters = numberOfVoters;\r\n            cDetails.dateOfElection = date;\r\n            cDetails.time = time;\r\n            cDetails.flag = true;\r\n\r\n            eDetails.constituencyStorageHash[cIndex] = constituencyIndexHash;\r\n            eDetails.index += 1;\r\n        }\r\n    }\r\n\r\n    function createElectionUsingSuperAdmin(string memory username, string memory encUsername, string memory password, string memory electionId ,string memory electionAlias, string memory year, string memory typeOfElection, string memory date, uint numberOfConstituencyT) public {\r\n        if (authSuperAdmin(username, encUsername, password)) {\r\n            bytes32 adminHashValue = getStringHashedToBytes32(encUsername);\r\n            bytes32 electionIdHashValue = getStringHashedToBytes32(electionId);\r\n            \r\n            electionDetails storage eDetails = electionMap[electionIdHashValue];\r\n            eDetails.electionId = electionId;\r\n            eDetails.electionAlias = electionAlias;\r\n            eDetails.year = year;\r\n            eDetails.date = date;\r\n            eDetails.typeOfConstituency = typeOfElection;\r\n            eDetails.numberOfConstituency = numberOfConstituencyT;\r\n            eDetails.flag = true;\r\n\r\n            superAdminForElection storage adminElection = adminForElection[adminHashValue];\r\n            uint electionIndex = adminElection.index;\r\n            adminElection.electionStorageHash[electionIndex] = electionIdHashValue;\r\n            adminElection.index += 1;\r\n        }\r\n    }\r\n\r\n    /*function createConstituencyUsingSuperAdmin(string memory username, string memory encUsername, string memory password, string memory electionId, string memory constituencyId,string memory district, string memory state, string memory constituencyNumber, uint numberOfVoters, string memory date, string memory time) public {\r\n        if (authSuperAdmin(username, encUsername, password)) {\r\n            bytes32 electionIndexHash = getStringHashedToBytes32(electionId);\r\n            bytes32 constituencyIndexHash = getStringHashedToBytes32(constituencyId);\r\n\r\n            electionDetails storage eDetails = electionMap[electionIndexHash];\r\n            uint cIndex = eDetails.index;\r\n            constituencyDetails storage cDetails = constituencyMap[constituencyIndexHash];\r\n            cDetails.district = district;\r\n            cDetails.state = state;\r\n            cDetails.constituencyNumber = constituencyNumber;\r\n            cDetails.numberOfVoters = numberOfVoters;\r\n            cDetails.dateOfElection = date;\r\n            cDetails.time = time;\r\n            cDetails.flag = true;\r\n\r\n            eDetails.constituencyStorageHash[cIndex] = constituencyIndexHash;\r\n            eDetails.index += 1;\r\n        }\r\n    }*/\r\n\r\n    /*function getAllElectionData(string memory username, string memory encUsername, string memory password) public view returns(electionData[] memory) {\r\n        if (authSuperAdmin(username, encUsername, password)) {\r\n            bytes32 usernameHash = getStringHashedToBytes32(encUsername);\r\n\r\n            superAdminForElection storage adminElection = adminForElection[usernameHash];\r\n            uint adminIndex = adminElection.index;\r\n            electionData[] memory eData = new electionData[](adminIndex);\r\n\r\n            for (uint i = 0; i < adminIndex; i++) {\r\n                bytes32 electionAddress = adminElection.electionStorageHash[i];\r\n                electionDetails storage eDetails = electionMap[electionAddress];\r\n                string memory electionAlias = eDetails.electionAlias;\r\n                string memory year = eDetails.year;\r\n                string memory date = eDetails.date;\r\n                uint numberOfConsituency = eDetails.numberOfConstituency;\r\n                string memory typeOfConstituency = eDetails.typeOfConstituency;\r\n                uint size = eDetails.index;\r\n\r\n                electionData memory data = electionData(electionAlias, year, date, numberOfConsituency, typeOfConstituency, size, i);\r\n                eData[i] = data;\r\n            }\r\n            return eData;\r\n        } else {\r\n            electionData[] memory eData = new electionData[](0);\r\n            return eData;\r\n        }\r\n    }\r\n\r\n    function getConstituentDetails(string memory username, string memory encUsername, string memory password, uint electionIndex) public view returns(constituencyData[] memory) {\r\n        if (authSuperAdmin(username, encUsername, password)) {\r\n            bytes32 adminHashValue = getStringHashedToBytes32(encUsername);\r\n            \r\n            superAdminForElection storage adminElection = adminForElection[adminHashValue];\r\n            bytes32 electionAddress = adminElection.electionStorageHash[electionIndex];\r\n\r\n            electionDetails storage eDetails = electionMap[electionAddress];\r\n            uint size = eDetails.index;\r\n\r\n            constituencyData[] memory cData = new constituencyData[](size);\r\n\r\n            for (uint i = 0; i < size; i++) {\r\n                bytes32 constituencyAddress = eDetails.constituencyStorageHash[i];\r\n                constituencyDetails storage cDetails = constituencyMap[constituencyAddress];\r\n\r\n                string memory district = cDetails.district;\r\n                string memory stateName = cDetails.state;\r\n                string memory constituencyNumber = cDetails.constituencyNumber;\r\n                uint numberOfVoters = cDetails.numberOfVoters;\r\n                string memory dateOfElection = cDetails.dateOfElection;\r\n                string memory time = cDetails.time;\r\n\r\n                constituencyData memory data = constituencyData(district, stateName, constituencyNumber, numberOfVoters, dateOfElection, time);\r\n                cData[i] = data;\r\n            }\r\n\r\n            return cData;\r\n        } else {\r\n            constituencyData[] memory cData = new constituencyData[](0);\r\n            return cData;\r\n        }\r\n    }\r\n\r\n    function isElectionProvidedUnderAdmin(string memory encUsername, string memory electionId, uint electionIndex) private view returns(bool) {\r\n        bytes32 usernameHash = getStringHashedToBytes32(encUsername);\r\n\r\n        superAdminForElection storage adminElection = adminForElection[usernameHash];\r\n        bytes32 electionDataAddress = adminElection.electionStorageHash[electionIndex];\r\n\r\n        electionDetails storage adminElectionDetails = electionMap[electionDataAddress];\r\n        string memory adminElectionId = adminElectionDetails.electionId;\r\n\r\n        if (isEqual(adminElectionId, electionId)) {\r\n            return true;\r\n        }\r\n        return false;\r\n    }*/\r\n\r\n    //----------------------------------------------------------------------------------------------------------------------------------------------------------------------------------\r\n\r\n    struct stateDetails {\r\n        string constitutionId;\r\n        string state;\r\n        string district;\r\n        string constitutionName;\r\n        string taluk;\r\n        bool occupied;\r\n    }\r\n\r\n    struct stateInfo {\r\n        string stateName;\r\n        uint index;\r\n    }\r\n\r\n    struct state {\r\n        bool occupied;\r\n        string stateName;\r\n        uint statesCount;\r\n        mapping (uint => string) details;\r\n    }\r\n\r\n    uint numberOfStates = 0;\r\n    uint numberOfConstituency = 0;\r\n\r\n    mapping (uint => string) stateLocationHash;\r\n    mapping (string => state) stateList;\r\n    mapping (string => stateDetails) constituencyTable;\r\n\r\n    function addConstituencyData(string memory username, string memory encUsername, string memory password, string memory stateId, string memory stateName, string memory constituencyId, string memory district, string memory constitutionName, string memory taluk) public {\r\n        if (authSuperAdmin(username, encUsername, password) && !constituencyTable[constituencyId].occupied) {\r\n            state storage stateData = stateList[stateId];\r\n            if (!stateData.occupied) {\r\n                stateLocationHash[numberOfStates] = stateId;\r\n                stateData.occupied = true;\r\n                numberOfStates += 1;\r\n            }\r\n            stateData.stateName = stateName;\r\n            uint index = stateData.statesCount;\r\n            stateDetails memory details = stateDetails(constituencyId, stateName, district, constitutionName, taluk, true);\r\n            stateData.details[index] = constituencyId;\r\n            constituencyTable[constituencyId] = details;\r\n            stateData.statesCount += 1;\r\n            numberOfConstituency += 1;\r\n        }\r\n    }\r\n\r\n    function isConstituencyIdOccupied(string memory username, string memory encUsername, string memory password, string memory constituencyId) public view returns(bool) {\r\n        if (authSuperAdmin(username, encUsername, password)) {\r\n            stateDetails memory details = constituencyTable[constituencyId];\r\n            return details.occupied;\r\n        } else {\r\n            return false;\r\n        }\r\n    }\r\n\r\n    function getStateList(string memory username, string memory encUsername, string memory password) public view returns(stateInfo[] memory) {\r\n        if (authSuperAdmin(username, encUsername, password)) {\r\n            stateInfo[] memory stateArray = new stateInfo[](numberOfStates);\r\n            for (uint i = 0; i < numberOfStates; i++) {\r\n                string memory stateLocationAddress = stateLocationHash[i];\r\n                state storage stateData = stateList[stateLocationAddress];\r\n                stateArray[i].stateName = stateData.stateName;\r\n                stateArray[i].index = i;\r\n            }\r\n            return stateArray;\r\n        } else {\r\n            stateInfo[] memory data = new stateInfo[](0);\r\n            return data;\r\n        }\r\n    }\r\n\r\n    function getCorresspondingStateList(string memory username, string memory encUsername, string memory password, uint index) public view returns(stateDetails[] memory) {\r\n        if (authSuperAdmin(username, encUsername, password)) {\r\n            string memory stateAddress = stateLocationHash[index];\r\n            state storage stateData = stateList[stateAddress];\r\n            uint size = stateData.statesCount;\r\n            stateDetails[] memory stateArray = new stateDetails[](size);\r\n            for (uint i = 0; i < size; i++) {\r\n                string memory id = stateData.details[i];\r\n                stateArray[i] = constituencyTable[id];\r\n            }\r\n            return stateArray;\r\n        } else {\r\n            stateDetails[] memory data = new stateDetails[](0);\r\n            return data;\r\n        }\r\n    }\r\n\r\n    function getCorrespondingConstituencyDetail(string memory username, string memory encUsername, string memory password, string memory constituencyId) public view returns(stateDetails memory) {\r\n        if (authSuperAdmin(username, encUsername, password)) {\r\n            return constituencyTable[constituencyId];\r\n        }\r\n        revert(\"Not Found\");\r\n    }\r\n\r\n    function getCorrespondingConstituencyDetails(string memory constituencyId) public view returns(stateDetails memory) {\r\n        return constituencyTable[constituencyId];\r\n    }\r\n\r\n    //----------------------------------------------------------------------------------------------------------------------------------------------------------------------------------\r\n    \r\n    struct voter {\r\n        string aadharNumber;\r\n        string voterId;\r\n        string name;\r\n        string dateOfBirth;\r\n        string constituencyId;\r\n        string contactNumber;\r\n        string emailAddress;\r\n        string residentialAddress;\r\n        bool occupied;\r\n    }\r\n\r\n    struct individualVoterData {\r\n        string aadharNumber;\r\n        string voterId;\r\n        string name;\r\n        string dateOfBirth;\r\n        string state;\r\n        string district;\r\n        string taluk;\r\n        string constituencyId;\r\n        string residentialAddress;\r\n    }\r\n\r\n    struct constituencyVoters {\r\n        uint numberOfVoters;\r\n        mapping (uint => string) voter;\r\n    }\r\n\r\n    mapping(string => constituencyVoters) votersList;\r\n    mapping(string => voter) votersTable;\r\n\r\n    function addVoterDetails(string memory encUsername, string memory aadharNumber, string memory voterId, string memory name, string memory dateOfBirth, string memory constituencyId, string memory contactNumber, string memory emailAddress, string memory residentialAddress) public {\r\n        if (authSuperAdminEnc(encUsername)) {\r\n            voter memory voterData = voter(aadharNumber, voterId, name, dateOfBirth, constituencyId, contactNumber, emailAddress, residentialAddress, true);\r\n            votersTable[voterId] = voterData;\r\n            constituencyVoters storage list = votersList[constituencyId];\r\n            uint size = list.numberOfVoters;\r\n            list.voter[size] = voterId;\r\n            list.numberOfVoters += 1;\r\n        }\r\n    }\r\n\r\n    function getIndividualVoterDetail(string memory username, string memory encUsername, string memory password, string memory voterId) public view returns(individualVoterData memory) {\r\n        if (authSuperAdmin(username, encUsername, password) && votersTable[voterId].occupied) {\r\n            voter memory voterData = votersTable[voterId];\r\n            string memory aadharNumber = voterData.aadharNumber;\r\n            string memory name = voterData.name;\r\n            string memory dateOfBirth = voterData.dateOfBirth;\r\n            \r\n            string memory constituencyId = voterData.constituencyId;\r\n            stateDetails memory stateData = constituencyTable[constituencyId];\r\n\r\n            string memory stateName = stateData.state;\r\n            string memory district = stateData.district;\r\n            string memory taluk = stateData.taluk;\r\n            string memory residentialAddress = voterData.residentialAddress;\r\n\r\n            individualVoterData memory data = individualVoterData(aadharNumber, voterId, name, dateOfBirth, stateName, district, taluk, constituencyId, residentialAddress);\r\n            return data;\r\n        }\r\n        revert(\"Not found\");\r\n    }\r\n\r\n    function getConstituencyVotersList(string memory username, string memory encUsername, string memory password, string memory constituencyId) public view returns(voter[] memory) {\r\n        if (authSuperAdmin(username, encUsername, password)) {\r\n            constituencyVoters storage list = votersList[constituencyId];\r\n            uint size = list.numberOfVoters;\r\n\r\n            voter[] memory voters = new voter[](size);\r\n\r\n            for (uint i = 0; i < size; i++) {\r\n                string memory voterId = list.voter[i];\r\n                voter memory details = votersTable[voterId]; \r\n                voters[i] = details;\r\n            }\r\n            return voters;\r\n        }\r\n        revert();\r\n    }\r\n\r\n    function isVoterIdValid(string memory username, string memory encUsername, string memory password, string memory voterId) public view returns(uint) {\r\n        if (authSuperAdmin(username, encUsername, password)) {\r\n            if (votersTable[voterId].occupied) {\r\n                return 500; //voter Id taken (Not available)\r\n            }\r\n            return 200; //available\r\n        } else {\r\n            return 400; //invalid user\r\n        }\r\n    }\r\n\r\n    //----------------------------------------------------------------------------------------------------------------------------------------------------------------------------------\r\n\r\n    struct election {\r\n        string electionAlias;\r\n        string electionId;\r\n        string year;\r\n        string dateOfElection;\r\n        bool occupied;\r\n        uint numberOfConstituency;\r\n        mapping (uint => string) constituencyAddress;\r\n    }\r\n\r\n    struct electionDetail {\r\n        string electionAlias;\r\n        string electionId;\r\n        string year;\r\n        string dateOfElection;\r\n        uint numberOfConstituency;\r\n    }\r\n\r\n    struct adminAssociatedElection {\r\n        uint numberOfElection;\r\n        mapping (uint => string) electionId;\r\n    }\r\n\r\n    struct constituencyElection {\r\n        uint numberOfElection;\r\n        mapping (uint => string) electionList;\r\n    }\r\n\r\n    mapping (string => election) electionTable;\r\n    mapping (bytes32 => adminAssociatedElection) adminElection;\r\n    mapping (string => constituencyElection) electionConstituencyTable;\r\n\r\n    function createElection(string memory username, string memory encUsername, string memory password, string memory electionAlias, string memory electionId, string memory year, string memory dateOfElection) public {\r\n        if (authSuperAdmin(username, encUsername, password)) {\r\n            bytes32 usernameHash = getStringHashedToBytes32(encUsername);\r\n\r\n            adminAssociatedElection storage associatedElection = adminElection[usernameHash];\r\n            uint electionCount = associatedElection.numberOfElection;\r\n            associatedElection.electionId[electionCount] = electionId;\r\n            associatedElection.numberOfElection += 1;\r\n\r\n            election storage electionData = electionTable[electionId];\r\n            electionData.electionAlias = electionAlias;\r\n            electionData.electionId = electionId;\r\n            electionData.year = year;\r\n            electionData.dateOfElection = dateOfElection;\r\n            electionData.occupied = true;\r\n        }\r\n    }\r\n\r\n    function getElection(string memory username, string memory encUsername, string memory password) public view returns(electionDetail[] memory) {\r\n        if (authSuperAdmin(username, encUsername, password)) {\r\n            bytes32 usernameHash = getStringHashedToBytes32(encUsername);\r\n\r\n            adminAssociatedElection storage associatedElection = adminElection[usernameHash];\r\n            uint numberOfElections = associatedElection.numberOfElection;\r\n\r\n            electionDetail[] memory detail = new electionDetail[](numberOfElections);\r\n            for (uint index = 0; index < numberOfElections; index++) {\r\n                string memory electionIndex = associatedElection.electionId[index];\r\n                election storage electionData = electionTable[electionIndex];\r\n                electionDetail memory eDetail = electionDetail(electionData.electionAlias, electionData.electionId, electionData.year, electionData.dateOfElection, electionData.numberOfConstituency);\r\n                detail[index] = eDetail;\r\n            }\r\n            return detail;\r\n        }\r\n        revert(\"invalid authentication\");\r\n    }\r\n\r\n    function addElectionConstitution(string memory username, string memory encUsername, string memory password, string memory electionId, string memory constituencyId) public {\r\n        if (authSuperAdmin(username, encUsername, password)) {\r\n            election storage electionData = electionTable[electionId];\r\n            uint indexOfConstituency = electionData.numberOfConstituency;\r\n            electionData.constituencyAddress[indexOfConstituency] = constituencyId;\r\n            electionData.numberOfConstituency += 1;\r\n\r\n            constituencyElection storage cElection = electionConstituencyTable[constituencyId];\r\n            uint numberOfConstituencyElection = cElection.numberOfElection;\r\n            cElection.electionList[numberOfConstituencyElection] = electionId;\r\n            cElection.numberOfElection += 1;\r\n        }\r\n    }\r\n\r\n    function getElectionConstituencyDetail(string memory username, string memory encUsername, string memory password, string memory electionId) public view returns(stateDetails[] memory) {\r\n        if (authSuperAdmin(username, encUsername, password)) {\r\n            election storage electionData = electionTable[electionId];\r\n            uint count = electionData.numberOfConstituency;\r\n\r\n            stateDetails[] memory details = new stateDetails[](count);\r\n\r\n            for (uint index = 0; index < count; index++) {\r\n                string memory consituencyAddress = electionData.constituencyAddress[index];\r\n                details[index] = getCorrespondingConstituencyDetails(consituencyAddress);\r\n            }\r\n            return details;\r\n        }\r\n        revert(\"invalid authentication\");\r\n    }\r\n\r\n    //----------------------------------------------------------------------------------------------------------------------------------------------------------------------------------\r\n\r\n    function getStringHashedToBytes32(string memory toBeHashedString) private pure returns(bytes32) {\r\n        return sha256(abi.encodePacked(toBeHashedString));\r\n    }\r\n\r\n    function isEqual(string memory input1, string memory input2) private pure returns(bool) {\r\n        return (getStringHashedToBytes32(input1) == getStringHashedToBytes32(input2));\r\n    }\r\n\r\n    function isEqualByBytes32(bytes32 input1, bytes32 input2) private pure returns(bool) {\r\n        return (input1 == input2);\r\n    }\r\n\r\n}",
  "sourcePath": "C:\\Users\\Hp\\Documents\\bc-capstone\\contracts\\Election.sol",
  "compiler": {
    "name": "solc",
    "version": "0.5.16+commit.9c3226ce.Emscripten.clang"
  },
  "schemaVersion": "3.4.2",
  "updatedAt": "2021-10-22T17:22:21.745Z",
  "devdoc": {
    "methods": {}
  },
  "userdoc": {
    "methods": {}
  }
}