{
  "contractName": "Election",
  "abi": [
    {
      "constant": true,
      "inputs": [
        {
          "internalType": "string",
          "name": "encUsername",
          "type": "string"
        }
      ],
      "name": "getAllSuperAdminDetails",
      "outputs": [
        {
          "components": [
            {
              "internalType": "string",
              "name": "name",
              "type": "string"
            },
            {
              "internalType": "string",
              "name": "emailId",
              "type": "string"
            },
            {
              "internalType": "string",
              "name": "username",
              "type": "string"
            },
            {
              "internalType": "bytes32",
              "name": "encUsername",
              "type": "bytes32"
            },
            {
              "internalType": "bytes32",
              "name": "password",
              "type": "bytes32"
            },
            {
              "internalType": "bool",
              "name": "occupied",
              "type": "bool"
            },
            {
              "internalType": "bool",
              "name": "canDelete",
              "type": "bool"
            }
          ],
          "internalType": "struct Election.superAdmin[]",
          "name": "",
          "type": "tuple[]"
        }
      ],
      "payable": false,
      "stateMutability": "view",
      "type": "function"
    },
    {
      "constant": true,
      "inputs": [
        {
          "internalType": "string",
          "name": "encUsername",
          "type": "string"
        }
      ],
      "name": "isSuperAdminUsernameTaken",
      "outputs": [
        {
          "internalType": "bool",
          "name": "",
          "type": "bool"
        }
      ],
      "payable": false,
      "stateMutability": "view",
      "type": "function"
    },
    {
      "constant": false,
      "inputs": [
        {
          "internalType": "string",
          "name": "name",
          "type": "string"
        },
        {
          "internalType": "string",
          "name": "emailId",
          "type": "string"
        },
        {
          "internalType": "string",
          "name": "username",
          "type": "string"
        },
        {
          "internalType": "string",
          "name": "encUsername",
          "type": "string"
        },
        {
          "internalType": "string",
          "name": "password",
          "type": "string"
        },
        {
          "internalType": "string",
          "name": "adminUsername",
          "type": "string"
        }
      ],
      "name": "finallyAddSuperAdmin",
      "outputs": [],
      "payable": false,
      "stateMutability": "nonpayable",
      "type": "function"
    },
    {
      "constant": true,
      "inputs": [
        {
          "internalType": "string",
          "name": "name",
          "type": "string"
        },
        {
          "internalType": "string",
          "name": "emailId",
          "type": "string"
        },
        {
          "internalType": "string",
          "name": "username",
          "type": "string"
        },
        {
          "internalType": "string",
          "name": "encUsername",
          "type": "string"
        },
        {
          "internalType": "string",
          "name": "password",
          "type": "string"
        }
      ],
      "name": "isSuperAdminAdded",
      "outputs": [
        {
          "internalType": "int256",
          "name": "",
          "type": "int256"
        }
      ],
      "payable": false,
      "stateMutability": "view",
      "type": "function"
    },
    {
      "constant": true,
      "inputs": [
        {
          "internalType": "string",
          "name": "username",
          "type": "string"
        }
      ],
      "name": "authSuperAdminEnc",
      "outputs": [
        {
          "internalType": "bool",
          "name": "",
          "type": "bool"
        }
      ],
      "payable": false,
      "stateMutability": "view",
      "type": "function"
    },
    {
      "constant": true,
      "inputs": [
        {
          "internalType": "string",
          "name": "username",
          "type": "string"
        },
        {
          "internalType": "string",
          "name": "encUsername",
          "type": "string"
        },
        {
          "internalType": "string",
          "name": "password",
          "type": "string"
        }
      ],
      "name": "authSuperAdmin",
      "outputs": [
        {
          "internalType": "bool",
          "name": "",
          "type": "bool"
        }
      ],
      "payable": false,
      "stateMutability": "view",
      "type": "function"
    },
    {
      "constant": false,
      "inputs": [
        {
          "internalType": "string",
          "name": "name",
          "type": "string"
        },
        {
          "internalType": "string",
          "name": "emailId",
          "type": "string"
        },
        {
          "internalType": "string",
          "name": "encUsername",
          "type": "string"
        },
        {
          "internalType": "string",
          "name": "password",
          "type": "string"
        }
      ],
      "name": "editSuperAdminAllDetails",
      "outputs": [],
      "payable": false,
      "stateMutability": "nonpayable",
      "type": "function"
    },
    {
      "constant": false,
      "inputs": [
        {
          "internalType": "string",
          "name": "name",
          "type": "string"
        },
        {
          "internalType": "string",
          "name": "encUsername",
          "type": "string"
        }
      ],
      "name": "editSuperAdminName",
      "outputs": [],
      "payable": false,
      "stateMutability": "nonpayable",
      "type": "function"
    },
    {
      "constant": false,
      "inputs": [
        {
          "internalType": "string",
          "name": "emailId",
          "type": "string"
        },
        {
          "internalType": "string",
          "name": "encUsername",
          "type": "string"
        }
      ],
      "name": "editSuperAdminEmailId",
      "outputs": [],
      "payable": false,
      "stateMutability": "nonpayable",
      "type": "function"
    },
    {
      "constant": false,
      "inputs": [
        {
          "internalType": "string",
          "name": "password",
          "type": "string"
        },
        {
          "internalType": "string",
          "name": "encUsername",
          "type": "string"
        }
      ],
      "name": "editSuperAdminPassword",
      "outputs": [],
      "payable": false,
      "stateMutability": "nonpayable",
      "type": "function"
    },
    {
      "constant": true,
      "inputs": [
        {
          "internalType": "string",
          "name": "encUsername",
          "type": "string"
        }
      ],
      "name": "getSuperAdminDetails",
      "outputs": [
        {
          "components": [
            {
              "internalType": "string",
              "name": "name",
              "type": "string"
            },
            {
              "internalType": "string",
              "name": "emailId",
              "type": "string"
            },
            {
              "internalType": "string",
              "name": "username",
              "type": "string"
            },
            {
              "internalType": "bytes32",
              "name": "encUsername",
              "type": "bytes32"
            },
            {
              "internalType": "bytes32",
              "name": "password",
              "type": "bytes32"
            },
            {
              "internalType": "bool",
              "name": "occupied",
              "type": "bool"
            },
            {
              "internalType": "bool",
              "name": "canDelete",
              "type": "bool"
            }
          ],
          "internalType": "struct Election.superAdmin",
          "name": "",
          "type": "tuple"
        }
      ],
      "payable": false,
      "stateMutability": "view",
      "type": "function"
    },
    {
      "constant": false,
      "inputs": [
        {
          "internalType": "string",
          "name": "name",
          "type": "string"
        },
        {
          "internalType": "string",
          "name": "emailId",
          "type": "string"
        },
        {
          "internalType": "string",
          "name": "username",
          "type": "string"
        },
        {
          "internalType": "string",
          "name": "encUsername",
          "type": "string"
        },
        {
          "internalType": "string",
          "name": "password",
          "type": "string"
        }
      ],
      "name": "defaultSuperAdmin",
      "outputs": [],
      "payable": false,
      "stateMutability": "nonpayable",
      "type": "function"
    },
    {
      "constant": false,
      "inputs": [
        {
          "internalType": "string",
          "name": "encUsername",
          "type": "string"
        },
        {
          "internalType": "string",
          "name": "dateTime",
          "type": "string"
        }
      ],
      "name": "modifySuperAdminLoginLog",
      "outputs": [],
      "payable": false,
      "stateMutability": "nonpayable",
      "type": "function"
    },
    {
      "constant": true,
      "inputs": [
        {
          "internalType": "string",
          "name": "encUsername",
          "type": "string"
        }
      ],
      "name": "getSuperAdminLoginLog",
      "outputs": [
        {
          "internalType": "string",
          "name": "",
          "type": "string"
        }
      ],
      "payable": false,
      "stateMutability": "view",
      "type": "function"
    },
    {
      "constant": false,
      "inputs": [
        {
          "internalType": "string",
          "name": "username",
          "type": "string"
        },
        {
          "internalType": "string",
          "name": "encUsername",
          "type": "string"
        },
        {
          "internalType": "string",
          "name": "password",
          "type": "string"
        },
        {
          "internalType": "uint256",
          "name": "userElectionIndex",
          "type": "uint256"
        },
        {
          "internalType": "string",
          "name": "constituencyId",
          "type": "string"
        },
        {
          "internalType": "string",
          "name": "district",
          "type": "string"
        },
        {
          "internalType": "string",
          "name": "stateName",
          "type": "string"
        },
        {
          "internalType": "string",
          "name": "constituencyNumber",
          "type": "string"
        },
        {
          "internalType": "uint256",
          "name": "numberOfVoters",
          "type": "uint256"
        },
        {
          "internalType": "string",
          "name": "date",
          "type": "string"
        },
        {
          "internalType": "string",
          "name": "time",
          "type": "string"
        }
      ],
      "name": "createConstituencyUsingSuperAdmin",
      "outputs": [],
      "payable": false,
      "stateMutability": "nonpayable",
      "type": "function"
    },
    {
      "constant": false,
      "inputs": [
        {
          "internalType": "string",
          "name": "username",
          "type": "string"
        },
        {
          "internalType": "string",
          "name": "encUsername",
          "type": "string"
        },
        {
          "internalType": "string",
          "name": "password",
          "type": "string"
        },
        {
          "internalType": "string",
          "name": "electionId",
          "type": "string"
        },
        {
          "internalType": "string",
          "name": "electionAlias",
          "type": "string"
        },
        {
          "internalType": "string",
          "name": "year",
          "type": "string"
        },
        {
          "internalType": "string",
          "name": "typeOfElection",
          "type": "string"
        },
        {
          "internalType": "string",
          "name": "date",
          "type": "string"
        },
        {
          "internalType": "uint256",
          "name": "numberOfConstituencyT",
          "type": "uint256"
        }
      ],
      "name": "createElectionUsingSuperAdmin",
      "outputs": [],
      "payable": false,
      "stateMutability": "nonpayable",
      "type": "function"
    },
    {
      "constant": true,
      "inputs": [
        {
          "internalType": "string",
          "name": "username",
          "type": "string"
        },
        {
          "internalType": "string",
          "name": "encUsername",
          "type": "string"
        },
        {
          "internalType": "string",
          "name": "password",
          "type": "string"
        }
      ],
      "name": "getAllElectionData",
      "outputs": [
        {
          "components": [
            {
              "internalType": "string",
              "name": "electionAlias",
              "type": "string"
            },
            {
              "internalType": "string",
              "name": "year",
              "type": "string"
            },
            {
              "internalType": "string",
              "name": "date",
              "type": "string"
            },
            {
              "internalType": "uint256",
              "name": "numberOfConsituency",
              "type": "uint256"
            },
            {
              "internalType": "string",
              "name": "typeOfConstituency",
              "type": "string"
            },
            {
              "internalType": "uint256",
              "name": "indexSize",
              "type": "uint256"
            },
            {
              "internalType": "uint256",
              "name": "index",
              "type": "uint256"
            }
          ],
          "internalType": "struct Election.electionData[]",
          "name": "",
          "type": "tuple[]"
        }
      ],
      "payable": false,
      "stateMutability": "view",
      "type": "function"
    },
    {
      "constant": true,
      "inputs": [
        {
          "internalType": "string",
          "name": "username",
          "type": "string"
        },
        {
          "internalType": "string",
          "name": "encUsername",
          "type": "string"
        },
        {
          "internalType": "string",
          "name": "password",
          "type": "string"
        },
        {
          "internalType": "uint256",
          "name": "electionIndex",
          "type": "uint256"
        }
      ],
      "name": "getConstituentDetails",
      "outputs": [
        {
          "components": [
            {
              "internalType": "string",
              "name": "district",
              "type": "string"
            },
            {
              "internalType": "string",
              "name": "state",
              "type": "string"
            },
            {
              "internalType": "string",
              "name": "constituencyNumber",
              "type": "string"
            },
            {
              "internalType": "uint256",
              "name": "numberOfVoters",
              "type": "uint256"
            },
            {
              "internalType": "string",
              "name": "dateOfElection",
              "type": "string"
            },
            {
              "internalType": "string",
              "name": "time",
              "type": "string"
            }
          ],
          "internalType": "struct Election.constituencyData[]",
          "name": "",
          "type": "tuple[]"
        }
      ],
      "payable": false,
      "stateMutability": "view",
      "type": "function"
    },
    {
      "constant": false,
      "inputs": [
        {
          "internalType": "string",
          "name": "username",
          "type": "string"
        },
        {
          "internalType": "string",
          "name": "encUsername",
          "type": "string"
        },
        {
          "internalType": "string",
          "name": "password",
          "type": "string"
        },
        {
          "internalType": "string",
          "name": "stateId",
          "type": "string"
        },
        {
          "internalType": "string",
          "name": "stateName",
          "type": "string"
        },
        {
          "internalType": "string",
          "name": "constituencyId",
          "type": "string"
        },
        {
          "internalType": "string",
          "name": "district",
          "type": "string"
        },
        {
          "internalType": "string",
          "name": "constitutionName",
          "type": "string"
        },
        {
          "internalType": "string",
          "name": "taluk",
          "type": "string"
        }
      ],
      "name": "addConstituencyData",
      "outputs": [],
      "payable": false,
      "stateMutability": "nonpayable",
      "type": "function"
    },
    {
      "constant": true,
      "inputs": [
        {
          "internalType": "string",
          "name": "username",
          "type": "string"
        },
        {
          "internalType": "string",
          "name": "encUsername",
          "type": "string"
        },
        {
          "internalType": "string",
          "name": "password",
          "type": "string"
        },
        {
          "internalType": "string",
          "name": "constituencyId",
          "type": "string"
        }
      ],
      "name": "isConstituencyIdOccupied",
      "outputs": [
        {
          "internalType": "bool",
          "name": "",
          "type": "bool"
        }
      ],
      "payable": false,
      "stateMutability": "view",
      "type": "function"
    },
    {
      "constant": true,
      "inputs": [
        {
          "internalType": "string",
          "name": "username",
          "type": "string"
        },
        {
          "internalType": "string",
          "name": "encUsername",
          "type": "string"
        },
        {
          "internalType": "string",
          "name": "password",
          "type": "string"
        }
      ],
      "name": "getStateList",
      "outputs": [
        {
          "components": [
            {
              "internalType": "string",
              "name": "stateName",
              "type": "string"
            },
            {
              "internalType": "uint256",
              "name": "index",
              "type": "uint256"
            }
          ],
          "internalType": "struct Election.stateInfo[]",
          "name": "",
          "type": "tuple[]"
        }
      ],
      "payable": false,
      "stateMutability": "view",
      "type": "function"
    },
    {
      "constant": true,
      "inputs": [
        {
          "internalType": "string",
          "name": "username",
          "type": "string"
        },
        {
          "internalType": "string",
          "name": "encUsername",
          "type": "string"
        },
        {
          "internalType": "string",
          "name": "password",
          "type": "string"
        },
        {
          "internalType": "uint256",
          "name": "index",
          "type": "uint256"
        }
      ],
      "name": "getCorresspondingStateList",
      "outputs": [
        {
          "components": [
            {
              "internalType": "string",
              "name": "constitutionId",
              "type": "string"
            },
            {
              "internalType": "string",
              "name": "state",
              "type": "string"
            },
            {
              "internalType": "string",
              "name": "district",
              "type": "string"
            },
            {
              "internalType": "string",
              "name": "constitutionName",
              "type": "string"
            },
            {
              "internalType": "string",
              "name": "taluk",
              "type": "string"
            },
            {
              "internalType": "bool",
              "name": "occupied",
              "type": "bool"
            }
          ],
          "internalType": "struct Election.stateDetails[]",
          "name": "",
          "type": "tuple[]"
        }
      ],
      "payable": false,
      "stateMutability": "view",
      "type": "function"
    },
    {
      "constant": true,
      "inputs": [
        {
          "internalType": "string",
          "name": "username",
          "type": "string"
        },
        {
          "internalType": "string",
          "name": "encUsername",
          "type": "string"
        },
        {
          "internalType": "string",
          "name": "password",
          "type": "string"
        },
        {
          "internalType": "string",
          "name": "constituencyId",
          "type": "string"
        }
      ],
      "name": "getCorrespondingConstituencyDetail",
      "outputs": [
        {
          "components": [
            {
              "internalType": "string",
              "name": "constitutionId",
              "type": "string"
            },
            {
              "internalType": "string",
              "name": "state",
              "type": "string"
            },
            {
              "internalType": "string",
              "name": "district",
              "type": "string"
            },
            {
              "internalType": "string",
              "name": "constitutionName",
              "type": "string"
            },
            {
              "internalType": "string",
              "name": "taluk",
              "type": "string"
            },
            {
              "internalType": "bool",
              "name": "occupied",
              "type": "bool"
            }
          ],
          "internalType": "struct Election.stateDetails",
          "name": "",
          "type": "tuple"
        }
      ],
      "payable": false,
      "stateMutability": "view",
      "type": "function"
    },
    {
      "constant": false,
      "inputs": [
        {
          "internalType": "string",
          "name": "encUsername",
          "type": "string"
        },
        {
          "internalType": "string",
          "name": "aadharNumber",
          "type": "string"
        },
        {
          "internalType": "string",
          "name": "password",
          "type": "string"
        },
        {
          "internalType": "string",
          "name": "voterId",
          "type": "string"
        },
        {
          "internalType": "string",
          "name": "name",
          "type": "string"
        },
        {
          "internalType": "string",
          "name": "dateOfBirth",
          "type": "string"
        },
        {
          "internalType": "string",
          "name": "constituencyId",
          "type": "string"
        },
        {
          "internalType": "string",
          "name": "contactNumber",
          "type": "string"
        },
        {
          "internalType": "string",
          "name": "emailAddress",
          "type": "string"
        },
        {
          "internalType": "string",
          "name": "residentialAddress",
          "type": "string"
        }
      ],
      "name": "addVoterDetails",
      "outputs": [],
      "payable": false,
      "stateMutability": "nonpayable",
      "type": "function"
    },
    {
      "constant": true,
      "inputs": [
        {
          "internalType": "string",
          "name": "username",
          "type": "string"
        },
        {
          "internalType": "string",
          "name": "encUsername",
          "type": "string"
        },
        {
          "internalType": "string",
          "name": "password",
          "type": "string"
        },
        {
          "internalType": "string",
          "name": "voterId",
          "type": "string"
        }
      ],
      "name": "getIndividualVoterDetail",
      "outputs": [
        {
          "components": [
            {
              "internalType": "string",
              "name": "aadharNumber",
              "type": "string"
            },
            {
              "internalType": "string",
              "name": "voterId",
              "type": "string"
            },
            {
              "internalType": "string",
              "name": "name",
              "type": "string"
            },
            {
              "internalType": "string",
              "name": "dateOfBirth",
              "type": "string"
            },
            {
              "internalType": "string",
              "name": "state",
              "type": "string"
            },
            {
              "internalType": "string",
              "name": "district",
              "type": "string"
            },
            {
              "internalType": "string",
              "name": "taluk",
              "type": "string"
            },
            {
              "internalType": "string",
              "name": "constituencyId",
              "type": "string"
            },
            {
              "internalType": "string",
              "name": "residentialAddress",
              "type": "string"
            }
          ],
          "internalType": "struct Election.individualVoterData",
          "name": "",
          "type": "tuple"
        }
      ],
      "payable": false,
      "stateMutability": "view",
      "type": "function"
    },
    {
      "constant": true,
      "inputs": [
        {
          "internalType": "string",
          "name": "username",
          "type": "string"
        },
        {
          "internalType": "string",
          "name": "encUsername",
          "type": "string"
        },
        {
          "internalType": "string",
          "name": "password",
          "type": "string"
        },
        {
          "internalType": "string",
          "name": "constituencyId",
          "type": "string"
        }
      ],
      "name": "getConstituencyVotersList",
      "outputs": [
        {
          "components": [
            {
              "internalType": "string",
              "name": "aadharNumber",
              "type": "string"
            },
            {
              "internalType": "string",
              "name": "password",
              "type": "string"
            },
            {
              "internalType": "string",
              "name": "voterId",
              "type": "string"
            },
            {
              "internalType": "string",
              "name": "name",
              "type": "string"
            },
            {
              "internalType": "string",
              "name": "dateOfBirth",
              "type": "string"
            },
            {
              "internalType": "string",
              "name": "constituencyId",
              "type": "string"
            },
            {
              "internalType": "string",
              "name": "contactNumber",
              "type": "string"
            },
            {
              "internalType": "string",
              "name": "emailAddress",
              "type": "string"
            },
            {
              "internalType": "string",
              "name": "residentialAddress",
              "type": "string"
            },
            {
              "internalType": "bool",
              "name": "occupied",
              "type": "bool"
            }
          ],
          "internalType": "struct Election.voter[]",
          "name": "",
          "type": "tuple[]"
        }
      ],
      "payable": false,
      "stateMutability": "view",
      "type": "function"
    }
  ],
  "bytecode": "0x6080604052600080556000600160006101000a81548160ff0219169083151502179055506000600855600060095534801561003957600080fd5b506176db806200004a6000396000f3fe608060405234801561001057600080fd5b506004361061018e5760003560e01c8063908d2d90116100de578063cd2e5bb711610097578063dc20ca4111610071578063dc20ca4114610513578063e7fbdd5314610543578063ef8837071461055f578063f773d69c1461057b5761018e565b8063cd2e5bb714610497578063d95bcb33146104b3578063db463d68146104e35761018e565b8063908d2d901461038b57806391515238146103bb578063a98b47bb146103eb578063afe2503b1461041b578063bd19968a14610437578063bf7cf927146104675761018e565b80633b8002f11161014b5780635513c9bb116101255780635513c9bb146103075780635a9de87014610323578063772a6a0d146103535780638d25a02f1461036f5761018e565b80633b8002f11461028b57806345e687a9146102bb578063517f6117146102eb5761018e565b806307b65cf3146101935780630f2910dc146101c35780631319f305146101f35780631343765f146102235780632702982e146102535780632a6a6acb1461026f575b600080fd5b6101ad60048036036101a89190810190616465565b610597565b6040516101ba919061725f565b60405180910390f35b6101dd60048036036101d89190810190615b67565b610b70565b6040516101ea919061731d565b60405180910390f35b61020d60048036036102089190810190615c14565b610c33565b60405161021a91906172e7565b60405180910390f35b61023d60048036036102389190810190615c14565b610f09565b60405161024a919061723d565b60405180910390f35b61026d60048036036102689190810190615f76565b611320565b005b61028960048036036102849190810190615cab565b611585565b005b6102a560048036036102a09190810190615c14565b6118de565b6040516102b29190617281565b60405180910390f35b6102d560048036036102d09190810190616465565b611b4d565b6040516102e2919061721b565b60405180910390f35b61030560048036036103009190810190615d6e565b61202a565b005b610321600480360361031c9190810190615ba8565b612182565b005b61033d60048036036103389190810190615cab565b61240f565b60405161034a91906173a1565b60405180910390f35b61036d60048036036103689190810190615e5d565b6127df565b005b610389600480360361038491908101906162df565b612832565b005b6103a560048036036103a09190810190615cab565b612974565b6040516103b291906172e7565b60405180910390f35b6103d560048036036103d09190810190615b67565b612d18565b6040516103e291906173c3565b60405180910390f35b61040560048036036104009190810190615b67565b612f83565b60405161041291906172e7565b60405180910390f35b61043560048036036104309190810190615ba8565b61320c565b005b610451600480360361044c9190810190615cab565b61348a565b60405161045e91906172c5565b60405180910390f35b610481600480360361047c9190810190615b67565b613c07565b60405161048e91906172a3565b60405180910390f35b6104b160048036036104ac9190810190615ba8565b613f41565b005b6104cd60048036036104c89190810190615cab565b6141bf565b6040516104da919061737f565b60405180910390f35b6104fd60048036036104f89190810190615d6e565b614c70565b60405161050a9190617302565b60405180910390f35b61052d60048036036105289190810190615b67565b614d01565b60405161053a91906172e7565b60405180910390f35b61055d60048036036105589190810190615ba8565b614d53565b005b61057960048036036105749190810190616510565b614d8d565b005b61059560048036036105909190810190616114565b614f04565b005b60606105a4858585610c33565b15610b23576060600a60008481526020019081526020016000208054600181600116156101000203166002900480601f0160208091040260200160405190810160405280929190818152602001828054600181600116156101000203166002900480156106525780601f1061062757610100808354040283529160200191610652565b820191906000526020600020905b81548152906001019060200180831161063557829003601f168201915b505050505090506000600b8260405161066b9190617204565b908152602001604051809103902090506000816002015490506060816040519080825280602002602001820160405280156106c057816020015b6106ad615678565b8152602001906001900390816106a55790505b50905060008090505b82811015610b165760608460030160008381526020019081526020016000208054600181600116156101000203166002900480601f01602080910402602001604051908101604052809291908181526020018280546001816001161561010002031660029004801561077c5780601f106107515761010080835404028352916020019161077c565b820191906000526020600020905b81548152906001019060200180831161075f57829003601f168201915b50505050509050600c816040516107939190617204565b90815260200160405180910390206040518060c0016040529081600082018054600181600116156101000203166002900480601f0160208091040260200160405190810160405280929190818152602001828054600181600116156101000203166002900480156108455780601f1061081a57610100808354040283529160200191610845565b820191906000526020600020905b81548152906001019060200180831161082857829003601f168201915b50505050508152602001600182018054600181600116156101000203166002900480601f0160208091040260200160405190810160405280929190818152602001828054600181600116156101000203166002900480156108e75780601f106108bc576101008083540402835291602001916108e7565b820191906000526020600020905b8154815290600101906020018083116108ca57829003601f168201915b50505050508152602001600282018054600181600116156101000203166002900480601f0160208091040260200160405190810160405280929190818152602001828054600181600116156101000203166002900480156109895780601f1061095e57610100808354040283529160200191610989565b820191906000526020600020905b81548152906001019060200180831161096c57829003601f168201915b50505050508152602001600382018054600181600116156101000203166002900480601f016020809104026020016040519081016040528092919081815260200182805460018160011615610100020316600290048015610a2b5780601f10610a0057610100808354040283529160200191610a2b565b820191906000526020600020905b815481529060010190602001808311610a0e57829003601f168201915b50505050508152602001600482018054600181600116156101000203166002900480601f016020809104026020016040519081016040528092919081815260200182805460018160011615610100020316600290048015610acd5780601f10610aa257610100808354040283529160200191610acd565b820191906000526020600020905b815481529060010190602001808311610ab057829003601f168201915b505050505081526020016005820160009054906101000a900460ff161515151581525050838381518110610afd57fe5b60200260200101819052505080806001019150506106c9565b5080945050505050610b68565b60606000604051908082528060200260200182016040528015610b6057816020015b610b4d615678565b815260200190600190039081610b455790505b509050809150505b949350505050565b60606000610b7d83615126565b9050600460008281526020019081526020016000208054600181600116156101000203166002900480601f016020809104026020016040519081016040528092919081815260200182805460018160011615610100020316600290048015610c265780601f10610bfb57610100808354040283529160200191610c26565b820191906000526020600020905b815481529060010190602001808311610c0957829003601f168201915b5050505050915050919050565b600080610c3f84615126565b90506000610c4c84615126565b9050610c566156b0565b600260008481526020019081526020016000206040518060e0016040529081600082018054600181600116156101000203166002900480601f016020809104026020016040519081016040528092919081815260200182805460018160011615610100020316600290048015610d0d5780601f10610ce257610100808354040283529160200191610d0d565b820191906000526020600020905b815481529060010190602001808311610cf057829003601f168201915b50505050508152602001600182018054600181600116156101000203166002900480601f016020809104026020016040519081016040528092919081815260200182805460018160011615610100020316600290048015610daf5780601f10610d8457610100808354040283529160200191610daf565b820191906000526020600020905b815481529060010190602001808311610d9257829003601f168201915b50505050508152602001600282018054600181600116156101000203166002900480601f016020809104026020016040519081016040528092919081815260200182805460018160011615610100020316600290048015610e515780601f10610e2657610100808354040283529160200191610e51565b820191906000526020600020905b815481529060010190602001808311610e3457829003601f168201915b5050505050815260200160038201548152602001600482015481526020016005820160009054906101000a900460ff161515151581526020016005820160019054906101000a900460ff16151515158152505090506000610eb58260400151615126565b90506000610ec289615126565b90508082148015610ed65750848360600151145b8015610ee55750838360800151145b15610ef857600195505050505050610f02565b6000955050505050505b9392505050565b6060610f16848484610c33565b156112d4576000610f2684615126565b90506000600560008381526020019081526020016000209050600081600001549050606081604051908082528060200260200182016040528015610f8457816020015b610f716156f7565b815260200190600190039081610f695790505b50905060008090505b828110156112c757600084600101600083815260200190815260200160002054905060006006600083815260200190815260200160002090506060816001018054600181600116156101000203166002900480601f0160208091040260200160405190810160405280929190818152602001828054600181600116156101000203166002900480156110605780601f1061103557610100808354040283529160200191611060565b820191906000526020600020905b81548152906001019060200180831161104357829003601f168201915b505050505090506060826002018054600181600116156101000203166002900480601f0160208091040260200160405190810160405280929190818152602001828054600181600116156101000203166002900480156111015780601f106110d657610100808354040283529160200191611101565b820191906000526020600020905b8154815290600101906020018083116110e457829003601f168201915b505050505090506060836003018054600181600116156101000203166002900480601f0160208091040260200160405190810160405280929190818152602001828054600181600116156101000203166002900480156111a25780601f10611177576101008083540402835291602001916111a2565b820191906000526020600020905b81548152906001019060200180831161118557829003601f168201915b505050505090506000846004015490506060856005018054600181600116156101000203166002900480601f01602080910402602001604051908101604052809291908181526020018280546001816001161561010002031660029004801561124c5780601f106112215761010080835404028352916020019161124c565b820191906000526020600020905b81548152906001019060200180831161122f57829003601f168201915b50505050509050600086600601549050611264615734565b6040518060e001604052808881526020018781526020018681526020018581526020018481526020018381526020018b8152509050808b8b815181106112a657fe5b60200260200101819052505050505050505050508080600101915050610f8d565b5080945050505050611319565b6060600060405190808252806020026020018201604052801561131157816020015b6112fe6156f7565b8152602001906001900390816112f65790505b509050809150505b9392505050565b61132b898989610c33565b80156113635750600c846040516113429190617204565b908152602001604051809103902060050160009054906101000a900460ff16155b1561157a576000600b8760405161137a9190617204565b908152602001604051809103902090508060000160009054906101000a900460ff166113f95786600a6000600854815260200190815260200160002090805190602001906113c9929190615771565b5060018160000160006101000a81548160ff02191690831515021790555060016008600082825401925050819055505b85816001019080519060200190611411929190615771565b506000816002015490506114236157f1565b6040518060c0016040528088815260200189815260200187815260200186815260200185815260200160011515815250905086836003016000848152602001908152602001600020908051906020019061147e929190615771565b5080600c886040516114909190617204565b908152602001604051809103902060008201518160000190805190602001906114ba929190615829565b5060208201518160010190805190602001906114d7929190615829565b5060408201518160020190805190602001906114f4929190615829565b506060820151816003019080519060200190611511929190615829565b50608082015181600401908051906020019061152e929190615829565b5060a08201518160050160006101000a81548160ff0219169083151502179055509050506001836002016000828254019250508190555060016009600082825401925050819055505050505b505050505050505050565b600061159083615126565b9050600061159d83615126565b90506115a76156b0565b600260008481526020019081526020016000206040518060e0016040529081600082018054600181600116156101000203166002900480601f01602080910402602001604051908101604052809291908181526020018280546001816001161561010002031660029004801561165e5780601f106116335761010080835404028352916020019161165e565b820191906000526020600020905b81548152906001019060200180831161164157829003601f168201915b50505050508152602001600182018054600181600116156101000203166002900480601f0160208091040260200160405190810160405280929190818152602001828054600181600116156101000203166002900480156117005780601f106116d557610100808354040283529160200191611700565b820191906000526020600020905b8154815290600101906020018083116116e357829003601f168201915b50505050508152602001600282018054600181600116156101000203166002900480601f0160208091040260200160405190810160405280929190818152602001828054600181600116156101000203166002900480156117a25780601f10611777576101008083540402835291602001916117a2565b820191906000526020600020905b81548152906001019060200180831161178557829003601f168201915b5050505050815260200160038201548152602001600482015481526020016005820160009054906101000a900460ff161515151581526020016005820160019054906101000a900460ff16151515158152505090508681600001819052508581602001819052508181608001818152505080600260008581526020019081526020016000206000820151816000019080519060200190611843929190615829565b506020820151816001019080519060200190611860929190615829565b50604082015181600201908051906020019061187d929190615829565b50606082015181600301556080820151816004015560a08201518160050160006101000a81548160ff02191690831515021790555060c08201518160050160016101000a81548160ff02191690831515021790555090505050505050505050565b60606118eb848484610c33565b15611b0157606060085460405190808252806020026020018201604052801561192e57816020015b61191b6158a9565b8152602001906001900390816119135790505b50905060008090505b600854811015611af7576060600a60008381526020019081526020016000208054600181600116156101000203166002900480601f0160208091040260200160405190810160405280929190818152602001828054600181600116156101000203166002900480156119ea5780601f106119bf576101008083540402835291602001916119ea565b820191906000526020600020905b8154815290600101906020018083116119cd57829003601f168201915b505050505090506000600b82604051611a039190617204565b90815260200160405180910390209050806001018054600181600116156101000203166002900480601f016020809104026020016040519081016040528092919081815260200182805460018160011615610100020316600290048015611aab5780601f10611a8057610100808354040283529160200191611aab565b820191906000526020600020905b815481529060010190602001808311611a8e57829003601f168201915b5050505050848481518110611abc57fe5b60200260200101516000018190525082848481518110611ad857fe5b6020026020010151602001818152505050508080600101915050611937565b5080915050611b46565b60606000604051908082528060200260200182016040528015611b3e57816020015b611b2b6158a9565b815260200190600190039081611b235790505b509050809150505b9392505050565b6060611b5a858585610c33565b15611fdd576000611b6a85615126565b9050600060056000838152602001908152602001600020905060008160010160008681526020019081526020016000205490506000600660008381526020019081526020016000209050600081600601549050606081604051908082528060200260200182016040528015611bf957816020015b611be66158c3565b815260200190600190039081611bde5790505b50905060008090505b82811015611fce57600084600801600083815260200190815260200160002054905060006007600083815260200190815260200160002090506060816000018054600181600116156101000203166002900480601f016020809104026020016040519081016040528092919081815260200182805460018160011615610100020316600290048015611cd55780601f10611caa57610100808354040283529160200191611cd5565b820191906000526020600020905b815481529060010190602001808311611cb857829003601f168201915b505050505090506060826001018054600181600116156101000203166002900480601f016020809104026020016040519081016040528092919081815260200182805460018160011615610100020316600290048015611d765780601f10611d4b57610100808354040283529160200191611d76565b820191906000526020600020905b815481529060010190602001808311611d5957829003601f168201915b505050505090506060836002018054600181600116156101000203166002900480601f016020809104026020016040519081016040528092919081815260200182805460018160011615610100020316600290048015611e175780601f10611dec57610100808354040283529160200191611e17565b820191906000526020600020905b815481529060010190602001808311611dfa57829003601f168201915b505050505090506000846003015490506060856004018054600181600116156101000203166002900480601f016020809104026020016040519081016040528092919081815260200182805460018160011615610100020316600290048015611ec15780601f10611e9657610100808354040283529160200191611ec1565b820191906000526020600020905b815481529060010190602001808311611ea457829003601f168201915b505050505090506060866005018054600181600116156101000203166002900480601f016020809104026020016040519081016040528092919081815260200182805460018160011615610100020316600290048015611f625780601f10611f3757610100808354040283529160200191611f62565b820191906000526020600020905b815481529060010190602001808311611f4557829003601f168201915b50505050509050611f716158f9565b6040518060c00160405280888152602001878152602001868152602001858152602001848152602001838152509050808b8b81518110611fad57fe5b60200260200101819052505050505050505050508080600101915050611c02565b50809650505050505050612022565b6060600060405190808252806020026020018201604052801561201a57816020015b6120076158c3565b815260200190600190039081611fff5790505b509050809150505b949350505050565b600160009054906101000a900460ff1661217b57600061204983615126565b9050600061205683615126565b90506120606156b0565b6040518060e00160405280898152602001888152602001878152602001848152602001838152602001600115158152602001600015158152509050806002600085815260200190815260200160002060008201518160000190805190602001906120cb929190615829565b5060208201518160010190805190602001906120e8929190615829565b506040820151816002019080519060200190612105929190615829565b50606082015181600301556080820151816004015560a08201518160050160006101000a81548160ff02191690831515021790555060c08201518160050160016101000a81548160ff02191690831515021790555090505060018060006101000a81548160ff0219169083151502179055505050505b5050505050565b600061218d82615126565b9050600061219a84615126565b90506121a46156b0565b600260008481526020019081526020016000206040518060e0016040529081600082018054600181600116156101000203166002900480601f01602080910402602001604051908101604052809291908181526020018280546001816001161561010002031660029004801561225b5780601f106122305761010080835404028352916020019161225b565b820191906000526020600020905b81548152906001019060200180831161223e57829003601f168201915b50505050508152602001600182018054600181600116156101000203166002900480601f0160208091040260200160405190810160405280929190818152602001828054600181600116156101000203166002900480156122fd5780601f106122d2576101008083540402835291602001916122fd565b820191906000526020600020905b8154815290600101906020018083116122e057829003601f168201915b50505050508152602001600282018054600181600116156101000203166002900480601f01602080910402602001604051908101604052809291908181526020018280546001816001161561010002031660029004801561239f5780601f106123745761010080835404028352916020019161239f565b820191906000526020600020905b81548152906001019060200180831161238257829003601f168201915b5050505050815260200160038201548152602001600482015481526020016005820160009054906101000a900460ff161515151581526020016005820160019054906101000a900460ff161515151581525050905081816080018181525050612408818561519e565b5050505050565b6124176157f1565b612422858585610c33565b1561279c57600c826040516124379190617204565b90815260200160405180910390206040518060c0016040529081600082018054600181600116156101000203166002900480601f0160208091040260200160405190810160405280929190818152602001828054600181600116156101000203166002900480156124e95780601f106124be576101008083540402835291602001916124e9565b820191906000526020600020905b8154815290600101906020018083116124cc57829003601f168201915b50505050508152602001600182018054600181600116156101000203166002900480601f01602080910402602001604051908101604052809291908181526020018280546001816001161561010002031660029004801561258b5780601f106125605761010080835404028352916020019161258b565b820191906000526020600020905b81548152906001019060200180831161256e57829003601f168201915b50505050508152602001600282018054600181600116156101000203166002900480601f01602080910402602001604051908101604052809291908181526020018280546001816001161561010002031660029004801561262d5780601f106126025761010080835404028352916020019161262d565b820191906000526020600020905b81548152906001019060200180831161261057829003601f168201915b50505050508152602001600382018054600181600116156101000203166002900480601f0160208091040260200160405190810160405280929190818152602001828054600181600116156101000203166002900480156126cf5780601f106126a4576101008083540402835291602001916126cf565b820191906000526020600020905b8154815290600101906020018083116126b257829003601f168201915b50505050508152602001600482018054600181600116156101000203166002900480601f0160208091040260200160405190810160405280929190818152602001828054600181600116156101000203166002900480156127715780601f1061274657610100808354040283529160200191612771565b820191906000526020600020905b81548152906001019060200180831161275457829003601f168201915b505050505081526020016005820160009054906101000a900460ff16151515158152505090506127d7565b6040517f08c379a00000000000000000000000000000000000000000000000000000000081526004016127ce9061733f565b60405180910390fd5b949350505050565b6127e761592f565b6040518060a0016040528088815260200187815260200186815260200185815260200184815250905061281982614d01565b15612829576128288183615272565b5b50505050505050565b61283d898989610c33565b1561296957600061284d89615126565b9050600061285a88615126565b905060006006600083815260200190815260200160002090508881600001908051906020019061288b929190615771565b50878160010190805190602001906128a4929190615771565b50868160020190805190602001906128bd929190615771565b50848160030190805190602001906128d6929190615771565b50858160050190805190602001906128ef929190615771565b5083816004018190555060018160070160006101000a81548160ff021916908315150217905550600060056000858152602001908152602001600020905060008160000154905083826001016000838152602001908152602001600020819055506001826000016000828254019250508190555050505050505b505050505050505050565b6000612981858585610c33565b15612d0b5761298e6157f1565b600c8360405161299e9190617204565b90815260200160405180910390206040518060c0016040529081600082018054600181600116156101000203166002900480601f016020809104026020016040519081016040528092919081815260200182805460018160011615610100020316600290048015612a505780601f10612a2557610100808354040283529160200191612a50565b820191906000526020600020905b815481529060010190602001808311612a3357829003601f168201915b50505050508152602001600182018054600181600116156101000203166002900480601f016020809104026020016040519081016040528092919081815260200182805460018160011615610100020316600290048015612af25780601f10612ac757610100808354040283529160200191612af2565b820191906000526020600020905b815481529060010190602001808311612ad557829003601f168201915b50505050508152602001600282018054600181600116156101000203166002900480601f016020809104026020016040519081016040528092919081815260200182805460018160011615610100020316600290048015612b945780601f10612b6957610100808354040283529160200191612b94565b820191906000526020600020905b815481529060010190602001808311612b7757829003601f168201915b50505050508152602001600382018054600181600116156101000203166002900480601f016020809104026020016040519081016040528092919081815260200182805460018160011615610100020316600290048015612c365780601f10612c0b57610100808354040283529160200191612c36565b820191906000526020600020905b815481529060010190602001808311612c1957829003601f168201915b50505050508152602001600482018054600181600116156101000203166002900480601f016020809104026020016040519081016040528092919081815260200182805460018160011615610100020316600290048015612cd85780601f10612cad57610100808354040283529160200191612cd8565b820191906000526020600020905b815481529060010190602001808311612cbb57829003601f168201915b505050505081526020016005820160009054906101000a900460ff16151515158152505090508060a00151915050612d10565b600090505b949350505050565b612d206156b0565b6000612d2b83615126565b9050600260008281526020019081526020016000206040518060e0016040529081600082018054600181600116156101000203166002900480601f016020809104026020016040519081016040528092919081815260200182805460018160011615610100020316600290048015612de45780601f10612db957610100808354040283529160200191612de4565b820191906000526020600020905b815481529060010190602001808311612dc757829003601f168201915b50505050508152602001600182018054600181600116156101000203166002900480601f016020809104026020016040519081016040528092919081815260200182805460018160011615610100020316600290048015612e865780601f10612e5b57610100808354040283529160200191612e86565b820191906000526020600020905b815481529060010190602001808311612e6957829003601f168201915b50505050508152602001600282018054600181600116156101000203166002900480601f016020809104026020016040519081016040528092919081815260200182805460018160011615610100020316600290048015612f285780601f10612efd57610100808354040283529160200191612f28565b820191906000526020600020905b815481529060010190602001808311612f0b57829003601f168201915b5050505050815260200160038201548152602001600482015481526020016005820160009054906101000a900460ff161515151581526020016005820160019054906101000a900460ff161515151581525050915050919050565b600080612f8f83615126565b9050612f996156b0565b600260008381526020019081526020016000206040518060e0016040529081600082018054600181600116156101000203166002900480601f0160208091040260200160405190810160405280929190818152602001828054600181600116156101000203166002900480156130505780601f1061302557610100808354040283529160200191613050565b820191906000526020600020905b81548152906001019060200180831161303357829003601f168201915b50505050508152602001600182018054600181600116156101000203166002900480601f0160208091040260200160405190810160405280929190818152602001828054600181600116156101000203166002900480156130f25780601f106130c7576101008083540402835291602001916130f2565b820191906000526020600020905b8154815290600101906020018083116130d557829003601f168201915b50505050508152602001600282018054600181600116156101000203166002900480601f0160208091040260200160405190810160405280929190818152602001828054600181600116156101000203166002900480156131945780601f1061316957610100808354040283529160200191613194565b820191906000526020600020905b81548152906001019060200180831161317757829003601f168201915b5050505050815260200160038201548152602001600482015481526020016005820160009054906101000a900460ff161515151581526020016005820160019054906101000a900460ff1615151515815250509050818160600151141561320057600192505050613207565b6000925050505b919050565b600061321782615126565b90506132216156b0565b600260008381526020019081526020016000206040518060e0016040529081600082018054600181600116156101000203166002900480601f0160208091040260200160405190810160405280929190818152602001828054600181600116156101000203166002900480156132d85780601f106132ad576101008083540402835291602001916132d8565b820191906000526020600020905b8154815290600101906020018083116132bb57829003601f168201915b50505050508152602001600182018054600181600116156101000203166002900480601f01602080910402602001604051908101604052809291908181526020018280546001816001161561010002031660029004801561337a5780601f1061334f5761010080835404028352916020019161337a565b820191906000526020600020905b81548152906001019060200180831161335d57829003601f168201915b50505050508152602001600282018054600181600116156101000203166002900480601f01602080910402602001604051908101604052809291908181526020018280546001816001161561010002031660029004801561341c5780601f106133f15761010080835404028352916020019161341c565b820191906000526020600020905b8154815290600101906020018083116133ff57829003601f168201915b5050505050815260200160038201548152602001600482015481526020016005820160009054906101000a900460ff161515151581526020016005820160019054906101000a900460ff1615151515815250509050838160200181905250613484818461519e565b50505050565b6060613497858585610c33565b15613bfa576000600d836040516134ae9190617204565b9081526020016040518091039020905060008160000154905060608160405190808252806020026020018201604052801561350357816020015b6134f061595e565b8152602001906001900390816134e85790505b50905060008090505b82811015613bee5760608460010160008381526020019081526020016000208054600181600116156101000203166002900480601f0160208091040260200160405190810160405280929190818152602001828054600181600116156101000203166002900480156135bf5780601f10613594576101008083540402835291602001916135bf565b820191906000526020600020905b8154815290600101906020018083116135a257829003601f168201915b505050505090506135ce6159b3565b600e826040516135de9190617204565b908152602001604051809103902060405180610140016040529081600082018054600181600116156101000203166002900480601f0160208091040260200160405190810160405280929190818152602001828054600181600116156101000203166002900480156136915780601f1061366657610100808354040283529160200191613691565b820191906000526020600020905b81548152906001019060200180831161367457829003601f168201915b50505050508152602001600182018054600181600116156101000203166002900480601f0160208091040260200160405190810160405280929190818152602001828054600181600116156101000203166002900480156137335780601f1061370857610100808354040283529160200191613733565b820191906000526020600020905b81548152906001019060200180831161371657829003601f168201915b50505050508152602001600282018054600181600116156101000203166002900480601f0160208091040260200160405190810160405280929190818152602001828054600181600116156101000203166002900480156137d55780601f106137aa576101008083540402835291602001916137d5565b820191906000526020600020905b8154815290600101906020018083116137b857829003601f168201915b50505050508152602001600382018054600181600116156101000203166002900480601f0160208091040260200160405190810160405280929190818152602001828054600181600116156101000203166002900480156138775780601f1061384c57610100808354040283529160200191613877565b820191906000526020600020905b81548152906001019060200180831161385a57829003601f168201915b50505050508152602001600482018054600181600116156101000203166002900480601f0160208091040260200160405190810160405280929190818152602001828054600181600116156101000203166002900480156139195780601f106138ee57610100808354040283529160200191613919565b820191906000526020600020905b8154815290600101906020018083116138fc57829003601f168201915b50505050508152602001600582018054600181600116156101000203166002900480601f0160208091040260200160405190810160405280929190818152602001828054600181600116156101000203166002900480156139bb5780601f10613990576101008083540402835291602001916139bb565b820191906000526020600020905b81548152906001019060200180831161399e57829003601f168201915b50505050508152602001600682018054600181600116156101000203166002900480601f016020809104026020016040519081016040528092919081815260200182805460018160011615610100020316600290048015613a5d5780601f10613a3257610100808354040283529160200191613a5d565b820191906000526020600020905b815481529060010190602001808311613a4057829003601f168201915b50505050508152602001600782018054600181600116156101000203166002900480601f016020809104026020016040519081016040528092919081815260200182805460018160011615610100020316600290048015613aff5780601f10613ad457610100808354040283529160200191613aff565b820191906000526020600020905b815481529060010190602001808311613ae257829003601f168201915b50505050508152602001600882018054600181600116156101000203166002900480601f016020809104026020016040519081016040528092919081815260200182805460018160011615610100020316600290048015613ba15780601f10613b7657610100808354040283529160200191613ba1565b820191906000526020600020905b815481529060010190602001808311613b8457829003601f168201915b505050505081526020016009820160009054906101000a900460ff161515151581525050905080848481518110613bd457fe5b60200260200101819052505050808060010191505061350c565b50809350505050613bff565b600080fd5b949350505050565b6060613c1282614d01565b15613ef7576060600054604051908082528060200260200182016040528015613c5557816020015b613c42615a08565b815260200190600190039081613c3a5790505b50905060008090505b600054811015613eed5760026000600360008481526020019081526020016000205481526020019081526020016000206040518060e0016040529081600082018054600181600116156101000203166002900480601f016020809104026020016040519081016040528092919081815260200182805460018160011615610100020316600290048015613d325780601f10613d0757610100808354040283529160200191613d32565b820191906000526020600020905b815481529060010190602001808311613d1557829003601f168201915b50505050508152602001600182018054600181600116156101000203166002900480601f016020809104026020016040519081016040528092919081815260200182805460018160011615610100020316600290048015613dd45780601f10613da957610100808354040283529160200191613dd4565b820191906000526020600020905b815481529060010190602001808311613db757829003601f168201915b50505050508152602001600282018054600181600116156101000203166002900480601f016020809104026020016040519081016040528092919081815260200182805460018160011615610100020316600290048015613e765780601f10613e4b57610100808354040283529160200191613e76565b820191906000526020600020905b815481529060010190602001808311613e5957829003601f168201915b5050505050815260200160038201548152602001600482015481526020016005820160009054906101000a900460ff161515151581526020016005820160019054906101000a900460ff161515151581525050828281518110613ed557fe5b60200260200101819052508080600101915050613c5e565b5080915050613f3c565b60606000604051908082528060200260200182016040528015613f3457816020015b613f21615a08565b815260200190600190039081613f195790505b509050809150505b919050565b6000613f4c82615126565b9050613f566156b0565b600260008381526020019081526020016000206040518060e0016040529081600082018054600181600116156101000203166002900480601f01602080910402602001604051908101604052809291908181526020018280546001816001161561010002031660029004801561400d5780601f10613fe25761010080835404028352916020019161400d565b820191906000526020600020905b815481529060010190602001808311613ff057829003601f168201915b50505050508152602001600182018054600181600116156101000203166002900480601f0160208091040260200160405190810160405280929190818152602001828054600181600116156101000203166002900480156140af5780601f10614084576101008083540402835291602001916140af565b820191906000526020600020905b81548152906001019060200180831161409257829003601f168201915b50505050508152602001600282018054600181600116156101000203166002900480601f0160208091040260200160405190810160405280929190818152602001828054600181600116156101000203166002900480156141515780601f1061412657610100808354040283529160200191614151565b820191906000526020600020905b81548152906001019060200180831161413457829003601f168201915b5050505050815260200160038201548152602001600482015481526020016005820160009054906101000a900460ff161515151581526020016005820160019054906101000a900460ff16151515158152505090508381600001819052506141b9818461519e565b50505050565b6141c7615a4f565b6141d2858585610c33565b80156142095750600e826040516141e99190617204565b908152602001604051809103902060090160009054906101000a900460ff165b15614c2d576142166159b3565b600e836040516142269190617204565b908152602001604051809103902060405180610140016040529081600082018054600181600116156101000203166002900480601f0160208091040260200160405190810160405280929190818152602001828054600181600116156101000203166002900480156142d95780601f106142ae576101008083540402835291602001916142d9565b820191906000526020600020905b8154815290600101906020018083116142bc57829003601f168201915b50505050508152602001600182018054600181600116156101000203166002900480601f01602080910402602001604051908101604052809291908181526020018280546001816001161561010002031660029004801561437b5780601f106143505761010080835404028352916020019161437b565b820191906000526020600020905b81548152906001019060200180831161435e57829003601f168201915b50505050508152602001600282018054600181600116156101000203166002900480601f01602080910402602001604051908101604052809291908181526020018280546001816001161561010002031660029004801561441d5780601f106143f25761010080835404028352916020019161441d565b820191906000526020600020905b81548152906001019060200180831161440057829003601f168201915b50505050508152602001600382018054600181600116156101000203166002900480601f0160208091040260200160405190810160405280929190818152602001828054600181600116156101000203166002900480156144bf5780601f10614494576101008083540402835291602001916144bf565b820191906000526020600020905b8154815290600101906020018083116144a257829003601f168201915b50505050508152602001600482018054600181600116156101000203166002900480601f0160208091040260200160405190810160405280929190818152602001828054600181600116156101000203166002900480156145615780601f1061453657610100808354040283529160200191614561565b820191906000526020600020905b81548152906001019060200180831161454457829003601f168201915b50505050508152602001600582018054600181600116156101000203166002900480601f0160208091040260200160405190810160405280929190818152602001828054600181600116156101000203166002900480156146035780601f106145d857610100808354040283529160200191614603565b820191906000526020600020905b8154815290600101906020018083116145e657829003601f168201915b50505050508152602001600682018054600181600116156101000203166002900480601f0160208091040260200160405190810160405280929190818152602001828054600181600116156101000203166002900480156146a55780601f1061467a576101008083540402835291602001916146a5565b820191906000526020600020905b81548152906001019060200180831161468857829003601f168201915b50505050508152602001600782018054600181600116156101000203166002900480601f0160208091040260200160405190810160405280929190818152602001828054600181600116156101000203166002900480156147475780601f1061471c57610100808354040283529160200191614747565b820191906000526020600020905b81548152906001019060200180831161472a57829003601f168201915b50505050508152602001600882018054600181600116156101000203166002900480601f0160208091040260200160405190810160405280929190818152602001828054600181600116156101000203166002900480156147e95780601f106147be576101008083540402835291602001916147e9565b820191906000526020600020905b8154815290600101906020018083116147cc57829003601f168201915b505050505081526020016009820160009054906101000a900460ff161515151581525050905060608160000151905060608260600151905060608360800151905060608460a00151905061483b6157f1565b600c8260405161484b9190617204565b90815260200160405180910390206040518060c0016040529081600082018054600181600116156101000203166002900480601f0160208091040260200160405190810160405280929190818152602001828054600181600116156101000203166002900480156148fd5780601f106148d2576101008083540402835291602001916148fd565b820191906000526020600020905b8154815290600101906020018083116148e057829003601f168201915b50505050508152602001600182018054600181600116156101000203166002900480601f01602080910402602001604051908101604052809291908181526020018280546001816001161561010002031660029004801561499f5780601f106149745761010080835404028352916020019161499f565b820191906000526020600020905b81548152906001019060200180831161498257829003601f168201915b50505050508152602001600282018054600181600116156101000203166002900480601f016020809104026020016040519081016040528092919081815260200182805460018160011615610100020316600290048015614a415780601f10614a1657610100808354040283529160200191614a41565b820191906000526020600020905b815481529060010190602001808311614a2457829003601f168201915b50505050508152602001600382018054600181600116156101000203166002900480601f016020809104026020016040519081016040528092919081815260200182805460018160011615610100020316600290048015614ae35780601f10614ab857610100808354040283529160200191614ae3565b820191906000526020600020905b815481529060010190602001808311614ac657829003601f168201915b50505050508152602001600482018054600181600116156101000203166002900480601f016020809104026020016040519081016040528092919081815260200182805460018160011615610100020316600290048015614b855780601f10614b5a57610100808354040283529160200191614b85565b820191906000526020600020905b815481529060010190602001808311614b6857829003601f168201915b505050505081526020016005820160009054906101000a900460ff161515151581525050905060608160200151905060608260400151905060608360800151905060608961010001519050614bd8615a4f565b6040518061012001604052808b81526020018e81526020018a8152602001898152602001868152602001858152602001848152602001888152602001838152509050809b505050505050505050505050614c68565b6040517f08c379a0000000000000000000000000000000000000000000000000000000008152600401614c5f9061735f565b60405180910390fd5b949350505050565b600080614c7c84615126565b90506000614c8984615126565b9050614c936156b0565b6040518060e001604052808a81526020018981526020018881526020018481526020018381526020016001151581526020016001151581525090506000614cda82886153e4565b90508015614cef5760c8945050505050614cf8565b60649450505050505b95945050505050565b600080614d0d83615126565b905060006002600083815260200190815260200160002090508060050160009054906101000a900460ff16614d4757600092505050614d4e565b6001925050505b919050565b6000614d5e83615126565b905081600460008381526020019081526020016000209080519060200190614d87929190615771565b50505050565b614d988b8b8b610c33565b15614ef7576000614da88b615126565b90506000614db589615126565b9050600060056000848152602001908152602001600020905060008160010160008d8152602001908152602001600020549050600060066000838152602001908152602001600020905060008160060154905060006007600087815260200190815260200160002090508c816000019080519060200190614e37929190615771565b508b816001019080519060200190614e50929190615771565b508a816002019080519060200190614e69929190615771565b5089816003018190555088816004019080519060200190614e8b929190615771565b5087816005019080519060200190614ea4929190615771565b5060018160060160006101000a81548160ff021916908315150217905550858360080160008481526020019081526020016000208190555060018360060160008282540192505081905550505050505050505b5050505050505050505050565b614f0d8a612f83565b1561511a57614f1a6159b3565b6040518061014001604052808b81526020018a815260200189815260200188815260200187815260200186815260200185815260200184815260200183815260200160011515815250905080600e89604051614f769190617204565b90815260200160405180910390206000820151816000019080519060200190614fa0929190615829565b506020820151816001019080519060200190614fbd929190615829565b506040820151816002019080519060200190614fda929190615829565b506060820151816003019080519060200190614ff7929190615829565b506080820151816004019080519060200190615014929190615829565b5060a0820151816005019080519060200190615031929190615829565b5060c082015181600601908051906020019061504e929190615829565b5060e082015181600701908051906020019061506b929190615829565b50610100820151816008019080519060200190615089929190615829565b506101208201518160090160006101000a81548160ff0219169083151502179055509050506000600d866040516150c09190617204565b90815260200160405180910390209050600081600001549050898260010160008381526020019081526020016000209080519060200190615102929190615771565b50600182600001600082825401925050819055505050505b50505050505050505050565b600060028260405160200161513b9190617204565b60405160208183030381529060405260405161515791906171ed565b602060405180830381855afa158015615174573d6000803e3d6000fd5b5050506040513d601f19601f820116820180604052506151979190810190615b3e565b9050919050565b60006151a982615126565b9050826002600083815260200190815260200160002060008201518160000190805190602001906151db929190615829565b5060208201518160010190805190602001906151f8929190615829565b506040820151816002019080519060200190615215929190615829565b50606082015181600301556080820151816004015560a08201518160050160006101000a81548160ff02191690831515021790555060c08201518160050160016101000a81548160ff021916908315150217905550905050505050565b61527b81614d01565b156153e057600061528f8360600151615126565b905060006152a08460800151615126565b90506152aa6156b0565b6040518060e0016040528086600001518152602001866020015181526020018660400151815260200184815260200183815260200160011515815260200160011515815250905080600260008581526020019081526020016000206000820151816000019080519060200190615321929190615829565b50602082015181600101908051906020019061533e929190615829565b50604082015181600201908051906020019061535b929190615829565b50606082015181600301556080820151816004015560a08201518160050160006101000a81548160ff02191690831515021790555060c08201518160050160016101000a81548160ff02191690831515021790555090505082600360008054815260200190815260200160002081905550600160008082825401925050819055505050505b5050565b6000806153f083615126565b905060006002600083815260200190815260200160002090506154b3816000018054600181600116156101000203166002900480601f0160208091040260200160405190810160405280929190818152602001828054600181600116156101000203166002900480156154a45780601f10615479576101008083540402835291602001916154a4565b820191906000526020600020905b81548152906001019060200180831161548757829003601f168201915b5050505050866000015161564e565b80156155655750615564816001018054600181600116156101000203166002900480601f0160208091040260200160405190810160405280929190818152602001828054600181600116156101000203166002900480156155555780601f1061552a57610100808354040283529160200191615555565b820191906000526020600020905b81548152906001019060200180831161553857829003601f168201915b5050505050866020015161564e565b5b80156156175750615616816002018054600181600116156101000203166002900480601f0160208091040260200160405190810160405280929190818152602001828054600181600116156101000203166002900480156156075780601f106155dc57610100808354040283529160200191615607565b820191906000526020600020905b8154815290600101906020018083116155ea57829003601f168201915b5050505050866040015161564e565b5b801561563157506156308160030154866060015161566b565b5b1561564157600192505050615648565b6000925050505b92915050565b600061565982615126565b61566284615126565b14905092915050565b6000818314905092915050565b6040518060c0016040528060608152602001606081526020016060815260200160608152602001606081526020016000151581525090565b6040518060e0016040528060608152602001606081526020016060815260200160008019168152602001600080191681526020016000151581526020016000151581525090565b6040518060e00160405280606081526020016060815260200160608152602001600081526020016060815260200160008152602001600081525090565b6040518060e00160405280606081526020016060815260200160608152602001600081526020016060815260200160008152602001600081525090565b828054600181600116156101000203166002900490600052602060002090601f016020900481019282601f106157b257805160ff19168380011785556157e0565b828001600101855582156157e0579182015b828111156157df5782518255916020019190600101906157c4565b5b5090506157ed9190615a9b565b5090565b6040518060c0016040528060608152602001606081526020016060815260200160608152602001606081526020016000151581525090565b828054600181600116156101000203166002900490600052602060002090601f016020900481019282601f1061586a57805160ff1916838001178555615898565b82800160010185558215615898579182015b8281111561589757825182559160200191906001019061587c565b5b5090506158a59190615a9b565b5090565b604051806040016040528060608152602001600081525090565b6040518060c001604052806060815260200160608152602001606081526020016000815260200160608152602001606081525090565b6040518060c001604052806060815260200160608152602001606081526020016000815260200160608152602001606081525090565b6040518060a0016040528060608152602001606081526020016060815260200160608152602001606081525090565b6040518061014001604052806060815260200160608152602001606081526020016060815260200160608152602001606081526020016060815260200160608152602001606081526020016000151581525090565b6040518061014001604052806060815260200160608152602001606081526020016060815260200160608152602001606081526020016060815260200160608152602001606081526020016000151581525090565b6040518060e0016040528060608152602001606081526020016060815260200160008019168152602001600080191681526020016000151581526020016000151581525090565b6040518061012001604052806060815260200160608152602001606081526020016060815260200160608152602001606081526020016060815260200160608152602001606081525090565b615abd91905b80821115615ab9576000816000905550600101615aa1565b5090565b90565b600081519050615acf8161766a565b92915050565b600082601f830112615ae657600080fd5b8135615af9615af482617412565b6173e5565b91508082526020830160208301858383011115615b1557600080fd5b615b20838284617617565b50505092915050565b600081359050615b3881617681565b92915050565b600060208284031215615b5057600080fd5b6000615b5e84828501615ac0565b91505092915050565b600060208284031215615b7957600080fd5b600082013567ffffffffffffffff811115615b9357600080fd5b615b9f84828501615ad5565b91505092915050565b60008060408385031215615bbb57600080fd5b600083013567ffffffffffffffff811115615bd557600080fd5b615be185828601615ad5565b925050602083013567ffffffffffffffff811115615bfe57600080fd5b615c0a85828601615ad5565b9150509250929050565b600080600060608486031215615c2957600080fd5b600084013567ffffffffffffffff811115615c4357600080fd5b615c4f86828701615ad5565b935050602084013567ffffffffffffffff811115615c6c57600080fd5b615c7886828701615ad5565b925050604084013567ffffffffffffffff811115615c9557600080fd5b615ca186828701615ad5565b9150509250925092565b60008060008060808587031215615cc157600080fd5b600085013567ffffffffffffffff811115615cdb57600080fd5b615ce787828801615ad5565b945050602085013567ffffffffffffffff811115615d0457600080fd5b615d1087828801615ad5565b935050604085013567ffffffffffffffff811115615d2d57600080fd5b615d3987828801615ad5565b925050606085013567ffffffffffffffff811115615d5657600080fd5b615d6287828801615ad5565b91505092959194509250565b600080600080600060a08688031215615d8657600080fd5b600086013567ffffffffffffffff811115615da057600080fd5b615dac88828901615ad5565b955050602086013567ffffffffffffffff811115615dc957600080fd5b615dd588828901615ad5565b945050604086013567ffffffffffffffff811115615df257600080fd5b615dfe88828901615ad5565b935050606086013567ffffffffffffffff811115615e1b57600080fd5b615e2788828901615ad5565b925050608086013567ffffffffffffffff811115615e4457600080fd5b615e5088828901615ad5565b9150509295509295909350565b60008060008060008060c08789031215615e7657600080fd5b600087013567ffffffffffffffff811115615e9057600080fd5b615e9c89828a01615ad5565b965050602087013567ffffffffffffffff811115615eb957600080fd5b615ec589828a01615ad5565b955050604087013567ffffffffffffffff811115615ee257600080fd5b615eee89828a01615ad5565b945050606087013567ffffffffffffffff811115615f0b57600080fd5b615f1789828a01615ad5565b935050608087013567ffffffffffffffff811115615f3457600080fd5b615f4089828a01615ad5565b92505060a087013567ffffffffffffffff811115615f5d57600080fd5b615f6989828a01615ad5565b9150509295509295509295565b60008060008060008060008060006101208a8c031215615f9557600080fd5b60008a013567ffffffffffffffff811115615faf57600080fd5b615fbb8c828d01615ad5565b99505060208a013567ffffffffffffffff811115615fd857600080fd5b615fe48c828d01615ad5565b98505060408a013567ffffffffffffffff81111561600157600080fd5b61600d8c828d01615ad5565b97505060608a013567ffffffffffffffff81111561602a57600080fd5b6160368c828d01615ad5565b96505060808a013567ffffffffffffffff81111561605357600080fd5b61605f8c828d01615ad5565b95505060a08a013567ffffffffffffffff81111561607c57600080fd5b6160888c828d01615ad5565b94505060c08a013567ffffffffffffffff8111156160a557600080fd5b6160b18c828d01615ad5565b93505060e08a013567ffffffffffffffff8111156160ce57600080fd5b6160da8c828d01615ad5565b9250506101008a013567ffffffffffffffff8111156160f857600080fd5b6161048c828d01615ad5565b9150509295985092959850929598565b6000806000806000806000806000806101408b8d03121561613457600080fd5b60008b013567ffffffffffffffff81111561614e57600080fd5b61615a8d828e01615ad5565b9a505060208b013567ffffffffffffffff81111561617757600080fd5b6161838d828e01615ad5565b99505060408b013567ffffffffffffffff8111156161a057600080fd5b6161ac8d828e01615ad5565b98505060608b013567ffffffffffffffff8111156161c957600080fd5b6161d58d828e01615ad5565b97505060808b013567ffffffffffffffff8111156161f257600080fd5b6161fe8d828e01615ad5565b96505060a08b013567ffffffffffffffff81111561621b57600080fd5b6162278d828e01615ad5565b95505060c08b013567ffffffffffffffff81111561624457600080fd5b6162508d828e01615ad5565b94505060e08b013567ffffffffffffffff81111561626d57600080fd5b6162798d828e01615ad5565b9350506101008b013567ffffffffffffffff81111561629757600080fd5b6162a38d828e01615ad5565b9250506101208b013567ffffffffffffffff8111156162c157600080fd5b6162cd8d828e01615ad5565b9150509295989b9194979a5092959850565b60008060008060008060008060006101208a8c0312156162fe57600080fd5b60008a013567ffffffffffffffff81111561631857600080fd5b6163248c828d01615ad5565b99505060208a013567ffffffffffffffff81111561634157600080fd5b61634d8c828d01615ad5565b98505060408a013567ffffffffffffffff81111561636a57600080fd5b6163768c828d01615ad5565b97505060608a013567ffffffffffffffff81111561639357600080fd5b61639f8c828d01615ad5565b96505060808a013567ffffffffffffffff8111156163bc57600080fd5b6163c88c828d01615ad5565b95505060a08a013567ffffffffffffffff8111156163e557600080fd5b6163f18c828d01615ad5565b94505060c08a013567ffffffffffffffff81111561640e57600080fd5b61641a8c828d01615ad5565b93505060e08a013567ffffffffffffffff81111561643757600080fd5b6164438c828d01615ad5565b9250506101006164558c828d01615b29565b9150509295985092959850929598565b6000806000806080858703121561647b57600080fd5b600085013567ffffffffffffffff81111561649557600080fd5b6164a187828801615ad5565b945050602085013567ffffffffffffffff8111156164be57600080fd5b6164ca87828801615ad5565b935050604085013567ffffffffffffffff8111156164e757600080fd5b6164f387828801615ad5565b925050606061650487828801615b29565b91505092959194509250565b60008060008060008060008060008060006101608c8e03121561653257600080fd5b60008c013567ffffffffffffffff81111561654c57600080fd5b6165588e828f01615ad5565b9b505060208c013567ffffffffffffffff81111561657557600080fd5b6165818e828f01615ad5565b9a505060408c013567ffffffffffffffff81111561659e57600080fd5b6165aa8e828f01615ad5565b99505060606165bb8e828f01615b29565b98505060808c013567ffffffffffffffff8111156165d857600080fd5b6165e48e828f01615ad5565b97505060a08c013567ffffffffffffffff81111561660157600080fd5b61660d8e828f01615ad5565b96505060c08c013567ffffffffffffffff81111561662a57600080fd5b6166368e828f01615ad5565b95505060e08c013567ffffffffffffffff81111561665357600080fd5b61665f8e828f01615ad5565b9450506101006166718e828f01615b29565b9350506101208c013567ffffffffffffffff81111561668f57600080fd5b61669b8e828f01615ad5565b9250506101408c013567ffffffffffffffff8111156166b957600080fd5b6166c58e828f01615ad5565b9150509295989b509295989b9093969950565b60006166e48383616b9e565b905092915050565b60006166f88383616c43565b905092915050565b600061670c8383616e96565b905092915050565b60006167208383616f3b565b905092915050565b60006167348383617022565b905092915050565b600061674883836170cc565b905092915050565b600061675b8261749e565b616765818561754f565b9350836020820285016167778561743e565b8060005b858110156167b3578484038952815161679485826166d8565b945061679f83617501565b925060208a0199505060018101905061677b565b50829750879550505050505092915050565b60006167d0826174a9565b6167da8185617560565b9350836020820285016167ec8561744e565b8060005b85811015616828578484038952815161680985826166ec565b94506168148361750e565b925060208a019950506001810190506167f0565b50829750879550505050505092915050565b6000616845826174b4565b61684f8185617571565b9350836020820285016168618561745e565b8060005b8581101561689d578484038952815161687e8582616700565b94506168898361751b565b925060208a01995050600181019050616865565b50829750879550505050505092915050565b60006168ba826174bf565b6168c48185617582565b9350836020820285016168d68561746e565b8060005b8581101561691257848403895281516168f38582616714565b94506168fe83617528565b925060208a019950506001810190506168da565b50829750879550505050505092915050565b600061692f826174ca565b6169398185617593565b93508360208202850161694b8561747e565b8060005b8581101561698757848403895281516169688582616728565b945061697383617535565b925060208a0199505060018101905061694f565b50829750879550505050505092915050565b60006169a4826174d5565b6169ae81856175a4565b9350836020820285016169c08561748e565b8060005b858110156169fc57848403895281516169dd858261673c565b94506169e883617542565b925060208a019950506001810190506169c4565b50829750879550505050505092915050565b616a17816175ed565b82525050565b616a26816175ed565b82525050565b616a35816175f9565b82525050565b6000616a46826174e0565b616a5081856175b5565b9350616a60818560208601617626565b80840191505092915050565b616a7581617603565b82525050565b6000616a86826174f6565b616a9081856175d1565b9350616aa0818560208601617626565b616aa981617659565b840191505092915050565b6000616abf826174f6565b616ac981856175e2565b9350616ad9818560208601617626565b80840191505092915050565b6000616af0826174eb565b616afa81856175c0565b9350616b0a818560208601617626565b616b1381617659565b840191505092915050565b6000616b2b6009836175d1565b91507f4e6f7420466f756e6400000000000000000000000000000000000000000000006000830152602082019050919050565b6000616b6b6009836175d1565b91507f4e6f7420666f756e6400000000000000000000000000000000000000000000006000830152602082019050919050565b600060c0830160008301518482036000860152616bbb8282616ae5565b91505060208301518482036020860152616bd58282616ae5565b91505060408301518482036040860152616bef8282616ae5565b9150506060830151616c0460608601826171de565b5060808301518482036080860152616c1c8282616ae5565b91505060a083015184820360a0860152616c368282616ae5565b9150508091505092915050565b600060e0830160008301518482036000860152616c608282616ae5565b91505060208301518482036020860152616c7a8282616ae5565b91505060408301518482036040860152616c948282616ae5565b9150506060830151616ca960608601826171de565b5060808301518482036080860152616cc18282616ae5565b91505060a0830151616cd660a08601826171de565b5060c0830151616ce960c08601826171de565b508091505092915050565b6000610120830160008301518482036000860152616d128282616ae5565b91505060208301518482036020860152616d2c8282616ae5565b91505060408301518482036040860152616d468282616ae5565b91505060608301518482036060860152616d608282616ae5565b91505060808301518482036080860152616d7a8282616ae5565b91505060a083015184820360a0860152616d948282616ae5565b91505060c083015184820360c0860152616dae8282616ae5565b91505060e083015184820360e0860152616dc88282616ae5565b915050610100830151848203610100860152616de48282616ae5565b9150508091505092915050565b600060c0830160008301518482036000860152616e0e8282616ae5565b91505060208301518482036020860152616e288282616ae5565b91505060408301518482036040860152616e428282616ae5565b91505060608301518482036060860152616e5c8282616ae5565b91505060808301518482036080860152616e768282616ae5565b91505060a0830151616e8b60a0860182616a0e565b508091505092915050565b600060c0830160008301518482036000860152616eb38282616ae5565b91505060208301518482036020860152616ecd8282616ae5565b91505060408301518482036040860152616ee78282616ae5565b91505060608301518482036060860152616f018282616ae5565b91505060808301518482036080860152616f1b8282616ae5565b91505060a0830151616f3060a0860182616a0e565b508091505092915050565b60006040830160008301518482036000860152616f588282616ae5565b9150506020830151616f6d60208601826171de565b508091505092915050565b600060e0830160008301518482036000860152616f958282616ae5565b91505060208301518482036020860152616faf8282616ae5565b91505060408301518482036040860152616fc98282616ae5565b9150506060830151616fde6060860182616a2c565b506080830151616ff16080860182616a2c565b5060a083015161700460a0860182616a0e565b5060c083015161701760c0860182616a0e565b508091505092915050565b600060e083016000830151848203600086015261703f8282616ae5565b915050602083015184820360208601526170598282616ae5565b915050604083015184820360408601526170738282616ae5565b91505060608301516170886060860182616a2c565b50608083015161709b6080860182616a2c565b5060a08301516170ae60a0860182616a0e565b5060c08301516170c160c0860182616a0e565b508091505092915050565b60006101408301600083015184820360008601526170ea8282616ae5565b915050602083015184820360208601526171048282616ae5565b9150506040830151848203604086015261711e8282616ae5565b915050606083015184820360608601526171388282616ae5565b915050608083015184820360808601526171528282616ae5565b91505060a083015184820360a086015261716c8282616ae5565b91505060c083015184820360c08601526171868282616ae5565b91505060e083015184820360e08601526171a08282616ae5565b9150506101008301518482036101008601526171bc8282616ae5565b9150506101208301516171d3610120860182616a0e565b508091505092915050565b6171e78161760d565b82525050565b60006171f98284616a3b565b915081905092915050565b60006172108284616ab4565b915081905092915050565b600060208201905081810360008301526172358184616750565b905092915050565b6000602082019050818103600083015261725781846167c5565b905092915050565b60006020820190508181036000830152617279818461683a565b905092915050565b6000602082019050818103600083015261729b81846168af565b905092915050565b600060208201905081810360008301526172bd8184616924565b905092915050565b600060208201905081810360008301526172df8184616999565b905092915050565b60006020820190506172fc6000830184616a1d565b92915050565b60006020820190506173176000830184616a6c565b92915050565b600060208201905081810360008301526173378184616a7b565b905092915050565b6000602082019050818103600083015261735881616b1e565b9050919050565b6000602082019050818103600083015261737881616b5e565b9050919050565b600060208201905081810360008301526173998184616cf4565b905092915050565b600060208201905081810360008301526173bb8184616df1565b905092915050565b600060208201905081810360008301526173dd8184616f78565b905092915050565b6000604051905081810181811067ffffffffffffffff8211171561740857600080fd5b8060405250919050565b600067ffffffffffffffff82111561742957600080fd5b601f19601f8301169050602081019050919050565b6000819050602082019050919050565b6000819050602082019050919050565b6000819050602082019050919050565b6000819050602082019050919050565b6000819050602082019050919050565b6000819050602082019050919050565b600081519050919050565b600081519050919050565b600081519050919050565b600081519050919050565b600081519050919050565b600081519050919050565b600081519050919050565b600081519050919050565b600081519050919050565b6000602082019050919050565b6000602082019050919050565b6000602082019050919050565b6000602082019050919050565b6000602082019050919050565b6000602082019050919050565b600082825260208201905092915050565b600082825260208201905092915050565b600082825260208201905092915050565b600082825260208201905092915050565b600082825260208201905092915050565b600082825260208201905092915050565b600081905092915050565b600082825260208201905092915050565b600082825260208201905092915050565b600081905092915050565b60008115159050919050565b6000819050919050565b6000819050919050565b6000819050919050565b82818337600083830152505050565b60005b83811015617644578082015181840152602081019050617629565b83811115617653576000848401525b50505050565b6000601f19601f8301169050919050565b617673816175f9565b811461767e57600080fd5b50565b61768a8161760d565b811461769557600080fd5b5056fea365627a7a72315820029372a74e6e2e279d49fdf5e17136d511cb3b4e499147c32628350333836e936c6578706572696d656e74616cf564736f6c63430005100040",
  "source": "// SPDX-License-Identifier: MIT\r\n\r\npragma solidity >=0.5.16;\r\npragma experimental ABIEncoderV2;\r\n\r\n/*\r\nError Codes\r\n200     -       ok\r\n100     -       fail\r\n107     -       Unauthorized Access\r\n*/\r\n\r\ncontract Election {\r\n\r\n    /*--------------------------------------------------------------------------- \r\n                    Super Admin Module\r\n    -----------------------------------------------------------------------------*/\r\n    uint private numberOfSuperAdmins = 0;\r\n    bool private isDefaultAdminAdded = false;\r\n\r\n    struct superAdmin {\r\n        string name;\r\n        string emailId;\r\n        string username;\r\n        bytes32 encUsername;\r\n        bytes32 password;\r\n        bool occupied;\r\n        bool canDelete;\r\n    }\r\n\r\n    struct superAdminDetails {\r\n        string name;\r\n        string emailId;\r\n        string username;\r\n        string encUsername;\r\n        string password;\r\n    }\r\n\r\n    //store super admin details based on the hash value of encryptedUserName hash value\r\n    mapping(bytes32 => superAdmin) private superAdminHashmap;\r\n    mapping (uint=> bytes32) private superAdminsAccountDetails;\r\n    mapping(bytes32 => string) private superAdminLoginLog;\r\n\r\n    //get all details of Super admins\r\n    function getAllSuperAdminDetails(string memory encUsername) public view returns(superAdmin[] memory) {\r\n\r\n        if (isSuperAdminUsernameTaken(encUsername)) {\r\n            superAdmin[] memory allDetails = new superAdmin[](numberOfSuperAdmins);\r\n            for (uint i = 0; i < numberOfSuperAdmins; i++) {\r\n                allDetails[i] = superAdminHashmap[superAdminsAccountDetails[i]];\r\n            }\r\n            return allDetails;\r\n        } else {\r\n            superAdmin[] memory allDetails = new superAdmin[](0);\r\n            return allDetails;\r\n        }\r\n    }\r\n\r\n    //add super admin credentials into table by hashing proper credentials\r\n    function addSuperAdmin(superAdminDetails memory adminDetails, string memory adminHashCode) private{\r\n        \r\n        if (isSuperAdminUsernameTaken(adminHashCode)) {\r\n            bytes32 usernameHash = getStringHashedToBytes32(adminDetails.encUsername);\r\n            bytes32 passwordHash = getStringHashedToBytes32(adminDetails.password);\r\n            \r\n            superAdmin memory admin = superAdmin(adminDetails.name, adminDetails.emailId, adminDetails.username, usernameHash, passwordHash, true, true);\r\n\r\n            superAdminHashmap[usernameHash] = admin;\r\n            superAdminsAccountDetails[numberOfSuperAdmins] = usernameHash;\r\n\r\n            numberOfSuperAdmins += 1;\r\n        }\r\n    }\r\n\r\n    function storeSuperAdminAtPosition(superAdmin memory adminData, string memory encUsername) private {\r\n        bytes32 usernameHash = getStringHashedToBytes32(encUsername);\r\n\r\n        superAdminHashmap[usernameHash] = adminData;\r\n    }\r\n\r\n    //checks the hashmap, wheather admin details is present already\r\n    function isSuperAdminPresent(superAdmin memory adminDetails, string memory encUsername) private view returns(bool) {\r\n        bytes32 usernameHash = getStringHashedToBytes32(encUsername);\r\n\r\n        superAdmin storage admin = superAdminHashmap[usernameHash];\r\n\r\n        if (isEqual(admin.name, adminDetails.name) && isEqual(admin.emailId, adminDetails.emailId) && isEqual(admin.username, adminDetails.username) && isEqualByBytes32(admin.encUsername, adminDetails.encUsername)) {\r\n            return true;\r\n        }\r\n\r\n        return false;\r\n    }\r\n\r\n    //checks if the admin username is already taken\r\n    function isSuperAdminUsernameTaken(string memory encUsername) public view returns(bool) {\r\n        bytes32 usernameHash = getStringHashedToBytes32(encUsername);\r\n\r\n        superAdmin storage admin = superAdminHashmap[usernameHash];\r\n\r\n        if (!admin.occupied) {\r\n            return false;\r\n        }\r\n\r\n        return true;\r\n    }\r\n\r\n    //will add the details into hashmap once all the api calls are satisfied\r\n    function finallyAddSuperAdmin(string memory name, string memory emailId, string memory username, string memory encUsername, string memory password, string memory adminUsername) public {\r\n        superAdminDetails memory adminDetails = superAdminDetails(name, emailId, username, encUsername, password);\r\n        if (isSuperAdminUsernameTaken(adminUsername)) {\r\n            addSuperAdmin(adminDetails, adminUsername);\r\n        }\r\n    }\r\n\r\n    //returns data by checking the hashmap if the admin is created\r\n    function isSuperAdminAdded(string memory name, string memory emailId, string memory username, string memory encUsername, string memory password) public view returns(int) {\r\n        \r\n        bytes32 usernameHash = getStringHashedToBytes32(encUsername);\r\n        bytes32 passwordHash = getStringHashedToBytes32(password);\r\n\r\n        superAdmin memory adminDetails = superAdmin(name, emailId, username, usernameHash, passwordHash, true, true);\r\n\r\n        bool isPresent = isSuperAdminPresent(adminDetails, encUsername);\r\n\r\n        if (isPresent) {\r\n            return 200;\r\n        }\r\n        return 100;\r\n    }\r\n\r\n    function authSuperAdminEnc(string memory username) public view returns(bool) {\r\n        bytes32 usernameHash = getStringHashedToBytes32(username);\r\n\r\n        superAdmin memory authAdmin = superAdminHashmap[usernameHash];\r\n        if (authAdmin.encUsername == usernameHash) {\r\n            return true;\r\n        }\r\n        return false;\r\n    }\r\n\r\n    function authSuperAdmin(string memory username, string memory encUsername, string memory password) public view returns(bool) {\r\n        bytes32 usernameHash = getStringHashedToBytes32(encUsername);\r\n        bytes32 passwordHash = getStringHashedToBytes32(password);\r\n        \r\n        superAdmin memory authAdmin = superAdminHashmap[usernameHash];\r\n        bytes32 baseUsernameHash = getStringHashedToBytes32(authAdmin.username);\r\n        bytes32 recievedUsernameHash = getStringHashedToBytes32(username);\r\n        if (baseUsernameHash == recievedUsernameHash && authAdmin.encUsername == usernameHash && authAdmin.password == passwordHash) {\r\n            return true;\r\n        }\r\n        return false;\r\n    }\r\n\r\n    //edit super admin details as a whole, which includes Name, Email id, Password\r\n    function editSuperAdminAllDetails(string memory name, string memory emailId, string memory encUsername, string memory password) public {\r\n        bytes32 usernameHash = getStringHashedToBytes32(encUsername);\r\n        bytes32 passwordHash = getStringHashedToBytes32(password);\r\n        superAdmin memory sAdmin = superAdminHashmap[usernameHash];\r\n        sAdmin.name = name;\r\n        sAdmin.emailId = emailId;\r\n        sAdmin.password = passwordHash;\r\n\r\n        superAdminHashmap[usernameHash] = sAdmin;\r\n    }\r\n\r\n    //edit only Super Admin name\r\n    function editSuperAdminName(string memory name, string memory encUsername) public {\r\n        bytes32 usernameHash = getStringHashedToBytes32(encUsername);\r\n\r\n        superAdmin memory sAdmin = superAdminHashmap[usernameHash];\r\n        sAdmin.name = name;\r\n\r\n        storeSuperAdminAtPosition(sAdmin, encUsername);\r\n    }\r\n\r\n    //edit only Super Admin Email Id\r\n    function editSuperAdminEmailId(string memory emailId, string memory encUsername) public {\r\n        bytes32 usernameHash = getStringHashedToBytes32(encUsername);\r\n\r\n        superAdmin memory sAdmin = superAdminHashmap[usernameHash];\r\n        sAdmin.emailId = emailId;\r\n\r\n        storeSuperAdminAtPosition(sAdmin, encUsername);\r\n    }\r\n\r\n    //edit only Super Admin Password\r\n    function editSuperAdminPassword(string memory password, string memory encUsername) public {\r\n        bytes32 usernameHash = getStringHashedToBytes32(encUsername);\r\n        bytes32 passwordHash = getStringHashedToBytes32(password);\r\n\r\n        superAdmin memory sAdmin = superAdminHashmap[usernameHash];\r\n        sAdmin.password = passwordHash;\r\n\r\n        storeSuperAdminAtPosition(sAdmin, encUsername);\r\n    }\r\n\r\n    //function to get the admin details\r\n    function getSuperAdminDetails(string memory encUsername) public view returns(superAdmin memory) {\r\n        bytes32 usernameHash = getStringHashedToBytes32(encUsername);\r\n        return superAdminHashmap[usernameHash];\r\n    }\r\n\r\n    //function to create Default Super Admin\r\n    function defaultSuperAdmin(string memory name, string memory emailId, string memory username, string memory encUsername, string memory password) public {\r\n        if (!isDefaultAdminAdded) {\r\n            bytes32 usernameHash = getStringHashedToBytes32(encUsername);\r\n            bytes32 passwordHash = getStringHashedToBytes32(password);\r\n            \r\n            superAdmin memory admin = superAdmin(name, emailId, username, usernameHash, passwordHash, true, false);\r\n\r\n            superAdminHashmap[usernameHash] = admin;\r\n            isDefaultAdminAdded = true;\r\n        }\r\n    }\r\n\r\n    function modifySuperAdminLoginLog(string memory encUsername, string memory dateTime) public {\r\n        bytes32 encUsernameHash = getStringHashedToBytes32(encUsername);\r\n        superAdminLoginLog[encUsernameHash] = dateTime;\r\n    }\r\n\r\n    function getSuperAdminLoginLog(string memory encUsername) public view returns(string memory) {\r\n        bytes32 encUsernameHash = getStringHashedToBytes32(encUsername);\r\n        return superAdminLoginLog[encUsernameHash];\r\n    }\r\n\r\n    //----------------------------------------------------------------------------------------------------------------------------------------------------------------------------------\r\n\r\n    //---------------------------------------------------- Election Details ------------------------------------------------------------------------------------------------------------\r\n\r\n    struct electionDetails {\r\n        string electionId;\r\n        string electionAlias;\r\n        string year;\r\n        string date;\r\n        uint numberOfConstituency;\r\n        string typeOfConstituency;\r\n        uint index;\r\n        bool flag;\r\n        //hash value to store constituency details\r\n        mapping(uint => bytes32) constituencyStorageHash;\r\n    }\r\n\r\n    struct constituencyDetails {\r\n        string district;\r\n        string state;\r\n        string constituencyNumber;\r\n        uint numberOfVoters;\r\n        string dateOfElection;\r\n        string time;\r\n        bool flag;\r\n        //hash value to store voter's details\r\n    }\r\n\r\n    struct constituencyData {\r\n        string district;\r\n        string state;\r\n        string constituencyNumber;\r\n        uint numberOfVoters;\r\n        string dateOfElection;\r\n        string time;\r\n    }\r\n\r\n    struct electionData {\r\n        string electionAlias;\r\n        string year;\r\n        string date;\r\n        uint numberOfConsituency;\r\n        string typeOfConstituency;\r\n        uint indexSize;\r\n        uint index;\r\n    }\r\n\r\n    struct superAdminForElection {\r\n        uint index;\r\n        mapping (uint => bytes32) electionStorageHash;\r\n    }\r\n\r\n    mapping (bytes32 => superAdminForElection) adminForElection;\r\n    mapping (bytes32 => electionDetails) electionMap;\r\n    mapping (bytes32 => constituencyDetails) constituencyMap;\r\n\r\n    function createConstituencyUsingSuperAdmin(string memory username, string memory encUsername, string memory password, uint userElectionIndex, string memory constituencyId, string memory district, string memory stateName,string memory constituencyNumber, uint numberOfVoters, string memory date, string memory time) public {\r\n        if (authSuperAdmin(username, encUsername, password)) {\r\n            bytes32 adminHash = getStringHashedToBytes32(encUsername);\r\n            bytes32 constituencyIndexHash = getStringHashedToBytes32(constituencyId);\r\n\r\n            superAdminForElection storage adminElection = adminForElection[adminHash];\r\n\r\n            bytes32 electionAddress = adminElection.electionStorageHash[userElectionIndex];\r\n            electionDetails storage eDetails = electionMap[electionAddress];\r\n\r\n            uint cIndex = eDetails.index;\r\n            constituencyDetails storage cDetails = constituencyMap[constituencyIndexHash];\r\n            cDetails.district = district;\r\n            cDetails.state = stateName;\r\n            cDetails.constituencyNumber = constituencyNumber;\r\n            cDetails.numberOfVoters = numberOfVoters;\r\n            cDetails.dateOfElection = date;\r\n            cDetails.time = time;\r\n            cDetails.flag = true;\r\n\r\n            eDetails.constituencyStorageHash[cIndex] = constituencyIndexHash;\r\n            eDetails.index += 1;\r\n        }\r\n    }\r\n\r\n    function createElectionUsingSuperAdmin(string memory username, string memory encUsername, string memory password, string memory electionId ,string memory electionAlias, string memory year, string memory typeOfElection, string memory date, uint numberOfConstituencyT) public {\r\n        if (authSuperAdmin(username, encUsername, password)) {\r\n            bytes32 adminHashValue = getStringHashedToBytes32(encUsername);\r\n            bytes32 electionIdHashValue = getStringHashedToBytes32(electionId);\r\n            \r\n            electionDetails storage eDetails = electionMap[electionIdHashValue];\r\n            eDetails.electionId = electionId;\r\n            eDetails.electionAlias = electionAlias;\r\n            eDetails.year = year;\r\n            eDetails.date = date;\r\n            eDetails.typeOfConstituency = typeOfElection;\r\n            eDetails.numberOfConstituency = numberOfConstituencyT;\r\n            eDetails.flag = true;\r\n\r\n            superAdminForElection storage adminElection = adminForElection[adminHashValue];\r\n            uint electionIndex = adminElection.index;\r\n            adminElection.electionStorageHash[electionIndex] = electionIdHashValue;\r\n            adminElection.index += 1;\r\n        }\r\n    }\r\n\r\n    /*function createConstituencyUsingSuperAdmin(string memory username, string memory encUsername, string memory password, string memory electionId, string memory constituencyId,string memory district, string memory state, string memory constituencyNumber, uint numberOfVoters, string memory date, string memory time) public {\r\n        if (authSuperAdmin(username, encUsername, password)) {\r\n            bytes32 electionIndexHash = getStringHashedToBytes32(electionId);\r\n            bytes32 constituencyIndexHash = getStringHashedToBytes32(constituencyId);\r\n\r\n            electionDetails storage eDetails = electionMap[electionIndexHash];\r\n            uint cIndex = eDetails.index;\r\n            constituencyDetails storage cDetails = constituencyMap[constituencyIndexHash];\r\n            cDetails.district = district;\r\n            cDetails.state = state;\r\n            cDetails.constituencyNumber = constituencyNumber;\r\n            cDetails.numberOfVoters = numberOfVoters;\r\n            cDetails.dateOfElection = date;\r\n            cDetails.time = time;\r\n            cDetails.flag = true;\r\n\r\n            eDetails.constituencyStorageHash[cIndex] = constituencyIndexHash;\r\n            eDetails.index += 1;\r\n        }\r\n    }*/\r\n\r\n    function getAllElectionData(string memory username, string memory encUsername, string memory password) public view returns(electionData[] memory) {\r\n        if (authSuperAdmin(username, encUsername, password)) {\r\n            bytes32 usernameHash = getStringHashedToBytes32(encUsername);\r\n\r\n            superAdminForElection storage adminElection = adminForElection[usernameHash];\r\n            uint adminIndex = adminElection.index;\r\n            electionData[] memory eData = new electionData[](adminIndex);\r\n\r\n            for (uint i = 0; i < adminIndex; i++) {\r\n                bytes32 electionAddress = adminElection.electionStorageHash[i];\r\n                electionDetails storage eDetails = electionMap[electionAddress];\r\n                string memory electionAlias = eDetails.electionAlias;\r\n                string memory year = eDetails.year;\r\n                string memory date = eDetails.date;\r\n                uint numberOfConsituency = eDetails.numberOfConstituency;\r\n                string memory typeOfConstituency = eDetails.typeOfConstituency;\r\n                uint size = eDetails.index;\r\n\r\n                electionData memory data = electionData(electionAlias, year, date, numberOfConsituency, typeOfConstituency, size, i);\r\n                eData[i] = data;\r\n            }\r\n            return eData;\r\n        } else {\r\n            electionData[] memory eData = new electionData[](0);\r\n            return eData;\r\n        }\r\n    }\r\n\r\n    function getConstituentDetails(string memory username, string memory encUsername, string memory password, uint electionIndex) public view returns(constituencyData[] memory) {\r\n        if (authSuperAdmin(username, encUsername, password)) {\r\n            bytes32 adminHashValue = getStringHashedToBytes32(encUsername);\r\n            \r\n            superAdminForElection storage adminElection = adminForElection[adminHashValue];\r\n            bytes32 electionAddress = adminElection.electionStorageHash[electionIndex];\r\n\r\n            electionDetails storage eDetails = electionMap[electionAddress];\r\n            uint size = eDetails.index;\r\n\r\n            constituencyData[] memory cData = new constituencyData[](size);\r\n\r\n            for (uint i = 0; i < size; i++) {\r\n                bytes32 constituencyAddress = eDetails.constituencyStorageHash[i];\r\n                constituencyDetails storage cDetails = constituencyMap[constituencyAddress];\r\n\r\n                string memory district = cDetails.district;\r\n                string memory stateName = cDetails.state;\r\n                string memory constituencyNumber = cDetails.constituencyNumber;\r\n                uint numberOfVoters = cDetails.numberOfVoters;\r\n                string memory dateOfElection = cDetails.dateOfElection;\r\n                string memory time = cDetails.time;\r\n\r\n                constituencyData memory data = constituencyData(district, stateName, constituencyNumber, numberOfVoters, dateOfElection, time);\r\n                cData[i] = data;\r\n            }\r\n\r\n            return cData;\r\n        } else {\r\n            constituencyData[] memory cData = new constituencyData[](0);\r\n            return cData;\r\n        }\r\n    }\r\n\r\n    function isElectionProvidedUnderAdmin(string memory encUsername, string memory electionId, uint electionIndex) private view returns(bool) {\r\n        bytes32 usernameHash = getStringHashedToBytes32(encUsername);\r\n\r\n        superAdminForElection storage adminElection = adminForElection[usernameHash];\r\n        bytes32 electionDataAddress = adminElection.electionStorageHash[electionIndex];\r\n\r\n        electionDetails storage adminElectionDetails = electionMap[electionDataAddress];\r\n        string memory adminElectionId = adminElectionDetails.electionId;\r\n\r\n        if (isEqual(adminElectionId, electionId)) {\r\n            return true;\r\n        }\r\n        return false;\r\n    }\r\n\r\n    //----------------------------------------------------------------------------------------------------------------------------------------------------------------------------------\r\n\r\n    struct stateDetails {\r\n        string constitutionId;\r\n        string state;\r\n        string district;\r\n        string constitutionName;\r\n        string taluk;\r\n        bool occupied;\r\n    }\r\n\r\n    struct stateInfo {\r\n        string stateName;\r\n        uint index;\r\n    }\r\n\r\n    struct state {\r\n        bool occupied;\r\n        string stateName;\r\n        uint statesCount;\r\n        mapping (uint => string) details;\r\n    }\r\n\r\n    uint numberOfStates = 0;\r\n    uint numberOfConstituency = 0;\r\n\r\n    mapping (uint => string) stateLocationHash;\r\n    mapping (string => state) stateList;\r\n    mapping (string => stateDetails) constituencyTable;\r\n\r\n    function addConstituencyData(string memory username, string memory encUsername, string memory password, string memory stateId, string memory stateName, string memory constituencyId, string memory district, string memory constitutionName, string memory taluk) public {\r\n        if (authSuperAdmin(username, encUsername, password) && !constituencyTable[constituencyId].occupied) {\r\n            state storage stateData = stateList[stateId];\r\n            if (!stateData.occupied) {\r\n                stateLocationHash[numberOfStates] = stateId;\r\n                stateData.occupied = true;\r\n                numberOfStates += 1;\r\n            }\r\n            stateData.stateName = stateName;\r\n            uint index = stateData.statesCount;\r\n            stateDetails memory details = stateDetails(constituencyId, stateName, district, constitutionName, taluk, true);\r\n            stateData.details[index] = constituencyId;\r\n            constituencyTable[constituencyId] = details;\r\n            stateData.statesCount += 1;\r\n            numberOfConstituency += 1;\r\n        }\r\n    }\r\n\r\n    function isConstituencyIdOccupied(string memory username, string memory encUsername, string memory password, string memory constituencyId) public view returns(bool) {\r\n        if (authSuperAdmin(username, encUsername, password)) {\r\n            stateDetails memory details = constituencyTable[constituencyId];\r\n            return details.occupied;\r\n        } else {\r\n            return false;\r\n        }\r\n    }\r\n\r\n    function getStateList(string memory username, string memory encUsername, string memory password) public view returns(stateInfo[] memory) {\r\n        if (authSuperAdmin(username, encUsername, password)) {\r\n            stateInfo[] memory stateArray = new stateInfo[](numberOfStates);\r\n            for (uint i = 0; i < numberOfStates; i++) {\r\n                string memory stateLocationAddress = stateLocationHash[i];\r\n                state storage stateData = stateList[stateLocationAddress];\r\n                stateArray[i].stateName = stateData.stateName;\r\n                stateArray[i].index = i;\r\n            }\r\n            return stateArray;\r\n        } else {\r\n            stateInfo[] memory data = new stateInfo[](0);\r\n            return data;\r\n        }\r\n    }\r\n\r\n    function getCorresspondingStateList(string memory username, string memory encUsername, string memory password, uint index) public view returns(stateDetails[] memory) {\r\n        if (authSuperAdmin(username, encUsername, password)) {\r\n            string memory stateAddress = stateLocationHash[index];\r\n            state storage stateData = stateList[stateAddress];\r\n            uint size = stateData.statesCount;\r\n            stateDetails[] memory stateArray = new stateDetails[](size);\r\n            for (uint i = 0; i < size; i++) {\r\n                string memory id = stateData.details[i];\r\n                stateArray[i] = constituencyTable[id];\r\n            }\r\n            return stateArray;\r\n        } else {\r\n            stateDetails[] memory data = new stateDetails[](0);\r\n            return data;\r\n        }\r\n    }\r\n\r\n    function getCorrespondingConstituencyDetail(string memory username, string memory encUsername, string memory password, string memory constituencyId) public view returns(stateDetails memory) {\r\n        if (authSuperAdmin(username, encUsername, password)) {\r\n            return constituencyTable[constituencyId];\r\n        }\r\n        revert(\"Not Found\");\r\n    }\r\n\r\n    //----------------------------------------------------------------------------------------------------------------------------------------------------------------------------------\r\n    \r\n    struct voter {\r\n        string aadharNumber;\r\n        string password;\r\n        string voterId;\r\n        string name;\r\n        string dateOfBirth;\r\n        string constituencyId;\r\n        string contactNumber;\r\n        string emailAddress;\r\n        string residentialAddress;\r\n        bool occupied;\r\n    }\r\n\r\n    struct individualVoterData {\r\n        string aadharNumber;\r\n        string voterId;\r\n        string name;\r\n        string dateOfBirth;\r\n        string state;\r\n        string district;\r\n        string taluk;\r\n        string constituencyId;\r\n        string residentialAddress;\r\n    }\r\n\r\n    struct constituencyVoters {\r\n        uint numberOfVoters;\r\n        mapping (uint => string) voter;\r\n    }\r\n\r\n    mapping(string => constituencyVoters) votersList;\r\n    mapping(string => voter) votersTable;\r\n\r\n    function addVoterDetails(string memory encUsername, string memory aadharNumber, string memory password, string memory voterId, string memory name, string memory dateOfBirth, string memory constituencyId, string memory contactNumber, string memory emailAddress, string memory residentialAddress) public {\r\n        if (authSuperAdminEnc(encUsername)) {\r\n            voter memory voterData = voter(aadharNumber, password, voterId, name, dateOfBirth, constituencyId, contactNumber, emailAddress, residentialAddress, true);\r\n            votersTable[voterId] = voterData;\r\n            constituencyVoters storage list = votersList[constituencyId];\r\n            uint size = list.numberOfVoters;\r\n            list.voter[size] = voterId;\r\n            list.numberOfVoters += 1;\r\n        }\r\n    }\r\n\r\n    function getIndividualVoterDetail(string memory username, string memory encUsername, string memory password, string memory voterId) public view returns(individualVoterData memory) {\r\n        if (authSuperAdmin(username, encUsername, password) && votersTable[voterId].occupied) {\r\n            voter memory voterData = votersTable[voterId];\r\n            string memory aadharNumber = voterData.aadharNumber;\r\n            string memory name = voterData.name;\r\n            string memory dateOfBirth = voterData.dateOfBirth;\r\n            \r\n            string memory constituencyId = voterData.constituencyId;\r\n            stateDetails memory stateData = constituencyTable[constituencyId];\r\n\r\n            string memory stateName = stateData.state;\r\n            string memory district = stateData.district;\r\n            string memory taluk = stateData.taluk;\r\n            string memory residentialAddress = voterData.residentialAddress;\r\n\r\n            individualVoterData memory data = individualVoterData(aadharNumber, voterId, name, dateOfBirth, stateName, district, taluk, constituencyId, residentialAddress);\r\n            return data;\r\n        }\r\n        revert(\"Not found\");\r\n    }\r\n\r\n    function getConstituencyVotersList(string memory username, string memory encUsername, string memory password, string memory constituencyId) public view returns(voter[] memory) {\r\n        if (authSuperAdmin(username, encUsername, password)) {\r\n            constituencyVoters storage list = votersList[constituencyId];\r\n            uint size = list.numberOfVoters;\r\n\r\n            voter[] memory voters = new voter[](size);\r\n\r\n            for (uint i = 0; i < size; i++) {\r\n                string memory voterId = list.voter[i];\r\n                voter memory details = votersTable[voterId]; \r\n                voters[i] = details;\r\n            }\r\n            return voters;\r\n        }\r\n        revert();\r\n    }\r\n\r\n    //----------------------------------------------------------------------------------------------------------------------------------------------------------------------------------\r\n\r\n    function getStringHashedToBytes32(string memory toBeHashedString) private pure returns(bytes32) {\r\n        return sha256(abi.encodePacked(toBeHashedString));\r\n    }\r\n\r\n    function isEqual(string memory input1, string memory input2) private pure returns(bool) {\r\n        return (getStringHashedToBytes32(input1) == getStringHashedToBytes32(input2));\r\n    }\r\n\r\n    function isEqualByBytes32(bytes32 input1, bytes32 input2) private pure returns(bool) {\r\n        return (input1 == input2);\r\n    }\r\n\r\n}",
  "sourcePath": "C:\\Users\\Hp\\Documents\\bc-capstone\\contracts\\Election.sol",
  "compiler": {
    "name": "solc",
    "version": "0.5.16+commit.9c3226ce.Emscripten.clang"
  },
  "schemaVersion": "3.4.2",
  "updatedAt": "2021-10-07T15:58:16.151Z",
  "devdoc": {
    "methods": {}
  },
  "userdoc": {
    "methods": {}
  }
}