{
  "contractName": "Election",
  "abi": [
    {
      "constant": true,
      "inputs": [
        {
          "internalType": "string",
          "name": "encUsername",
          "type": "string"
        }
      ],
      "name": "getAllSuperAdminDetails",
      "outputs": [
        {
          "components": [
            {
              "internalType": "string",
              "name": "name",
              "type": "string"
            },
            {
              "internalType": "string",
              "name": "emailId",
              "type": "string"
            },
            {
              "internalType": "string",
              "name": "username",
              "type": "string"
            },
            {
              "internalType": "bytes32",
              "name": "encUsername",
              "type": "bytes32"
            },
            {
              "internalType": "bytes32",
              "name": "password",
              "type": "bytes32"
            },
            {
              "internalType": "bool",
              "name": "occupied",
              "type": "bool"
            },
            {
              "internalType": "bool",
              "name": "canDelete",
              "type": "bool"
            }
          ],
          "internalType": "struct Election.superAdmin[]",
          "name": "",
          "type": "tuple[]"
        }
      ],
      "payable": false,
      "stateMutability": "view",
      "type": "function"
    },
    {
      "constant": true,
      "inputs": [
        {
          "internalType": "string",
          "name": "encUsername",
          "type": "string"
        }
      ],
      "name": "isSuperAdminUsernameTaken",
      "outputs": [
        {
          "internalType": "bool",
          "name": "",
          "type": "bool"
        }
      ],
      "payable": false,
      "stateMutability": "view",
      "type": "function"
    },
    {
      "constant": false,
      "inputs": [
        {
          "internalType": "string",
          "name": "name",
          "type": "string"
        },
        {
          "internalType": "string",
          "name": "emailId",
          "type": "string"
        },
        {
          "internalType": "string",
          "name": "username",
          "type": "string"
        },
        {
          "internalType": "string",
          "name": "encUsername",
          "type": "string"
        },
        {
          "internalType": "string",
          "name": "password",
          "type": "string"
        },
        {
          "internalType": "string",
          "name": "adminUsername",
          "type": "string"
        }
      ],
      "name": "finallyAddSuperAdmin",
      "outputs": [],
      "payable": false,
      "stateMutability": "nonpayable",
      "type": "function"
    },
    {
      "constant": true,
      "inputs": [
        {
          "internalType": "string",
          "name": "name",
          "type": "string"
        },
        {
          "internalType": "string",
          "name": "emailId",
          "type": "string"
        },
        {
          "internalType": "string",
          "name": "username",
          "type": "string"
        },
        {
          "internalType": "string",
          "name": "encUsername",
          "type": "string"
        },
        {
          "internalType": "string",
          "name": "password",
          "type": "string"
        }
      ],
      "name": "isSuperAdminAdded",
      "outputs": [
        {
          "internalType": "int256",
          "name": "",
          "type": "int256"
        }
      ],
      "payable": false,
      "stateMutability": "view",
      "type": "function"
    },
    {
      "constant": true,
      "inputs": [
        {
          "internalType": "string",
          "name": "username",
          "type": "string"
        },
        {
          "internalType": "string",
          "name": "encUsername",
          "type": "string"
        },
        {
          "internalType": "string",
          "name": "password",
          "type": "string"
        }
      ],
      "name": "authSuperAdmin",
      "outputs": [
        {
          "internalType": "bool",
          "name": "",
          "type": "bool"
        }
      ],
      "payable": false,
      "stateMutability": "view",
      "type": "function"
    },
    {
      "constant": false,
      "inputs": [
        {
          "internalType": "string",
          "name": "name",
          "type": "string"
        },
        {
          "internalType": "string",
          "name": "emailId",
          "type": "string"
        },
        {
          "internalType": "string",
          "name": "encUsername",
          "type": "string"
        },
        {
          "internalType": "string",
          "name": "password",
          "type": "string"
        }
      ],
      "name": "editSuperAdminAllDetails",
      "outputs": [],
      "payable": false,
      "stateMutability": "nonpayable",
      "type": "function"
    },
    {
      "constant": false,
      "inputs": [
        {
          "internalType": "string",
          "name": "name",
          "type": "string"
        },
        {
          "internalType": "string",
          "name": "encUsername",
          "type": "string"
        }
      ],
      "name": "editSuperAdminName",
      "outputs": [],
      "payable": false,
      "stateMutability": "nonpayable",
      "type": "function"
    },
    {
      "constant": false,
      "inputs": [
        {
          "internalType": "string",
          "name": "emailId",
          "type": "string"
        },
        {
          "internalType": "string",
          "name": "encUsername",
          "type": "string"
        }
      ],
      "name": "editSuperAdminEmailId",
      "outputs": [],
      "payable": false,
      "stateMutability": "nonpayable",
      "type": "function"
    },
    {
      "constant": false,
      "inputs": [
        {
          "internalType": "string",
          "name": "password",
          "type": "string"
        },
        {
          "internalType": "string",
          "name": "encUsername",
          "type": "string"
        }
      ],
      "name": "editSuperAdminPassword",
      "outputs": [],
      "payable": false,
      "stateMutability": "nonpayable",
      "type": "function"
    },
    {
      "constant": true,
      "inputs": [
        {
          "internalType": "string",
          "name": "encUsername",
          "type": "string"
        }
      ],
      "name": "getSuperAdminDetails",
      "outputs": [
        {
          "components": [
            {
              "internalType": "string",
              "name": "name",
              "type": "string"
            },
            {
              "internalType": "string",
              "name": "emailId",
              "type": "string"
            },
            {
              "internalType": "string",
              "name": "username",
              "type": "string"
            },
            {
              "internalType": "bytes32",
              "name": "encUsername",
              "type": "bytes32"
            },
            {
              "internalType": "bytes32",
              "name": "password",
              "type": "bytes32"
            },
            {
              "internalType": "bool",
              "name": "occupied",
              "type": "bool"
            },
            {
              "internalType": "bool",
              "name": "canDelete",
              "type": "bool"
            }
          ],
          "internalType": "struct Election.superAdmin",
          "name": "",
          "type": "tuple"
        }
      ],
      "payable": false,
      "stateMutability": "view",
      "type": "function"
    },
    {
      "constant": false,
      "inputs": [
        {
          "internalType": "string",
          "name": "name",
          "type": "string"
        },
        {
          "internalType": "string",
          "name": "emailId",
          "type": "string"
        },
        {
          "internalType": "string",
          "name": "username",
          "type": "string"
        },
        {
          "internalType": "string",
          "name": "encUsername",
          "type": "string"
        },
        {
          "internalType": "string",
          "name": "password",
          "type": "string"
        }
      ],
      "name": "defaultSuperAdmin",
      "outputs": [],
      "payable": false,
      "stateMutability": "nonpayable",
      "type": "function"
    },
    {
      "constant": false,
      "inputs": [
        {
          "internalType": "string",
          "name": "encUsername",
          "type": "string"
        },
        {
          "internalType": "string",
          "name": "dateTime",
          "type": "string"
        }
      ],
      "name": "modifySuperAdminLoginLog",
      "outputs": [],
      "payable": false,
      "stateMutability": "nonpayable",
      "type": "function"
    },
    {
      "constant": true,
      "inputs": [
        {
          "internalType": "string",
          "name": "encUsername",
          "type": "string"
        }
      ],
      "name": "getSuperAdminLoginLog",
      "outputs": [
        {
          "internalType": "string",
          "name": "",
          "type": "string"
        }
      ],
      "payable": false,
      "stateMutability": "view",
      "type": "function"
    },
    {
      "constant": false,
      "inputs": [
        {
          "internalType": "string",
          "name": "username",
          "type": "string"
        },
        {
          "internalType": "string",
          "name": "encUsername",
          "type": "string"
        },
        {
          "internalType": "string",
          "name": "password",
          "type": "string"
        },
        {
          "internalType": "uint256",
          "name": "userElectionIndex",
          "type": "uint256"
        },
        {
          "internalType": "string",
          "name": "constituencyId",
          "type": "string"
        },
        {
          "internalType": "string",
          "name": "district",
          "type": "string"
        },
        {
          "internalType": "string",
          "name": "state",
          "type": "string"
        },
        {
          "internalType": "string",
          "name": "constituencyNumber",
          "type": "string"
        },
        {
          "internalType": "uint256",
          "name": "numberOfVoters",
          "type": "uint256"
        },
        {
          "internalType": "string",
          "name": "date",
          "type": "string"
        },
        {
          "internalType": "string",
          "name": "time",
          "type": "string"
        }
      ],
      "name": "createConstituencyUsingSuperAdmin",
      "outputs": [],
      "payable": false,
      "stateMutability": "nonpayable",
      "type": "function"
    },
    {
      "constant": false,
      "inputs": [
        {
          "internalType": "string",
          "name": "username",
          "type": "string"
        },
        {
          "internalType": "string",
          "name": "encUsername",
          "type": "string"
        },
        {
          "internalType": "string",
          "name": "password",
          "type": "string"
        },
        {
          "internalType": "string",
          "name": "electionId",
          "type": "string"
        },
        {
          "internalType": "string",
          "name": "electionAlias",
          "type": "string"
        },
        {
          "internalType": "string",
          "name": "year",
          "type": "string"
        },
        {
          "internalType": "string",
          "name": "typeOfElection",
          "type": "string"
        },
        {
          "internalType": "string",
          "name": "date",
          "type": "string"
        },
        {
          "internalType": "uint256",
          "name": "numberOfConstituency",
          "type": "uint256"
        }
      ],
      "name": "createElectionUsingSuperAdmin",
      "outputs": [],
      "payable": false,
      "stateMutability": "nonpayable",
      "type": "function"
    },
    {
      "constant": true,
      "inputs": [
        {
          "internalType": "string",
          "name": "username",
          "type": "string"
        },
        {
          "internalType": "string",
          "name": "encUsername",
          "type": "string"
        },
        {
          "internalType": "string",
          "name": "password",
          "type": "string"
        }
      ],
      "name": "getAllElectionData",
      "outputs": [
        {
          "components": [
            {
              "internalType": "string",
              "name": "electionAlias",
              "type": "string"
            },
            {
              "internalType": "string",
              "name": "year",
              "type": "string"
            },
            {
              "internalType": "string",
              "name": "date",
              "type": "string"
            },
            {
              "internalType": "uint256",
              "name": "numberOfConsituency",
              "type": "uint256"
            },
            {
              "internalType": "string",
              "name": "typeOfConstituency",
              "type": "string"
            },
            {
              "internalType": "uint256",
              "name": "indexSize",
              "type": "uint256"
            },
            {
              "internalType": "uint256",
              "name": "index",
              "type": "uint256"
            }
          ],
          "internalType": "struct Election.electionData[]",
          "name": "",
          "type": "tuple[]"
        }
      ],
      "payable": false,
      "stateMutability": "view",
      "type": "function"
    },
    {
      "constant": true,
      "inputs": [
        {
          "internalType": "string",
          "name": "username",
          "type": "string"
        },
        {
          "internalType": "string",
          "name": "encUsername",
          "type": "string"
        },
        {
          "internalType": "string",
          "name": "password",
          "type": "string"
        },
        {
          "internalType": "uint256",
          "name": "electionIndex",
          "type": "uint256"
        }
      ],
      "name": "getConstituentDetails",
      "outputs": [
        {
          "components": [
            {
              "internalType": "string",
              "name": "district",
              "type": "string"
            },
            {
              "internalType": "string",
              "name": "state",
              "type": "string"
            },
            {
              "internalType": "string",
              "name": "constituencyNumber",
              "type": "string"
            },
            {
              "internalType": "uint256",
              "name": "numberOfVoters",
              "type": "uint256"
            },
            {
              "internalType": "string",
              "name": "dateOfElection",
              "type": "string"
            },
            {
              "internalType": "string",
              "name": "time",
              "type": "string"
            }
          ],
          "internalType": "struct Election.constituencyData[]",
          "name": "",
          "type": "tuple[]"
        }
      ],
      "payable": false,
      "stateMutability": "view",
      "type": "function"
    },
    {
      "constant": false,
      "inputs": [
        {
          "internalType": "string",
          "name": "username",
          "type": "string"
        },
        {
          "internalType": "string",
          "name": "encUsername",
          "type": "string"
        },
        {
          "internalType": "string",
          "name": "password",
          "type": "string"
        },
        {
          "internalType": "string",
          "name": "stateId",
          "type": "string"
        },
        {
          "internalType": "string",
          "name": "stateName",
          "type": "string"
        },
        {
          "internalType": "string",
          "name": "constituencyId",
          "type": "string"
        },
        {
          "internalType": "string",
          "name": "district",
          "type": "string"
        },
        {
          "internalType": "string",
          "name": "constitutionName",
          "type": "string"
        },
        {
          "internalType": "string",
          "name": "taluk",
          "type": "string"
        }
      ],
      "name": "addConstituencyData",
      "outputs": [],
      "payable": false,
      "stateMutability": "nonpayable",
      "type": "function"
    },
    {
      "constant": true,
      "inputs": [
        {
          "internalType": "string",
          "name": "username",
          "type": "string"
        },
        {
          "internalType": "string",
          "name": "encUsername",
          "type": "string"
        },
        {
          "internalType": "string",
          "name": "password",
          "type": "string"
        }
      ],
      "name": "getStateList",
      "outputs": [
        {
          "components": [
            {
              "internalType": "string",
              "name": "stateName",
              "type": "string"
            },
            {
              "internalType": "uint256",
              "name": "index",
              "type": "uint256"
            }
          ],
          "internalType": "struct Election.stateInfo[]",
          "name": "",
          "type": "tuple[]"
        }
      ],
      "payable": false,
      "stateMutability": "view",
      "type": "function"
    },
    {
      "constant": true,
      "inputs": [
        {
          "internalType": "string",
          "name": "username",
          "type": "string"
        },
        {
          "internalType": "string",
          "name": "encUsername",
          "type": "string"
        },
        {
          "internalType": "string",
          "name": "password",
          "type": "string"
        },
        {
          "internalType": "uint256",
          "name": "index",
          "type": "uint256"
        }
      ],
      "name": "getCorresspondingStateList",
      "outputs": [
        {
          "components": [
            {
              "internalType": "string",
              "name": "constitutionId",
              "type": "string"
            },
            {
              "internalType": "string",
              "name": "state",
              "type": "string"
            },
            {
              "internalType": "string",
              "name": "district",
              "type": "string"
            },
            {
              "internalType": "string",
              "name": "constitutionName",
              "type": "string"
            },
            {
              "internalType": "string",
              "name": "taluk",
              "type": "string"
            }
          ],
          "internalType": "struct Election.stateDetails[]",
          "name": "",
          "type": "tuple[]"
        }
      ],
      "payable": false,
      "stateMutability": "view",
      "type": "function"
    }
  ],
  "bytecode": "0x6080604052600080556000600160006101000a81548160ff021916908315150217905550600060085534801561003457600080fd5b50614e22806100446000396000f3fe608060405234801561001057600080fd5b506004361061012c5760003560e01c8063772a6a0d116100ad578063cd2e5bb711610071578063cd2e5bb714610375578063db463d6814610391578063dc20ca41146103c1578063e7fbdd53146103f1578063ef8837071461040d5761012c565b8063772a6a0d146102c15780638d25a02f146102dd57806391515238146102f9578063afe2503b14610329578063bf7cf927146103455761012c565b80632a6a6acb116100f45780632a6a6acb1461020d5780633b8002f11461022957806345e687a914610259578063517f6117146102895780635513c9bb146102a55761012c565b806307b65cf3146101315780630f2910dc146101615780631319f305146101915780631343765f146101c15780632702982e146101f1575b600080fd5b61014b6004803603610146919081019061405b565b610429565b6040516101589190614a85565b60405180910390f35b61017b60048036036101769190810190613928565b61092b565b6040516101889190614b21565b60405180910390f35b6101ab60048036036101a691908101906139d5565b6109ee565b6040516101b89190614aeb565b60405180910390f35b6101db60048036036101d691908101906139d5565b610cc4565b6040516101e89190614a63565b60405180910390f35b61020b60048036036102069190810190613d37565b6110db565b005b61022760048036036102229190810190613a6c565b61129b565b005b610243600480360361023e91908101906139d5565b6115f4565b6040516102509190614aa7565b60405180910390f35b610273600480360361026e919081019061405b565b611863565b6040516102809190614a41565b60405180910390f35b6102a3600480360361029e9190810190613b2f565b611d40565b005b6102bf60048036036102ba9190810190613969565b611e98565b005b6102db60048036036102d69190810190613c1e565b612125565b005b6102f760048036036102f29190810190613ed5565b612178565b005b610313600480360361030e9190810190613928565b6122ba565b6040516103209190614b43565b60405180910390f35b610343600480360361033e9190810190613969565b612525565b005b61035f600480360361035a9190810190613928565b6127a3565b60405161036c9190614ac9565b60405180910390f35b61038f600480360361038a9190810190613969565b612add565b005b6103ab60048036036103a69190810190613b2f565b612d5b565b6040516103b89190614b06565b60405180910390f35b6103db60048036036103d69190810190613928565b612dec565b6040516103e89190614aeb565b60405180910390f35b61040b60048036036104069190810190613969565b612e3e565b005b61042760048036036104229190810190614106565b612e78565b005b60606104368585856109ee565b156108de576060600960008481526020019081526020016000208054600181600116156101000203166002900480601f0160208091040260200160405190810160405280929190818152602001828054600181600116156101000203166002900480156104e45780601f106104b9576101008083540402835291602001916104e4565b820191906000526020600020905b8154815290600101906020018083116104c757829003601f168201915b505050505090506000600a826040516104fd9190614a2a565b9081526020016040518091039020905060008160020154905060608160405190808252806020026020018201604052801561055257816020015b61053f613541565b8152602001906001900390816105375790505b50905060008090505b828110156108d1578360030160008281526020019081526020016000206040518060a0016040529081600082018054600181600116156101000203166002900480601f01602080910402602001604051908101604052809291908181526020018280546001816001161561010002031660029004801561061c5780601f106105f15761010080835404028352916020019161061c565b820191906000526020600020905b8154815290600101906020018083116105ff57829003601f168201915b50505050508152602001600182018054600181600116156101000203166002900480601f0160208091040260200160405190810160405280929190818152602001828054600181600116156101000203166002900480156106be5780601f10610693576101008083540402835291602001916106be565b820191906000526020600020905b8154815290600101906020018083116106a157829003601f168201915b50505050508152602001600282018054600181600116156101000203166002900480601f0160208091040260200160405190810160405280929190818152602001828054600181600116156101000203166002900480156107605780601f1061073557610100808354040283529160200191610760565b820191906000526020600020905b81548152906001019060200180831161074357829003601f168201915b50505050508152602001600382018054600181600116156101000203166002900480601f0160208091040260200160405190810160405280929190818152602001828054600181600116156101000203166002900480156108025780601f106107d757610100808354040283529160200191610802565b820191906000526020600020905b8154815290600101906020018083116107e557829003601f168201915b50505050508152602001600482018054600181600116156101000203166002900480601f0160208091040260200160405190810160405280929190818152602001828054600181600116156101000203166002900480156108a45780601f10610879576101008083540402835291602001916108a4565b820191906000526020600020905b81548152906001019060200180831161088757829003601f168201915b5050505050815250508282815181106108b957fe5b6020026020010181905250808060010191505061055b565b5080945050505050610923565b6060600060405190808252806020026020018201604052801561091b57816020015b610908613541565b8152602001906001900390816109005790505b509050809150505b949350505050565b6060600061093883612fef565b9050600460008281526020019081526020016000208054600181600116156101000203166002900480601f0160208091040260200160405190810160405280929190818152602001828054600181600116156101000203166002900480156109e15780601f106109b6576101008083540402835291602001916109e1565b820191906000526020600020905b8154815290600101906020018083116109c457829003601f168201915b5050505050915050919050565b6000806109fa84612fef565b90506000610a0784612fef565b9050610a11613570565b600260008481526020019081526020016000206040518060e0016040529081600082018054600181600116156101000203166002900480601f016020809104026020016040519081016040528092919081815260200182805460018160011615610100020316600290048015610ac85780601f10610a9d57610100808354040283529160200191610ac8565b820191906000526020600020905b815481529060010190602001808311610aab57829003601f168201915b50505050508152602001600182018054600181600116156101000203166002900480601f016020809104026020016040519081016040528092919081815260200182805460018160011615610100020316600290048015610b6a5780601f10610b3f57610100808354040283529160200191610b6a565b820191906000526020600020905b815481529060010190602001808311610b4d57829003601f168201915b50505050508152602001600282018054600181600116156101000203166002900480601f016020809104026020016040519081016040528092919081815260200182805460018160011615610100020316600290048015610c0c5780601f10610be157610100808354040283529160200191610c0c565b820191906000526020600020905b815481529060010190602001808311610bef57829003601f168201915b5050505050815260200160038201548152602001600482015481526020016005820160009054906101000a900460ff161515151581526020016005820160019054906101000a900460ff16151515158152505090506000610c708260400151612fef565b90506000610c7d89612fef565b90508082148015610c915750848360600151145b8015610ca05750838360800151145b15610cb357600195505050505050610cbd565b6000955050505050505b9392505050565b6060610cd18484846109ee565b1561108f576000610ce184612fef565b90506000600560008381526020019081526020016000209050600081600001549050606081604051908082528060200260200182016040528015610d3f57816020015b610d2c6135b7565b815260200190600190039081610d245790505b50905060008090505b8281101561108257600084600101600083815260200190815260200160002054905060006006600083815260200190815260200160002090506060816001018054600181600116156101000203166002900480601f016020809104026020016040519081016040528092919081815260200182805460018160011615610100020316600290048015610e1b5780601f10610df057610100808354040283529160200191610e1b565b820191906000526020600020905b815481529060010190602001808311610dfe57829003601f168201915b505050505090506060826002018054600181600116156101000203166002900480601f016020809104026020016040519081016040528092919081815260200182805460018160011615610100020316600290048015610ebc5780601f10610e9157610100808354040283529160200191610ebc565b820191906000526020600020905b815481529060010190602001808311610e9f57829003601f168201915b505050505090506060836003018054600181600116156101000203166002900480601f016020809104026020016040519081016040528092919081815260200182805460018160011615610100020316600290048015610f5d5780601f10610f3257610100808354040283529160200191610f5d565b820191906000526020600020905b815481529060010190602001808311610f4057829003601f168201915b505050505090506000846004015490506060856005018054600181600116156101000203166002900480601f0160208091040260200160405190810160405280929190818152602001828054600181600116156101000203166002900480156110075780601f10610fdc57610100808354040283529160200191611007565b820191906000526020600020905b815481529060010190602001808311610fea57829003601f168201915b5050505050905060008660060154905061101f6135f4565b6040518060e001604052808881526020018781526020018681526020018581526020018481526020018381526020018b8152509050808b8b8151811061106157fe5b60200260200101819052505050505050505050508080600101915050610d48565b50809450505050506110d4565b606060006040519080825280602002602001820160405280156110cc57816020015b6110b96135b7565b8152602001906001900390816110b15790505b509050809150505b9392505050565b6110e68989896109ee565b15611290576000600a876040516110fd9190614a2a565b908152602001604051809103902090508060000160009054906101000a900460ff1661117c5786600960006008548152602001908152602001600020908051906020019061114c929190613631565b5060018160000160006101000a81548160ff02191690831515021790555060016008600082825401925050819055505b85816001019080519060200190611194929190613631565b506000816002015490506111a66136b1565b6040518060a001604052808881526020018981526020018781526020018681526020018581525090508083600301600084815260200190815260200160002060008201518160000190805190602001906112019291906136e0565b50602082015181600101908051906020019061121e9291906136e0565b50604082015181600201908051906020019061123b9291906136e0565b5060608201518160030190805190602001906112589291906136e0565b5060808201518160040190805190602001906112759291906136e0565b50905050600183600201600082825401925050819055505050505b505050505050505050565b60006112a683612fef565b905060006112b383612fef565b90506112bd613570565b600260008481526020019081526020016000206040518060e0016040529081600082018054600181600116156101000203166002900480601f0160208091040260200160405190810160405280929190818152602001828054600181600116156101000203166002900480156113745780601f1061134957610100808354040283529160200191611374565b820191906000526020600020905b81548152906001019060200180831161135757829003601f168201915b50505050508152602001600182018054600181600116156101000203166002900480601f0160208091040260200160405190810160405280929190818152602001828054600181600116156101000203166002900480156114165780601f106113eb57610100808354040283529160200191611416565b820191906000526020600020905b8154815290600101906020018083116113f957829003601f168201915b50505050508152602001600282018054600181600116156101000203166002900480601f0160208091040260200160405190810160405280929190818152602001828054600181600116156101000203166002900480156114b85780601f1061148d576101008083540402835291602001916114b8565b820191906000526020600020905b81548152906001019060200180831161149b57829003601f168201915b5050505050815260200160038201548152602001600482015481526020016005820160009054906101000a900460ff161515151581526020016005820160019054906101000a900460ff161515151581525050905086816000018190525085816020018190525081816080018181525050806002600085815260200190815260200160002060008201518160000190805190602001906115599291906136e0565b5060208201518160010190805190602001906115769291906136e0565b5060408201518160020190805190602001906115939291906136e0565b50606082015181600301556080820151816004015560a08201518160050160006101000a81548160ff02191690831515021790555060c08201518160050160016101000a81548160ff02191690831515021790555090505050505050505050565b60606116018484846109ee565b1561181757606060085460405190808252806020026020018201604052801561164457816020015b611631613760565b8152602001906001900390816116295790505b50905060008090505b60085481101561180d576060600960008381526020019081526020016000208054600181600116156101000203166002900480601f0160208091040260200160405190810160405280929190818152602001828054600181600116156101000203166002900480156117005780601f106116d557610100808354040283529160200191611700565b820191906000526020600020905b8154815290600101906020018083116116e357829003601f168201915b505050505090506000600a826040516117199190614a2a565b90815260200160405180910390209050806001018054600181600116156101000203166002900480601f0160208091040260200160405190810160405280929190818152602001828054600181600116156101000203166002900480156117c15780601f10611796576101008083540402835291602001916117c1565b820191906000526020600020905b8154815290600101906020018083116117a457829003601f168201915b50505050508484815181106117d257fe5b602002602001015160000181905250828484815181106117ee57fe5b602002602001015160200181815250505050808060010191505061164d565b508091505061185c565b6060600060405190808252806020026020018201604052801561185457816020015b611841613760565b8152602001906001900390816118395790505b509050809150505b9392505050565b60606118708585856109ee565b15611cf357600061188085612fef565b905060006005600083815260200190815260200160002090506000816001016000868152602001908152602001600020549050600060066000838152602001908152602001600020905060008160060154905060608160405190808252806020026020018201604052801561190f57816020015b6118fc61377a565b8152602001906001900390816118f45790505b50905060008090505b82811015611ce457600084600801600083815260200190815260200160002054905060006007600083815260200190815260200160002090506060816000018054600181600116156101000203166002900480601f0160208091040260200160405190810160405280929190818152602001828054600181600116156101000203166002900480156119eb5780601f106119c0576101008083540402835291602001916119eb565b820191906000526020600020905b8154815290600101906020018083116119ce57829003601f168201915b505050505090506060826001018054600181600116156101000203166002900480601f016020809104026020016040519081016040528092919081815260200182805460018160011615610100020316600290048015611a8c5780601f10611a6157610100808354040283529160200191611a8c565b820191906000526020600020905b815481529060010190602001808311611a6f57829003601f168201915b505050505090506060836002018054600181600116156101000203166002900480601f016020809104026020016040519081016040528092919081815260200182805460018160011615610100020316600290048015611b2d5780601f10611b0257610100808354040283529160200191611b2d565b820191906000526020600020905b815481529060010190602001808311611b1057829003601f168201915b505050505090506000846003015490506060856004018054600181600116156101000203166002900480601f016020809104026020016040519081016040528092919081815260200182805460018160011615610100020316600290048015611bd75780601f10611bac57610100808354040283529160200191611bd7565b820191906000526020600020905b815481529060010190602001808311611bba57829003601f168201915b505050505090506060866005018054600181600116156101000203166002900480601f016020809104026020016040519081016040528092919081815260200182805460018160011615610100020316600290048015611c785780601f10611c4d57610100808354040283529160200191611c78565b820191906000526020600020905b815481529060010190602001808311611c5b57829003601f168201915b50505050509050611c876137b0565b6040518060c00160405280888152602001878152602001868152602001858152602001848152602001838152509050808b8b81518110611cc357fe5b60200260200101819052505050505050505050508080600101915050611918565b50809650505050505050611d38565b60606000604051908082528060200260200182016040528015611d3057816020015b611d1d61377a565b815260200190600190039081611d155790505b509050809150505b949350505050565b600160009054906101000a900460ff16611e91576000611d5f83612fef565b90506000611d6c83612fef565b9050611d76613570565b6040518060e0016040528089815260200188815260200187815260200184815260200183815260200160011515815260200160001515815250905080600260008581526020019081526020016000206000820151816000019080519060200190611de19291906136e0565b506020820151816001019080519060200190611dfe9291906136e0565b506040820151816002019080519060200190611e1b9291906136e0565b50606082015181600301556080820151816004015560a08201518160050160006101000a81548160ff02191690831515021790555060c08201518160050160016101000a81548160ff02191690831515021790555090505060018060006101000a81548160ff0219169083151502179055505050505b5050505050565b6000611ea382612fef565b90506000611eb084612fef565b9050611eba613570565b600260008481526020019081526020016000206040518060e0016040529081600082018054600181600116156101000203166002900480601f016020809104026020016040519081016040528092919081815260200182805460018160011615610100020316600290048015611f715780601f10611f4657610100808354040283529160200191611f71565b820191906000526020600020905b815481529060010190602001808311611f5457829003601f168201915b50505050508152602001600182018054600181600116156101000203166002900480601f0160208091040260200160405190810160405280929190818152602001828054600181600116156101000203166002900480156120135780601f10611fe857610100808354040283529160200191612013565b820191906000526020600020905b815481529060010190602001808311611ff657829003601f168201915b50505050508152602001600282018054600181600116156101000203166002900480601f0160208091040260200160405190810160405280929190818152602001828054600181600116156101000203166002900480156120b55780601f1061208a576101008083540402835291602001916120b5565b820191906000526020600020905b81548152906001019060200180831161209857829003601f168201915b5050505050815260200160038201548152602001600482015481526020016005820160009054906101000a900460ff161515151581526020016005820160019054906101000a900460ff16151515158152505090508181608001818152505061211e8185613067565b5050505050565b61212d6137e6565b6040518060a0016040528088815260200187815260200186815260200185815260200184815250905061215f82612dec565b1561216f5761216e818361313b565b5b50505050505050565b6121838989896109ee565b156122af57600061219389612fef565b905060006121a088612fef565b90506000600660008381526020019081526020016000209050888160000190805190602001906121d1929190613631565b50878160010190805190602001906121ea929190613631565b5086816002019080519060200190612203929190613631565b508481600301908051906020019061221c929190613631565b5085816005019080519060200190612235929190613631565b5083816004018190555060018160070160006101000a81548160ff021916908315150217905550600060056000858152602001908152602001600020905060008160000154905083826001016000838152602001908152602001600020819055506001826000016000828254019250508190555050505050505b505050505050505050565b6122c2613570565b60006122cd83612fef565b9050600260008281526020019081526020016000206040518060e0016040529081600082018054600181600116156101000203166002900480601f0160208091040260200160405190810160405280929190818152602001828054600181600116156101000203166002900480156123865780601f1061235b57610100808354040283529160200191612386565b820191906000526020600020905b81548152906001019060200180831161236957829003601f168201915b50505050508152602001600182018054600181600116156101000203166002900480601f0160208091040260200160405190810160405280929190818152602001828054600181600116156101000203166002900480156124285780601f106123fd57610100808354040283529160200191612428565b820191906000526020600020905b81548152906001019060200180831161240b57829003601f168201915b50505050508152602001600282018054600181600116156101000203166002900480601f0160208091040260200160405190810160405280929190818152602001828054600181600116156101000203166002900480156124ca5780601f1061249f576101008083540402835291602001916124ca565b820191906000526020600020905b8154815290600101906020018083116124ad57829003601f168201915b5050505050815260200160038201548152602001600482015481526020016005820160009054906101000a900460ff161515151581526020016005820160019054906101000a900460ff161515151581525050915050919050565b600061253082612fef565b905061253a613570565b600260008381526020019081526020016000206040518060e0016040529081600082018054600181600116156101000203166002900480601f0160208091040260200160405190810160405280929190818152602001828054600181600116156101000203166002900480156125f15780601f106125c6576101008083540402835291602001916125f1565b820191906000526020600020905b8154815290600101906020018083116125d457829003601f168201915b50505050508152602001600182018054600181600116156101000203166002900480601f0160208091040260200160405190810160405280929190818152602001828054600181600116156101000203166002900480156126935780601f1061266857610100808354040283529160200191612693565b820191906000526020600020905b81548152906001019060200180831161267657829003601f168201915b50505050508152602001600282018054600181600116156101000203166002900480601f0160208091040260200160405190810160405280929190818152602001828054600181600116156101000203166002900480156127355780601f1061270a57610100808354040283529160200191612735565b820191906000526020600020905b81548152906001019060200180831161271857829003601f168201915b5050505050815260200160038201548152602001600482015481526020016005820160009054906101000a900460ff161515151581526020016005820160019054906101000a900460ff161515151581525050905083816020018190525061279d8184613067565b50505050565b60606127ae82612dec565b15612a935760606000546040519080825280602002602001820160405280156127f157816020015b6127de613815565b8152602001906001900390816127d65790505b50905060008090505b600054811015612a895760026000600360008481526020019081526020016000205481526020019081526020016000206040518060e0016040529081600082018054600181600116156101000203166002900480601f0160208091040260200160405190810160405280929190818152602001828054600181600116156101000203166002900480156128ce5780601f106128a3576101008083540402835291602001916128ce565b820191906000526020600020905b8154815290600101906020018083116128b157829003601f168201915b50505050508152602001600182018054600181600116156101000203166002900480601f0160208091040260200160405190810160405280929190818152602001828054600181600116156101000203166002900480156129705780601f1061294557610100808354040283529160200191612970565b820191906000526020600020905b81548152906001019060200180831161295357829003601f168201915b50505050508152602001600282018054600181600116156101000203166002900480601f016020809104026020016040519081016040528092919081815260200182805460018160011615610100020316600290048015612a125780601f106129e757610100808354040283529160200191612a12565b820191906000526020600020905b8154815290600101906020018083116129f557829003601f168201915b5050505050815260200160038201548152602001600482015481526020016005820160009054906101000a900460ff161515151581526020016005820160019054906101000a900460ff161515151581525050828281518110612a7157fe5b602002602001018190525080806001019150506127fa565b5080915050612ad8565b60606000604051908082528060200260200182016040528015612ad057816020015b612abd613815565b815260200190600190039081612ab55790505b509050809150505b919050565b6000612ae882612fef565b9050612af2613570565b600260008381526020019081526020016000206040518060e0016040529081600082018054600181600116156101000203166002900480601f016020809104026020016040519081016040528092919081815260200182805460018160011615610100020316600290048015612ba95780601f10612b7e57610100808354040283529160200191612ba9565b820191906000526020600020905b815481529060010190602001808311612b8c57829003601f168201915b50505050508152602001600182018054600181600116156101000203166002900480601f016020809104026020016040519081016040528092919081815260200182805460018160011615610100020316600290048015612c4b5780601f10612c2057610100808354040283529160200191612c4b565b820191906000526020600020905b815481529060010190602001808311612c2e57829003601f168201915b50505050508152602001600282018054600181600116156101000203166002900480601f016020809104026020016040519081016040528092919081815260200182805460018160011615610100020316600290048015612ced5780601f10612cc257610100808354040283529160200191612ced565b820191906000526020600020905b815481529060010190602001808311612cd057829003601f168201915b5050505050815260200160038201548152602001600482015481526020016005820160009054906101000a900460ff161515151581526020016005820160019054906101000a900460ff1615151515815250509050838160000181905250612d558184613067565b50505050565b600080612d6784612fef565b90506000612d7484612fef565b9050612d7e613570565b6040518060e001604052808a81526020018981526020018881526020018481526020018381526020016001151581526020016001151581525090506000612dc582886132ad565b90508015612dda5760c8945050505050612de3565b60649450505050505b95945050505050565b600080612df883612fef565b905060006002600083815260200190815260200160002090508060050160009054906101000a900460ff16612e3257600092505050612e39565b6001925050505b919050565b6000612e4983612fef565b905081600460008381526020019081526020016000209080519060200190612e72929190613631565b50505050565b612e838b8b8b6109ee565b15612fe2576000612e938b612fef565b90506000612ea089612fef565b9050600060056000848152602001908152602001600020905060008160010160008d8152602001908152602001600020549050600060066000838152602001908152602001600020905060008160060154905060006007600087815260200190815260200160002090508c816000019080519060200190612f22929190613631565b508b816001019080519060200190612f3b929190613631565b508a816002019080519060200190612f54929190613631565b5089816003018190555088816004019080519060200190612f76929190613631565b5087816005019080519060200190612f8f929190613631565b5060018160060160006101000a81548160ff021916908315150217905550858360080160008481526020019081526020016000208190555060018360060160008282540192505081905550505050505050505b5050505050505050505050565b60006002826040516020016130049190614a2a565b6040516020818303038152906040526040516130209190614a13565b602060405180830381855afa15801561303d573d6000803e3d6000fd5b5050506040513d601f19601f8201168201806040525061306091908101906138ff565b9050919050565b600061307282612fef565b9050826002600083815260200190815260200160002060008201518160000190805190602001906130a49291906136e0565b5060208201518160010190805190602001906130c19291906136e0565b5060408201518160020190805190602001906130de9291906136e0565b50606082015181600301556080820151816004015560a08201518160050160006101000a81548160ff02191690831515021790555060c08201518160050160016101000a81548160ff021916908315150217905550905050505050565b61314481612dec565b156132a95760006131588360600151612fef565b905060006131698460800151612fef565b9050613173613570565b6040518060e00160405280866000015181526020018660200151815260200186604001518152602001848152602001838152602001600115158152602001600115158152509050806002600085815260200190815260200160002060008201518160000190805190602001906131ea9291906136e0565b5060208201518160010190805190602001906132079291906136e0565b5060408201518160020190805190602001906132249291906136e0565b50606082015181600301556080820151816004015560a08201518160050160006101000a81548160ff02191690831515021790555060c08201518160050160016101000a81548160ff02191690831515021790555090505082600360008054815260200190815260200160002081905550600160008082825401925050819055505050505b5050565b6000806132b983612fef565b9050600060026000838152602001908152602001600020905061337c816000018054600181600116156101000203166002900480601f01602080910402602001604051908101604052809291908181526020018280546001816001161561010002031660029004801561336d5780601f106133425761010080835404028352916020019161336d565b820191906000526020600020905b81548152906001019060200180831161335057829003601f168201915b50505050508660000151613517565b801561342e575061342d816001018054600181600116156101000203166002900480601f01602080910402602001604051908101604052809291908181526020018280546001816001161561010002031660029004801561341e5780601f106133f35761010080835404028352916020019161341e565b820191906000526020600020905b81548152906001019060200180831161340157829003601f168201915b50505050508660200151613517565b5b80156134e057506134df816002018054600181600116156101000203166002900480601f0160208091040260200160405190810160405280929190818152602001828054600181600116156101000203166002900480156134d05780601f106134a5576101008083540402835291602001916134d0565b820191906000526020600020905b8154815290600101906020018083116134b357829003601f168201915b50505050508660400151613517565b5b80156134fa57506134f981600301548660600151613534565b5b1561350a57600192505050613511565b6000925050505b92915050565b600061352282612fef565b61352b84612fef565b14905092915050565b6000818314905092915050565b6040518060a0016040528060608152602001606081526020016060815260200160608152602001606081525090565b6040518060e0016040528060608152602001606081526020016060815260200160008019168152602001600080191681526020016000151581526020016000151581525090565b6040518060e00160405280606081526020016060815260200160608152602001600081526020016060815260200160008152602001600081525090565b6040518060e00160405280606081526020016060815260200160608152602001600081526020016060815260200160008152602001600081525090565b828054600181600116156101000203166002900490600052602060002090601f016020900481019282601f1061367257805160ff19168380011785556136a0565b828001600101855582156136a0579182015b8281111561369f578251825591602001919060010190613684565b5b5090506136ad919061385c565b5090565b6040518060a0016040528060608152602001606081526020016060815260200160608152602001606081525090565b828054600181600116156101000203166002900490600052602060002090601f016020900481019282601f1061372157805160ff191683800117855561374f565b8280016001018555821561374f579182015b8281111561374e578251825591602001919060010190613733565b5b50905061375c919061385c565b5090565b604051806040016040528060608152602001600081525090565b6040518060c001604052806060815260200160608152602001606081526020016000815260200160608152602001606081525090565b6040518060c001604052806060815260200160608152602001606081526020016000815260200160608152602001606081525090565b6040518060a0016040528060608152602001606081526020016060815260200160608152602001606081525090565b6040518060e0016040528060608152602001606081526020016060815260200160008019168152602001600080191681526020016000151581526020016000151581525090565b61387e91905b8082111561387a576000816000905550600101613862565b5090565b90565b60008151905061389081614db1565b92915050565b600082601f8301126138a757600080fd5b81356138ba6138b582614b92565b614b65565b915080825260208301602083018583830111156138d657600080fd5b6138e1838284614d5e565b50505092915050565b6000813590506138f981614dc8565b92915050565b60006020828403121561391157600080fd5b600061391f84828501613881565b91505092915050565b60006020828403121561393a57600080fd5b600082013567ffffffffffffffff81111561395457600080fd5b61396084828501613896565b91505092915050565b6000806040838503121561397c57600080fd5b600083013567ffffffffffffffff81111561399657600080fd5b6139a285828601613896565b925050602083013567ffffffffffffffff8111156139bf57600080fd5b6139cb85828601613896565b9150509250929050565b6000806000606084860312156139ea57600080fd5b600084013567ffffffffffffffff811115613a0457600080fd5b613a1086828701613896565b935050602084013567ffffffffffffffff811115613a2d57600080fd5b613a3986828701613896565b925050604084013567ffffffffffffffff811115613a5657600080fd5b613a6286828701613896565b9150509250925092565b60008060008060808587031215613a8257600080fd5b600085013567ffffffffffffffff811115613a9c57600080fd5b613aa887828801613896565b945050602085013567ffffffffffffffff811115613ac557600080fd5b613ad187828801613896565b935050604085013567ffffffffffffffff811115613aee57600080fd5b613afa87828801613896565b925050606085013567ffffffffffffffff811115613b1757600080fd5b613b2387828801613896565b91505092959194509250565b600080600080600060a08688031215613b4757600080fd5b600086013567ffffffffffffffff811115613b6157600080fd5b613b6d88828901613896565b955050602086013567ffffffffffffffff811115613b8a57600080fd5b613b9688828901613896565b945050604086013567ffffffffffffffff811115613bb357600080fd5b613bbf88828901613896565b935050606086013567ffffffffffffffff811115613bdc57600080fd5b613be888828901613896565b925050608086013567ffffffffffffffff811115613c0557600080fd5b613c1188828901613896565b9150509295509295909350565b60008060008060008060c08789031215613c3757600080fd5b600087013567ffffffffffffffff811115613c5157600080fd5b613c5d89828a01613896565b965050602087013567ffffffffffffffff811115613c7a57600080fd5b613c8689828a01613896565b955050604087013567ffffffffffffffff811115613ca357600080fd5b613caf89828a01613896565b945050606087013567ffffffffffffffff811115613ccc57600080fd5b613cd889828a01613896565b935050608087013567ffffffffffffffff811115613cf557600080fd5b613d0189828a01613896565b92505060a087013567ffffffffffffffff811115613d1e57600080fd5b613d2a89828a01613896565b9150509295509295509295565b60008060008060008060008060006101208a8c031215613d5657600080fd5b60008a013567ffffffffffffffff811115613d7057600080fd5b613d7c8c828d01613896565b99505060208a013567ffffffffffffffff811115613d9957600080fd5b613da58c828d01613896565b98505060408a013567ffffffffffffffff811115613dc257600080fd5b613dce8c828d01613896565b97505060608a013567ffffffffffffffff811115613deb57600080fd5b613df78c828d01613896565b96505060808a013567ffffffffffffffff811115613e1457600080fd5b613e208c828d01613896565b95505060a08a013567ffffffffffffffff811115613e3d57600080fd5b613e498c828d01613896565b94505060c08a013567ffffffffffffffff811115613e6657600080fd5b613e728c828d01613896565b93505060e08a013567ffffffffffffffff811115613e8f57600080fd5b613e9b8c828d01613896565b9250506101008a013567ffffffffffffffff811115613eb957600080fd5b613ec58c828d01613896565b9150509295985092959850929598565b60008060008060008060008060006101208a8c031215613ef457600080fd5b60008a013567ffffffffffffffff811115613f0e57600080fd5b613f1a8c828d01613896565b99505060208a013567ffffffffffffffff811115613f3757600080fd5b613f438c828d01613896565b98505060408a013567ffffffffffffffff811115613f6057600080fd5b613f6c8c828d01613896565b97505060608a013567ffffffffffffffff811115613f8957600080fd5b613f958c828d01613896565b96505060808a013567ffffffffffffffff811115613fb257600080fd5b613fbe8c828d01613896565b95505060a08a013567ffffffffffffffff811115613fdb57600080fd5b613fe78c828d01613896565b94505060c08a013567ffffffffffffffff81111561400457600080fd5b6140108c828d01613896565b93505060e08a013567ffffffffffffffff81111561402d57600080fd5b6140398c828d01613896565b92505061010061404b8c828d016138ea565b9150509295985092959850929598565b6000806000806080858703121561407157600080fd5b600085013567ffffffffffffffff81111561408b57600080fd5b61409787828801613896565b945050602085013567ffffffffffffffff8111156140b457600080fd5b6140c087828801613896565b935050604085013567ffffffffffffffff8111156140dd57600080fd5b6140e987828801613896565b92505060606140fa878288016138ea565b91505092959194509250565b60008060008060008060008060008060006101608c8e03121561412857600080fd5b60008c013567ffffffffffffffff81111561414257600080fd5b61414e8e828f01613896565b9b505060208c013567ffffffffffffffff81111561416b57600080fd5b6141778e828f01613896565b9a505060408c013567ffffffffffffffff81111561419457600080fd5b6141a08e828f01613896565b99505060606141b18e828f016138ea565b98505060808c013567ffffffffffffffff8111156141ce57600080fd5b6141da8e828f01613896565b97505060a08c013567ffffffffffffffff8111156141f757600080fd5b6142038e828f01613896565b96505060c08c013567ffffffffffffffff81111561422057600080fd5b61422c8e828f01613896565b95505060e08c013567ffffffffffffffff81111561424957600080fd5b6142558e828f01613896565b9450506101006142678e828f016138ea565b9350506101208c013567ffffffffffffffff81111561428557600080fd5b6142918e828f01613896565b9250506101408c013567ffffffffffffffff8111156142af57600080fd5b6142bb8e828f01613896565b9150509295989b509295989b9093969950565b60006142da838361468b565b905092915050565b60006142ee8383614730565b905092915050565b600061430283836147e1565b905092915050565b60006143168383614873565b905092915050565b600061432a838361495a565b905092915050565b600061433d82614c0e565b6143478185614ca7565b93508360208202850161435985614bbe565b8060005b85811015614395578484038952815161437685826142ce565b945061438183614c66565b925060208a0199505060018101905061435d565b50829750879550505050505092915050565b60006143b282614c19565b6143bc8185614cb8565b9350836020820285016143ce85614bce565b8060005b8581101561440a57848403895281516143eb85826142e2565b94506143f683614c73565b925060208a019950506001810190506143d2565b50829750879550505050505092915050565b600061442782614c24565b6144318185614cc9565b93508360208202850161444385614bde565b8060005b8581101561447f578484038952815161446085826142f6565b945061446b83614c80565b925060208a01995050600181019050614447565b50829750879550505050505092915050565b600061449c82614c2f565b6144a68185614cda565b9350836020820285016144b885614bee565b8060005b858110156144f457848403895281516144d5858261430a565b94506144e083614c8d565b925060208a019950506001810190506144bc565b50829750879550505050505092915050565b600061451182614c3a565b61451b8185614ceb565b93508360208202850161452d85614bfe565b8060005b85811015614569578484038952815161454a858261431e565b945061455583614c9a565b925060208a01995050600181019050614531565b50829750879550505050505092915050565b61458481614d34565b82525050565b61459381614d34565b82525050565b6145a281614d40565b82525050565b60006145b382614c45565b6145bd8185614cfc565b93506145cd818560208601614d6d565b80840191505092915050565b6145e281614d4a565b82525050565b60006145f382614c5b565b6145fd8185614d18565b935061460d818560208601614d6d565b61461681614da0565b840191505092915050565b600061462c82614c5b565b6146368185614d29565b9350614646818560208601614d6d565b80840191505092915050565b600061465d82614c50565b6146678185614d07565b9350614677818560208601614d6d565b61468081614da0565b840191505092915050565b600060c08301600083015184820360008601526146a88282614652565b915050602083015184820360208601526146c28282614652565b915050604083015184820360408601526146dc8282614652565b91505060608301516146f16060860182614a04565b50608083015184820360808601526147098282614652565b91505060a083015184820360a08601526147238282614652565b9150508091505092915050565b600060e083016000830151848203600086015261474d8282614652565b915050602083015184820360208601526147678282614652565b915050604083015184820360408601526147818282614652565b91505060608301516147966060860182614a04565b50608083015184820360808601526147ae8282614652565b91505060a08301516147c360a0860182614a04565b5060c08301516147d660c0860182614a04565b508091505092915050565b600060a08301600083015184820360008601526147fe8282614652565b915050602083015184820360208601526148188282614652565b915050604083015184820360408601526148328282614652565b9150506060830151848203606086015261484c8282614652565b915050608083015184820360808601526148668282614652565b9150508091505092915050565b600060408301600083015184820360008601526148908282614652565b91505060208301516148a56020860182614a04565b508091505092915050565b600060e08301600083015184820360008601526148cd8282614652565b915050602083015184820360208601526148e78282614652565b915050604083015184820360408601526149018282614652565b91505060608301516149166060860182614599565b5060808301516149296080860182614599565b5060a083015161493c60a086018261457b565b5060c083015161494f60c086018261457b565b508091505092915050565b600060e08301600083015184820360008601526149778282614652565b915050602083015184820360208601526149918282614652565b915050604083015184820360408601526149ab8282614652565b91505060608301516149c06060860182614599565b5060808301516149d36080860182614599565b5060a08301516149e660a086018261457b565b5060c08301516149f960c086018261457b565b508091505092915050565b614a0d81614d54565b82525050565b6000614a1f82846145a8565b915081905092915050565b6000614a368284614621565b915081905092915050565b60006020820190508181036000830152614a5b8184614332565b905092915050565b60006020820190508181036000830152614a7d81846143a7565b905092915050565b60006020820190508181036000830152614a9f818461441c565b905092915050565b60006020820190508181036000830152614ac18184614491565b905092915050565b60006020820190508181036000830152614ae38184614506565b905092915050565b6000602082019050614b00600083018461458a565b92915050565b6000602082019050614b1b60008301846145d9565b92915050565b60006020820190508181036000830152614b3b81846145e8565b905092915050565b60006020820190508181036000830152614b5d81846148b0565b905092915050565b6000604051905081810181811067ffffffffffffffff82111715614b8857600080fd5b8060405250919050565b600067ffffffffffffffff821115614ba957600080fd5b601f19601f8301169050602081019050919050565b6000819050602082019050919050565b6000819050602082019050919050565b6000819050602082019050919050565b6000819050602082019050919050565b6000819050602082019050919050565b600081519050919050565b600081519050919050565b600081519050919050565b600081519050919050565b600081519050919050565b600081519050919050565b600081519050919050565b600081519050919050565b6000602082019050919050565b6000602082019050919050565b6000602082019050919050565b6000602082019050919050565b6000602082019050919050565b600082825260208201905092915050565b600082825260208201905092915050565b600082825260208201905092915050565b600082825260208201905092915050565b600082825260208201905092915050565b600081905092915050565b600082825260208201905092915050565b600082825260208201905092915050565b600081905092915050565b60008115159050919050565b6000819050919050565b6000819050919050565b6000819050919050565b82818337600083830152505050565b60005b83811015614d8b578082015181840152602081019050614d70565b83811115614d9a576000848401525b50505050565b6000601f19601f8301169050919050565b614dba81614d40565b8114614dc557600080fd5b50565b614dd181614d54565b8114614ddc57600080fd5b5056fea365627a7a723158202ec2253017b67e0936609934fb2f6550aeecf95bb8397a907235a9544cf55fb06c6578706572696d656e74616cf564736f6c63430005100040",
  "source": "// SPDX-License-Identifier: MIT\r\n\r\npragma solidity >=0.5.16;\r\npragma experimental ABIEncoderV2;\r\n\r\n/*\r\nError Codes\r\n200     -       ok\r\n100     -       fail\r\n107     -       Unauthorized Access\r\n*/\r\n\r\ncontract Election {\r\n\r\n    /*--------------------------------------------------------------------------- \r\n                    Super Admin Module\r\n    -----------------------------------------------------------------------------*/\r\n    uint private numberOfSuperAdmins = 0;\r\n    bool private isDefaultAdminAdded = false;\r\n\r\n    struct superAdmin {\r\n        string name;\r\n        string emailId;\r\n        string username;\r\n        bytes32 encUsername;\r\n        bytes32 password;\r\n        bool occupied;\r\n        bool canDelete;\r\n    }\r\n\r\n    struct superAdminDetails {\r\n        string name;\r\n        string emailId;\r\n        string username;\r\n        string encUsername;\r\n        string password;\r\n    }\r\n\r\n    //store super admin details based on the hash value of encryptedUserName hash value\r\n    mapping(bytes32 => superAdmin) private superAdminHashmap;\r\n    mapping (uint=> bytes32) private superAdminsAccountDetails;\r\n    mapping(bytes32 => string) private superAdminLoginLog;\r\n\r\n    //get all details of Super admins\r\n    function getAllSuperAdminDetails(string memory encUsername) public view returns(superAdmin[] memory) {\r\n\r\n        if (isSuperAdminUsernameTaken(encUsername)) {\r\n            superAdmin[] memory allDetails = new superAdmin[](numberOfSuperAdmins);\r\n            for (uint i = 0; i < numberOfSuperAdmins; i++) {\r\n                allDetails[i] = superAdminHashmap[superAdminsAccountDetails[i]];\r\n            }\r\n            return allDetails;\r\n        } else {\r\n            superAdmin[] memory allDetails = new superAdmin[](0);\r\n            return allDetails;\r\n        }\r\n    }\r\n\r\n    //add super admin credentials into table by hashing proper credentials\r\n    function addSuperAdmin(superAdminDetails memory adminDetails, string memory adminHashCode) private{\r\n        \r\n        if (isSuperAdminUsernameTaken(adminHashCode)) {\r\n            bytes32 usernameHash = getStringHashedToBytes32(adminDetails.encUsername);\r\n            bytes32 passwordHash = getStringHashedToBytes32(adminDetails.password);\r\n            \r\n            superAdmin memory admin = superAdmin(adminDetails.name, adminDetails.emailId, adminDetails.username, usernameHash, passwordHash, true, true);\r\n\r\n            superAdminHashmap[usernameHash] = admin;\r\n            superAdminsAccountDetails[numberOfSuperAdmins] = usernameHash;\r\n\r\n            numberOfSuperAdmins += 1;\r\n        }\r\n    }\r\n\r\n    function storeSuperAdminAtPosition(superAdmin memory adminData, string memory encUsername) private {\r\n        bytes32 usernameHash = getStringHashedToBytes32(encUsername);\r\n\r\n        superAdminHashmap[usernameHash] = adminData;\r\n    }\r\n\r\n    //checks the hashmap, wheather admin details is present already\r\n    function isSuperAdminPresent(superAdmin memory adminDetails, string memory encUsername) private view returns(bool) {\r\n        bytes32 usernameHash = getStringHashedToBytes32(encUsername);\r\n\r\n        superAdmin storage admin = superAdminHashmap[usernameHash];\r\n\r\n        if (isEqual(admin.name, adminDetails.name) && isEqual(admin.emailId, adminDetails.emailId) && isEqual(admin.username, adminDetails.username) && isEqualByBytes32(admin.encUsername, adminDetails.encUsername)) {\r\n            return true;\r\n        }\r\n\r\n        return false;\r\n    }\r\n\r\n    //checks if the admin username is already taken\r\n    function isSuperAdminUsernameTaken(string memory encUsername) public view returns(bool) {\r\n        bytes32 usernameHash = getStringHashedToBytes32(encUsername);\r\n\r\n        superAdmin storage admin = superAdminHashmap[usernameHash];\r\n\r\n        if (!admin.occupied) {\r\n            return false;\r\n        }\r\n\r\n        return true;\r\n    }\r\n\r\n    //will add the details into hashmap once all the api calls are satisfied\r\n    function finallyAddSuperAdmin(string memory name, string memory emailId, string memory username, string memory encUsername, string memory password, string memory adminUsername) public {\r\n        superAdminDetails memory adminDetails = superAdminDetails(name, emailId, username, encUsername, password);\r\n        if (isSuperAdminUsernameTaken(adminUsername)) {\r\n            addSuperAdmin(adminDetails, adminUsername);\r\n        }\r\n    }\r\n\r\n    //returns data by checking the hashmap if the admin is created\r\n    function isSuperAdminAdded(string memory name, string memory emailId, string memory username, string memory encUsername, string memory password) public view returns(int) {\r\n        \r\n        bytes32 usernameHash = getStringHashedToBytes32(encUsername);\r\n        bytes32 passwordHash = getStringHashedToBytes32(password);\r\n\r\n        superAdmin memory adminDetails = superAdmin(name, emailId, username, usernameHash, passwordHash, true, true);\r\n\r\n        bool isPresent = isSuperAdminPresent(adminDetails, encUsername);\r\n\r\n        if (isPresent) {\r\n            return 200;\r\n        }\r\n        return 100;\r\n    }\r\n\r\n    function authSuperAdmin(string memory username, string memory encUsername, string memory password) public view returns(bool) {\r\n        bytes32 usernameHash = getStringHashedToBytes32(encUsername);\r\n        bytes32 passwordHash = getStringHashedToBytes32(password);\r\n        \r\n        superAdmin memory authAdmin = superAdminHashmap[usernameHash];\r\n        bytes32 baseUsernameHash = getStringHashedToBytes32(authAdmin.username);\r\n        bytes32 recievedUsernameHash = getStringHashedToBytes32(username);\r\n        if (baseUsernameHash == recievedUsernameHash && authAdmin.encUsername == usernameHash && authAdmin.password == passwordHash) {\r\n            return true;\r\n        }\r\n        return false;\r\n    }\r\n\r\n    //edit super admin details as a whole, which includes Name, Email id, Password\r\n    function editSuperAdminAllDetails(string memory name, string memory emailId, string memory encUsername, string memory password) public {\r\n        bytes32 usernameHash = getStringHashedToBytes32(encUsername);\r\n        bytes32 passwordHash = getStringHashedToBytes32(password);\r\n        superAdmin memory sAdmin = superAdminHashmap[usernameHash];\r\n        sAdmin.name = name;\r\n        sAdmin.emailId = emailId;\r\n        sAdmin.password = passwordHash;\r\n\r\n        superAdminHashmap[usernameHash] = sAdmin;\r\n    }\r\n\r\n    //edit only Super Admin name\r\n    function editSuperAdminName(string memory name, string memory encUsername) public {\r\n        bytes32 usernameHash = getStringHashedToBytes32(encUsername);\r\n\r\n        superAdmin memory sAdmin = superAdminHashmap[usernameHash];\r\n        sAdmin.name = name;\r\n\r\n        storeSuperAdminAtPosition(sAdmin, encUsername);\r\n    }\r\n\r\n    //edit only Super Admin Email Id\r\n    function editSuperAdminEmailId(string memory emailId, string memory encUsername) public {\r\n        bytes32 usernameHash = getStringHashedToBytes32(encUsername);\r\n\r\n        superAdmin memory sAdmin = superAdminHashmap[usernameHash];\r\n        sAdmin.emailId = emailId;\r\n\r\n        storeSuperAdminAtPosition(sAdmin, encUsername);\r\n    }\r\n\r\n    //edit only Super Admin Password\r\n    function editSuperAdminPassword(string memory password, string memory encUsername) public {\r\n        bytes32 usernameHash = getStringHashedToBytes32(encUsername);\r\n        bytes32 passwordHash = getStringHashedToBytes32(password);\r\n\r\n        superAdmin memory sAdmin = superAdminHashmap[usernameHash];\r\n        sAdmin.password = passwordHash;\r\n\r\n        storeSuperAdminAtPosition(sAdmin, encUsername);\r\n    }\r\n\r\n    //function to get the admin details\r\n    function getSuperAdminDetails(string memory encUsername) public view returns(superAdmin memory) {\r\n        bytes32 usernameHash = getStringHashedToBytes32(encUsername);\r\n        return superAdminHashmap[usernameHash];\r\n    }\r\n\r\n    //function to create Default Super Admin\r\n    function defaultSuperAdmin(string memory name, string memory emailId, string memory username, string memory encUsername, string memory password) public {\r\n        if (!isDefaultAdminAdded) {\r\n            bytes32 usernameHash = getStringHashedToBytes32(encUsername);\r\n            bytes32 passwordHash = getStringHashedToBytes32(password);\r\n            \r\n            superAdmin memory admin = superAdmin(name, emailId, username, usernameHash, passwordHash, true, false);\r\n\r\n            superAdminHashmap[usernameHash] = admin;\r\n            isDefaultAdminAdded = true;\r\n        }\r\n    }\r\n\r\n    function modifySuperAdminLoginLog(string memory encUsername, string memory dateTime) public {\r\n        bytes32 encUsernameHash = getStringHashedToBytes32(encUsername);\r\n        superAdminLoginLog[encUsernameHash] = dateTime;\r\n    }\r\n\r\n    function getSuperAdminLoginLog(string memory encUsername) public view returns(string memory) {\r\n        bytes32 encUsernameHash = getStringHashedToBytes32(encUsername);\r\n        return superAdminLoginLog[encUsernameHash];\r\n    }\r\n\r\n    //----------------------------------------------------------------------------------------------------------------------------------------------------------------------------------\r\n\r\n    //---------------------------------------------------- Election Details ------------------------------------------------------------------------------------------------------------\r\n\r\n    struct electionDetails {\r\n        string electionId;\r\n        string electionAlias;\r\n        string year;\r\n        string date;\r\n        uint numberOfConstituency;\r\n        string typeOfConstituency;\r\n        uint index;\r\n        bool flag;\r\n        //hash value to store constituency details\r\n        mapping(uint => bytes32) constituencyStorageHash;\r\n    }\r\n\r\n    struct constituencyDetails {\r\n        string district;\r\n        string state;\r\n        string constituencyNumber;\r\n        uint numberOfVoters;\r\n        string dateOfElection;\r\n        string time;\r\n        bool flag;\r\n        //hash value to store voter's details\r\n    }\r\n\r\n    struct constituencyData {\r\n        string district;\r\n        string state;\r\n        string constituencyNumber;\r\n        uint numberOfVoters;\r\n        string dateOfElection;\r\n        string time;\r\n    }\r\n\r\n    struct electionData {\r\n        string electionAlias;\r\n        string year;\r\n        string date;\r\n        uint numberOfConsituency;\r\n        string typeOfConstituency;\r\n        uint indexSize;\r\n        uint index;\r\n    }\r\n\r\n    struct superAdminForElection {\r\n        uint index;\r\n        mapping (uint => bytes32) electionStorageHash;\r\n    }\r\n\r\n    mapping (bytes32 => superAdminForElection) adminForElection;\r\n    mapping (bytes32 => electionDetails) electionMap;\r\n    mapping (bytes32 => constituencyDetails) constituencyMap;\r\n\r\n    function createConstituencyUsingSuperAdmin(string memory username, string memory encUsername, string memory password, uint userElectionIndex, string memory constituencyId, string memory district, string memory state,string memory constituencyNumber, uint numberOfVoters, string memory date, string memory time) public {\r\n        if (authSuperAdmin(username, encUsername, password)) {\r\n            bytes32 adminHash = getStringHashedToBytes32(encUsername);\r\n            bytes32 constituencyIndexHash = getStringHashedToBytes32(constituencyId);\r\n\r\n            superAdminForElection storage adminElection = adminForElection[adminHash];\r\n\r\n            bytes32 electionAddress = adminElection.electionStorageHash[userElectionIndex];\r\n            electionDetails storage eDetails = electionMap[electionAddress];\r\n\r\n            uint cIndex = eDetails.index;\r\n            constituencyDetails storage cDetails = constituencyMap[constituencyIndexHash];\r\n            cDetails.district = district;\r\n            cDetails.state = state;\r\n            cDetails.constituencyNumber = constituencyNumber;\r\n            cDetails.numberOfVoters = numberOfVoters;\r\n            cDetails.dateOfElection = date;\r\n            cDetails.time = time;\r\n            cDetails.flag = true;\r\n\r\n            eDetails.constituencyStorageHash[cIndex] = constituencyIndexHash;\r\n            eDetails.index += 1;\r\n        }\r\n    }\r\n\r\n    function createElectionUsingSuperAdmin(string memory username, string memory encUsername, string memory password, string memory electionId ,string memory electionAlias, string memory year, string memory typeOfElection, string memory date, uint numberOfConstituency) public {\r\n        if (authSuperAdmin(username, encUsername, password)) {\r\n            bytes32 adminHashValue = getStringHashedToBytes32(encUsername);\r\n            bytes32 electionIdHashValue = getStringHashedToBytes32(electionId);\r\n            \r\n            electionDetails storage eDetails = electionMap[electionIdHashValue];\r\n            eDetails.electionId = electionId;\r\n            eDetails.electionAlias = electionAlias;\r\n            eDetails.year = year;\r\n            eDetails.date = date;\r\n            eDetails.typeOfConstituency = typeOfElection;\r\n            eDetails.numberOfConstituency = numberOfConstituency;\r\n            eDetails.flag = true;\r\n\r\n            superAdminForElection storage adminElection = adminForElection[adminHashValue];\r\n            uint electionIndex = adminElection.index;\r\n            adminElection.electionStorageHash[electionIndex] = electionIdHashValue;\r\n            adminElection.index += 1;\r\n        }\r\n    }\r\n\r\n    /*function createConstituencyUsingSuperAdmin(string memory username, string memory encUsername, string memory password, string memory electionId, string memory constituencyId,string memory district, string memory state, string memory constituencyNumber, uint numberOfVoters, string memory date, string memory time) public {\r\n        if (authSuperAdmin(username, encUsername, password)) {\r\n            bytes32 electionIndexHash = getStringHashedToBytes32(electionId);\r\n            bytes32 constituencyIndexHash = getStringHashedToBytes32(constituencyId);\r\n\r\n            electionDetails storage eDetails = electionMap[electionIndexHash];\r\n            uint cIndex = eDetails.index;\r\n            constituencyDetails storage cDetails = constituencyMap[constituencyIndexHash];\r\n            cDetails.district = district;\r\n            cDetails.state = state;\r\n            cDetails.constituencyNumber = constituencyNumber;\r\n            cDetails.numberOfVoters = numberOfVoters;\r\n            cDetails.dateOfElection = date;\r\n            cDetails.time = time;\r\n            cDetails.flag = true;\r\n\r\n            eDetails.constituencyStorageHash[cIndex] = constituencyIndexHash;\r\n            eDetails.index += 1;\r\n        }\r\n    }*/\r\n\r\n    function getAllElectionData(string memory username, string memory encUsername, string memory password) public view returns(electionData[] memory) {\r\n        if (authSuperAdmin(username, encUsername, password)) {\r\n            bytes32 usernameHash = getStringHashedToBytes32(encUsername);\r\n\r\n            superAdminForElection storage adminElection = adminForElection[usernameHash];\r\n            uint adminIndex = adminElection.index;\r\n            electionData[] memory eData = new electionData[](adminIndex);\r\n\r\n            for (uint i = 0; i < adminIndex; i++) {\r\n                bytes32 electionAddress = adminElection.electionStorageHash[i];\r\n                electionDetails storage eDetails = electionMap[electionAddress];\r\n                string memory electionAlias = eDetails.electionAlias;\r\n                string memory year = eDetails.year;\r\n                string memory date = eDetails.date;\r\n                uint numberOfConsituency = eDetails.numberOfConstituency;\r\n                string memory typeOfConstituency = eDetails.typeOfConstituency;\r\n                uint size = eDetails.index;\r\n\r\n                electionData memory data = electionData(electionAlias, year, date, numberOfConsituency, typeOfConstituency, size, i);\r\n                eData[i] = data;\r\n            }\r\n            return eData;\r\n        } else {\r\n            electionData[] memory eData = new electionData[](0);\r\n            return eData;\r\n        }\r\n    }\r\n\r\n    function getConstituentDetails(string memory username, string memory encUsername, string memory password, uint electionIndex) public view returns(constituencyData[] memory) {\r\n        if (authSuperAdmin(username, encUsername, password)) {\r\n            bytes32 adminHashValue = getStringHashedToBytes32(encUsername);\r\n            \r\n            superAdminForElection storage adminElection = adminForElection[adminHashValue];\r\n            bytes32 electionAddress = adminElection.electionStorageHash[electionIndex];\r\n\r\n            electionDetails storage eDetails = electionMap[electionAddress];\r\n            uint size = eDetails.index;\r\n\r\n            constituencyData[] memory cData = new constituencyData[](size);\r\n\r\n            for (uint i = 0; i < size; i++) {\r\n                bytes32 constituencyAddress = eDetails.constituencyStorageHash[i];\r\n                constituencyDetails storage cDetails = constituencyMap[constituencyAddress];\r\n\r\n                string memory district = cDetails.district;\r\n                string memory state = cDetails.state;\r\n                string memory constituencyNumber = cDetails.constituencyNumber;\r\n                uint numberOfVoters = cDetails.numberOfVoters;\r\n                string memory dateOfElection = cDetails.dateOfElection;\r\n                string memory time = cDetails.time;\r\n\r\n                constituencyData memory data = constituencyData(district, state, constituencyNumber, numberOfVoters, dateOfElection, time);\r\n                cData[i] = data;\r\n            }\r\n\r\n            return cData;\r\n        } else {\r\n            constituencyData[] memory cData = new constituencyData[](0);\r\n            return cData;\r\n        }\r\n    }\r\n\r\n    function isElectionProvidedUnderAdmin(string memory encUsername, string memory electionId, uint electionIndex) private view returns(bool) {\r\n        bytes32 usernameHash = getStringHashedToBytes32(encUsername);\r\n\r\n        superAdminForElection storage adminElection = adminForElection[usernameHash];\r\n        bytes32 electionDataAddress = adminElection.electionStorageHash[electionIndex];\r\n\r\n        electionDetails storage adminElectionDetails = electionMap[electionDataAddress];\r\n        string memory adminElectionId = adminElectionDetails.electionId;\r\n\r\n        if (isEqual(adminElectionId, electionId)) {\r\n            return true;\r\n        }\r\n        return false;\r\n    }\r\n\r\n    //----------------------------------------------------------------------------------------------------------------------------------------------------------------------------------\r\n\r\n    struct stateDetails {\r\n        string constitutionId;\r\n        string state;\r\n        string district;\r\n        string constitutionName;\r\n        string taluk;\r\n    }\r\n\r\n    struct stateInfo {\r\n        string stateName;\r\n        uint index;\r\n    }\r\n\r\n    struct state {\r\n        bool occupied;\r\n        string stateName;\r\n        uint statesCount;\r\n        mapping (uint => stateDetails) details;\r\n    }\r\n\r\n    uint numberOfStates = 0;\r\n\r\n    mapping (uint => string) stateLocationHash;\r\n    mapping (string => state) stateList;\r\n\r\n    function addConstituencyData(string memory username, string memory encUsername, string memory password, string memory stateId, string memory stateName, string memory constituencyId, string memory district, string memory constitutionName, string memory taluk) public {\r\n        if (authSuperAdmin(username, encUsername, password)) {\r\n            state storage stateData = stateList[stateId];\r\n            if (!stateData.occupied) {\r\n                stateLocationHash[numberOfStates] = stateId;\r\n                stateData.occupied = true;\r\n                numberOfStates += 1;\r\n            }\r\n            stateData.stateName = stateName;\r\n            uint index = stateData.statesCount;\r\n            stateDetails memory details = stateDetails(constituencyId, stateName, district, constitutionName, taluk);\r\n            stateData.details[index] = details;\r\n            stateData.statesCount += 1;\r\n        }\r\n    }\r\n\r\n    function getStateList(string memory username, string memory encUsername, string memory password) public view returns(stateInfo[] memory) {\r\n        if (authSuperAdmin(username, encUsername, password)) {\r\n            stateInfo[] memory stateArray = new stateInfo[](numberOfStates);\r\n            for (uint i = 0; i < numberOfStates; i++) {\r\n                string memory stateLocationAddress = stateLocationHash[i];\r\n                state storage stateData = stateList[stateLocationAddress];\r\n                stateArray[i].stateName = stateData.stateName;\r\n                stateArray[i].index = i;\r\n            }\r\n            return stateArray;\r\n        } else {\r\n            stateInfo[] memory data = new stateInfo[](0);\r\n            return data;\r\n        }\r\n    }\r\n\r\n    function getCorresspondingStateList(string memory username, string memory encUsername, string memory password, uint index) public view returns(stateDetails[] memory) {\r\n        if (authSuperAdmin(username, encUsername, password)) {\r\n            string memory stateAddress = stateLocationHash[index];\r\n            state storage stateData = stateList[stateAddress];\r\n            uint size = stateData.statesCount;\r\n            stateDetails[] memory stateArray = new stateDetails[](size);\r\n            for (uint i = 0; i < size; i++) {\r\n                stateArray[i] = stateData.details[i];\r\n            }\r\n            return stateArray;\r\n        } else {\r\n            stateDetails[] memory data = new stateDetails[](0);\r\n            return data;\r\n        }\r\n    }\r\n\r\n    //----------------------------------------------------------------------------------------------------------------------------------------------------------------------------------\r\n\r\n    function getStringHashedToBytes32(string memory toBeHashedString) private pure returns(bytes32) {\r\n        return sha256(abi.encodePacked(toBeHashedString));\r\n    }\r\n\r\n    function isEqual(string memory input1, string memory input2) private pure returns(bool) {\r\n        return (getStringHashedToBytes32(input1) == getStringHashedToBytes32(input2));\r\n    }\r\n\r\n    function isEqualByBytes32(bytes32 input1, bytes32 input2) private pure returns(bool) {\r\n        return (input1 == input2);\r\n    }\r\n\r\n}",
  "sourcePath": "C:\\Users\\Hp\\Documents\\bc-capstone\\contracts\\Election.sol",
  "compiler": {
    "name": "solc",
    "version": "0.5.16+commit.9c3226ce.Emscripten.clang"
  },
  "schemaVersion": "3.4.2",
  "updatedAt": "2021-10-01T10:45:21.915Z",
  "devdoc": {
    "methods": {}
  },
  "userdoc": {
    "methods": {}
  }
}