{
  "contractName": "Storage",
  "abi": [
    {
      "constant": false,
      "inputs": [
        {
          "internalType": "uint256",
          "name": "position",
          "type": "uint256"
        },
        {
          "internalType": "bool",
          "name": "flag",
          "type": "bool"
        }
      ],
      "name": "store",
      "outputs": [
        {
          "internalType": "bool",
          "name": "",
          "type": "bool"
        }
      ],
      "payable": false,
      "stateMutability": "nonpayable",
      "type": "function"
    },
    {
      "constant": true,
      "inputs": [
        {
          "internalType": "uint256",
          "name": "position",
          "type": "uint256"
        }
      ],
      "name": "retrieve",
      "outputs": [
        {
          "internalType": "bool",
          "name": "",
          "type": "bool"
        }
      ],
      "payable": false,
      "stateMutability": "view",
      "type": "function"
    }
  ],
  "bytecode": "0x608060405234801561001057600080fd5b5061016d806100206000396000f3fe608060405234801561001057600080fd5b50600436106100365760003560e01c80638f88708b1461003b5780639f2a438714610081575b600080fd5b6100676004803603602081101561005157600080fd5b81019080803590602001909291905050506100d3565b604051808215151515815260200191505060405180910390f35b6100b96004803603604081101561009757600080fd5b81019080803590602001909291908035151590602001909291905050506100ff565b604051808215151515815260200191505060405180910390f35b600080600083815260200190815260200160002060000160009054906101000a900460ff169050919050565b60008160008085815260200190815260200160002060000160006101000a81548160ff021916908315150217905550600190509291505056fea265627a7a7231582099f9ea6cdf30900dcbe88422f373a5e55afff4d5f03d216752b2d8c6be1a858564736f6c63430005100032",
  "source": "// SPDX-License-Identifier: MIT\r\npragma solidity >=0.5.16;\r\n\r\ncontract Storage {\r\n\r\n    struct data {\r\n        bool isdata;\r\n    }\r\n\r\n    mapping(uint256 => data) hmap;\r\n\r\n    function store(uint256 position, bool flag) public returns(bool) {\r\n        hmap[position].isdata = flag;\r\n        return true;\r\n    }\r\n    \r\n    function retrieve(uint256 position) public view returns(bool) {\r\n        return hmap[position].isdata;\r\n    }\r\n}",
  "sourcePath": "C:\\Users\\Hp\\Documents\\bc-capstone\\contracts\\Storage.sol",
  "compiler": {
    "name": "solc",
    "version": "0.5.16+commit.9c3226ce.Emscripten.clang"
  },
  "schemaVersion": "3.4.2",
  "updatedAt": "2021-10-07T15:58:16.183Z",
  "devdoc": {
    "methods": {}
  },
  "userdoc": {
    "methods": {}
  }
}